{"contracts/implementation/CreepzIdManager.sol":{"CreepzIdManager":{"abi":[{"inputs":[],"stateMutability":"nonpayable","type":"constructor"},{"inputs":[],"name":"ReporterRateLimitExceeded","type":"error"},{"anonymous":false,"inputs":[{"indexed":false,"internalType":"bytes32","name":"against","type":"bytes32"},{"indexed":false,"internalType":"uint256","name":"severity","type":"uint256"}],"name":"NewReport","type":"event"},{"anonymous":false,"inputs":[{"indexed":true,"internalType":"bytes32","name":"role","type":"bytes32"},{"indexed":true,"internalType":"bytes32","name":"previousAdminRole","type":"bytes32"},{"indexed":true,"internalType":"bytes32","name":"newAdminRole","type":"bytes32"}],"name":"RoleAdminChanged","type":"event"},{"anonymous":false,"inputs":[{"indexed":true,"internalType":"bytes32","name":"role","type":"bytes32"},{"indexed":true,"internalType":"address","name":"account","type":"address"},{"indexed":true,"internalType":"address","name":"sender","type":"address"}],"name":"RoleGranted","type":"event"},{"anonymous":false,"inputs":[{"indexed":true,"internalType":"bytes32","name":"role","type":"bytes32"},{"indexed":true,"internalType":"address","name":"account","type":"address"},{"indexed":true,"internalType":"address","name":"sender","type":"address"}],"name":"RoleRevoked","type":"event"},{"stateMutability":"payable","type":"fallback"},{"inputs":[],"name":"COMMUNITY_MODERATOR_ROLE","outputs":[{"internalType":"bytes32","name":"","type":"bytes32"}],"stateMutability":"view","type":"function"},{"inputs":[],"name":"DEFAULT_ADMIN_ROLE","outputs":[{"internalType":"bytes32","name":"","type":"bytes32"}],"stateMutability":"view","type":"function"},{"inputs":[{"internalType":"bytes32","name":"identifier","type":"bytes32"}],"name":"getReputation","outputs":[{"internalType":"int256","name":"score","type":"int256"}],"stateMutability":"view","type":"function"},{"inputs":[{"internalType":"bytes32","name":"role","type":"bytes32"}],"name":"getRoleAdmin","outputs":[{"internalType":"bytes32","name":"","type":"bytes32"}],"stateMutability":"view","type":"function"},{"inputs":[{"internalType":"bytes32","name":"role","type":"bytes32"},{"internalType":"address","name":"account","type":"address"}],"name":"grantRole","outputs":[],"stateMutability":"nonpayable","type":"function"},{"inputs":[{"internalType":"bytes32","name":"role","type":"bytes32"},{"internalType":"address","name":"account","type":"address"}],"name":"hasRole","outputs":[{"internalType":"bool","name":"","type":"bool"}],"stateMutability":"view","type":"function"},{"inputs":[{"internalType":"bytes32","name":"role","type":"bytes32"},{"internalType":"address","name":"account","type":"address"}],"name":"renounceRole","outputs":[],"stateMutability":"nonpayable","type":"function"},{"inputs":[{"internalType":"bytes32","name":"id","type":"bytes32"},{"internalType":"uint256","name":"severity","type":"uint256"},{"internalType":"string","name":"metadataCID","type":"string"}],"name":"report","outputs":[{"internalType":"bytes32","name":"newReportId","type":"bytes32"}],"stateMutability":"nonpayable","type":"function"},{"inputs":[{"internalType":"bytes32","name":"role","type":"bytes32"},{"internalType":"address","name":"account","type":"address"}],"name":"revokeRole","outputs":[],"stateMutability":"nonpayable","type":"function"},{"inputs":[{"internalType":"uint64","name":"aRate","type":"uint64"}],"name":"setReporterRateLimit","outputs":[{"internalType":"bool","name":"result","type":"bool"}],"stateMutability":"nonpayable","type":"function"},{"inputs":[{"internalType":"bytes4","name":"interfaceId","type":"bytes4"}],"name":"supportsInterface","outputs":[{"internalType":"bool","name":"","type":"bool"}],"stateMutability":"view","type":"function"},{"stateMutability":"payable","type":"receive"}],"evm":{"bytecode":{"linkReferences":{},"object":"60806040523480156200001157600080fd5b50620000276000801b336200004360201b60201c565b6200003d64174876e8006200013560201b60201c565b620003a6565b6200005582826200015360201b60201c565b620001315760016004600084815260200190815260200160002060000160008373ffffffffffffffffffffffffffffffffffffffff1673ffffffffffffffffffffffffffffffffffffffff16815260200190815260200160002060006101000a81548160ff021916908315150217905550620000d6620001be60201b60201c565b73ffffffffffffffffffffffffffffffffffffffff168173ffffffffffffffffffffffffffffffffffffffff16837f2f8788117e7eff1d82e926ec794901d17c78024a50270940304540a733656f0d60405160405180910390a45b5050565b62000150816000620001c660201b620007ca1790919060201c565b50565b60006004600084815260200190815260200160002060000160008373ffffffffffffffffffffffffffffffffffffffff1673ffffffffffffffffffffffffffffffffffffffff16815260200190815260200160002060009054906101000a900460ff16905092915050565b600033905090565b620001d781620001f760201b60201c565b8260010160006101000a81548160ff021916908360ff1602179055505050565b60008060016064846200020b919062000281565b6190006200021a919062000311565b62000226919062000349565b90506101008110156200023d578091505062000243565b60ff9150505b919050565b6000819050919050565b7f4e487b7100000000000000000000000000000000000000000000000000000000600052601160045260246000fd5b60006200028e8262000248565b91506200029b8362000248565b9250817fffffffffffffffffffffffffffffffffffffffffffffffffffffffffffffffff0483118215151615620002d757620002d662000252565b5b828202905092915050565b7f4e487b7100000000000000000000000000000000000000000000000000000000600052601260045260246000fd5b60006200031e8262000248565b91506200032b8362000248565b9250826200033e576200033d620002e2565b5b828204905092915050565b6000620003568262000248565b9150620003638362000248565b9250827fffffffffffffffffffffffffffffffffffffffffffffffffffffffffffffffff038211156200039b576200039a62000252565b5b828201905092915050565b6122d580620003b66000396000f3fe6080604052600436106100a05760003560e01c806391d148541161006457806391d14854146101a0578063a217fddf146101dd578063addfa18214610208578063d14519d214610245578063d547741f14610282578063d99a3927146102ab576100a7565b806301ffc9a7146100a9578063248a9ca3146100e65780632f2ff15d1461012357806336568abe1461014c5780635a1eff5214610175576100a7565b366100a757005b005b3480156100b557600080fd5b506100d060048036038101906100cb9190611336565b6102e8565b6040516100dd919061137e565b60405180910390f35b3480156100f257600080fd5b5061010d600480360381019061010891906113cf565b610362565b60405161011a919061140b565b60405180910390f35b34801561012f57600080fd5b5061014a60048036038101906101459190611484565b610382565b005b34801561015857600080fd5b50610173600480360381019061016e9190611484565b6103a3565b005b34801561018157600080fd5b5061018a610426565b604051610197919061140b565b60405180910390f35b3480156101ac57600080fd5b506101c760048036038101906101c29190611484565b61044a565b6040516101d4919061137e565b60405180910390f35b3480156101e957600080fd5b506101f26104b5565b6040516101ff919061140b565b60405180910390f35b34801561021457600080fd5b5061022f600480360381019061022a919061155f565b6104bc565b60405161023c919061140b565b60405180910390f35b34801561025157600080fd5b5061026c600480360381019061026791906113cf565b61074b565b60405161027991906115ec565b60405180910390f35b34801561028e57600080fd5b506102a960048036038101906102a49190611484565b61076b565b005b3480156102b757600080fd5b506102d260048036038101906102cd9190611647565b61078c565b6040516102df919061137e565b60405180910390f35b60007f7965db0b000000000000000000000000000000000000000000000000000000007bffffffffffffffffffffffffffffffffffffffffffffffffffffffff1916827bffffffffffffffffffffffffffffffffffffffffffffffffffffffff1916148061035b575061035a826107f3565b5b9050919050565b600060046000838152602001908152602001600020600101549050919050565b61038b82610362565b6103948161085d565b61039e8383610871565b505050565b6103ab610952565b73ffffffffffffffffffffffffffffffffffffffff168173ffffffffffffffffffffffffffffffffffffffff1614610418576040517f08c379a000000000000000000000000000000000000000000000000000000000815260040161040f906116f7565b60405180910390fd5b610422828261095a565b5050565b7f277380851101b908288439c0a0f2ea6552ce5429b832eeede59943703cbbc16881565b60006004600084815260200190815260200160002060000160008373ffffffffffffffffffffffffffffffffffffffff1673ffffffffffffffffffffffffffffffffffffffff16815260200190815260200160002060009054906101000a900460ff16905092915050565b6000801b81565b60006104c6610a3c565b6105033360016040516020016104dd929190611780565b604051602081830303815290604052805190602001206000610b7390919063ffffffff16565b1561053a576040517f9689cb0f00000000000000000000000000000000000000000000000000000000815260040160405180910390fd5b6000338660405160200161054f9291906117cd565b6040516020818303038152906040528051906020012090506000801b6005600083815260200190815260200160002060000154146105c2576040517f08c379a00000000000000000000000000000000000000000000000000000000081526004016105b990611845565b60405180910390fd5b604051806080016040528082815260200187815260200186815260200185858080601f016020809104026020016040519081016040528093929190818152602001838380828437600081840152601f19601f82011690508083019250505050505050815250600560008381526020019081526020016000206000820151816000015560208201518160010155604082015181600201556060820151816003019080519060200190610674929190611231565b50905050600061068986600160146008610b9d565b905060003360405160200161069e9190611865565b6040516020818303038152906040528051906020012090506106c988836106c4906118af565b610bed565b6000600660008381526020019081526020016000206000015414156106f8576106f3816005610bed565b610704565b610703816001610bed565b5b7f1471883da0c9e2a8e7d5284477ff356083fc400504747a5d4110bda87bd9a7d28888604051610735929190611907565b60405180910390a1829350505050949350505050565b600060066000838152602001908152602001600020600001549050919050565b61077482610362565b61077d8161085d565b610787838361095a565b505050565b60006107b87f277380851101b908288439c0a0f2ea6552ce5429b832eeede59943703cbbc1683361044a565b6107c157600080fd5b60009050919050565b6107d381610cb3565b8260010160006101000a81548160ff021916908360ff1602179055505050565b60007f01ffc9a7000000000000000000000000000000000000000000000000000000007bffffffffffffffffffffffffffffffffffffffffffffffffffffffff1916827bffffffffffffffffffffffffffffffffffffffffffffffffffffffff1916149050919050565b61086e81610869610952565b610cfc565b50565b61087b828261044a565b61094e5760016004600084815260200190815260200160002060000160008373ffffffffffffffffffffffffffffffffffffffff1673ffffffffffffffffffffffffffffffffffffffff16815260200190815260200160002060006101000a81548160ff0219169083151502179055506108f3610952565b73ffffffffffffffffffffffffffffffffffffffff168173ffffffffffffffffffffffffffffffffffffffff16837f2f8788117e7eff1d82e926ec794901d17c78024a50270940304540a733656f0d60405160405180910390a45b5050565b600033905090565b610964828261044a565b15610a385760006004600084815260200190815260200160002060000160008373ffffffffffffffffffffffffffffffffffffffff1673ffffffffffffffffffffffffffffffffffffffff16815260200190815260200160002060006101000a81548160ff0219169083151502179055506109dd610952565b73ffffffffffffffffffffffffffffffffffffffff168173ffffffffffffffffffffffffffffffffffffffff16837ff6391f5c32d9c69d2a47ea670b442974b53935d1edc7fd64eb21e047a839171b60405160405180910390a45b5050565b600033604051602001610a4f9190611865565b6040516020818303038152906040528051906020012090506000600260008381526020019081526020016000205490506000811415610aa657601e9050601e60026000848152602001908152602001600020819055505b60006003600084815260200190815260200160002054905060008142610acc9190611930565b9050828110610b1757610b12336000604051602001610aec929190611780565b604051602081830303815290604052805190602001206000610d8190919063ffffffff16565b610b55565b610b54336001604051602001610b2e929190611780565b604051602081830303815290604052805190602001206000610d8190919063ffffffff16565b5b42600360008681526020019081526020016000208190555050505050565b6000610b9583600001548460010160009054906101000a900460ff1684610dad565b905092915050565b6000808484610bac9190611930565b905060008184600a610bbe9190611aa4565b8789610bca9190611930565b610bd49190611aef565b610bde9190611b78565b90508092505050949350505050565b6000600660008481526020019081526020016000206000015490506000600660008581526020019081526020016000206001015490506000600182610c329190611ba9565b6004858486610c419190611bff565b610c4b9190611d16565b610c559190611d16565b610c5f9190611daa565b90506040518060400160405280828152602001600184610c7f9190611ba9565b8152506006600087815260200190815260200160002060008201518160000155602082015181600101559050505050505050565b6000806001606484610cc59190611aef565b619000610cd29190611b78565b610cdc9190611ba9565b9050610100811015610cf15780915050610cf7565b60ff9150505b919050565b610d06828261044a565b610d7d57610d1381610ec3565b610d218360001c6020610ef0565b604051602001610d32929190611f26565b6040516020818303038152906040526040517f08c379a0000000000000000000000000000000000000000000000000000000008152600401610d749190611faa565b60405180910390fd5b5050565b610da182600001548360010160009054906101000a900460ff168361112c565b82600001819055505050565b6000808360ff1611610df4576040517f08c379a0000000000000000000000000000000000000000000000000000000008152600401610deb90612018565b60405180910390fd5b60005b8360ff16811015610eb65760006101008483604051602001610e1a929190612038565b6040516020818303038152906040528051906020012060001c610e3d9190612064565b90506101008110610e83576040517f08c379a0000000000000000000000000000000000000000000000000000000008152600401610e7a906120e1565b60405180910390fd5b6000816001901b90508087178714610ea15760009350505050610ebc565b50508080610eae90612101565b915050610df7565b50600190505b9392505050565b6060610ee98273ffffffffffffffffffffffffffffffffffffffff16601460ff16610ef0565b9050919050565b606060006002836002610f039190611aef565b610f0d9190611ba9565b67ffffffffffffffff811115610f2657610f2561214a565b5b6040519080825280601f01601f191660200182016040528015610f585781602001600182028036833780820191505090505b5090507f300000000000000000000000000000000000000000000000000000000000000081600081518110610f9057610f8f612179565b5b60200101907effffffffffffffffffffffffffffffffffffffffffffffffffffffffffffff1916908160001a9053507f780000000000000000000000000000000000000000000000000000000000000081600181518110610ff457610ff3612179565b5b60200101907effffffffffffffffffffffffffffffffffffffffffffffffffffffffffffff1916908160001a905350600060018460026110349190611aef565b61103e9190611ba9565b90505b60018111156110de577f3031323334353637383961626364656600000000000000000000000000000000600f8616601081106110805761107f612179565b5b1a60f81b82828151811061109757611096612179565b5b60200101907effffffffffffffffffffffffffffffffffffffffffffffffffffffffffffff1916908160001a905350600485901c9450806110d7906121a8565b9050611041565b5060008414611122576040517f08c379a00000000000000000000000000000000000000000000000000000000081526004016111199061221e565b60405180910390fd5b8091505092915050565b600083905060008360ff1611611177576040517f08c379a000000000000000000000000000000000000000000000000000000000815260040161116e90612018565b60405180910390fd5b60005b8360ff16811015611229576000610100848360405160200161119d929190612038565b6040516020818303038152906040528051906020012060001c6111c09190612064565b90506101008110611206576040517f08c379a00000000000000000000000000000000000000000000000000000000081526004016111fd906120e1565b60405180910390fd5b6000816001901b905080841793505050808061122190612101565b91505061117a565b509392505050565b82805461123d9061226d565b90600052602060002090601f01602090048101928261125f57600085556112a6565b82601f1061127857805160ff19168380011785556112a6565b828001600101855582156112a6579182015b828111156112a557825182559160200191906001019061128a565b5b5090506112b391906112b7565b5090565b5b808211156112d05760008160009055506001016112b8565b5090565b600080fd5b600080fd5b60007fffffffff0000000000000000000000000000000000000000000000000000000082169050919050565b611313816112de565b811461131e57600080fd5b50565b6000813590506113308161130a565b92915050565b60006020828403121561134c5761134b6112d4565b5b600061135a84828501611321565b91505092915050565b60008115159050919050565b61137881611363565b82525050565b6000602082019050611393600083018461136f565b92915050565b6000819050919050565b6113ac81611399565b81146113b757600080fd5b50565b6000813590506113c9816113a3565b92915050565b6000602082840312156113e5576113e46112d4565b5b60006113f3848285016113ba565b91505092915050565b61140581611399565b82525050565b600060208201905061142060008301846113fc565b92915050565b600073ffffffffffffffffffffffffffffffffffffffff82169050919050565b600061145182611426565b9050919050565b61146181611446565b811461146c57600080fd5b50565b60008135905061147e81611458565b92915050565b6000806040838503121561149b5761149a6112d4565b5b60006114a9858286016113ba565b92505060206114ba8582860161146f565b9150509250929050565b6000819050919050565b6114d7816114c4565b81146114e257600080fd5b50565b6000813590506114f4816114ce565b92915050565b600080fd5b600080fd5b600080fd5b60008083601f84011261151f5761151e6114fa565b5b8235905067ffffffffffffffff81111561153c5761153b6114ff565b5b60208301915083600182028301111561155857611557611504565b5b9250929050565b60008060008060608587031215611579576115786112d4565b5b6000611587878288016113ba565b9450506020611598878288016114e5565b935050604085013567ffffffffffffffff8111156115b9576115b86112d9565b5b6115c587828801611509565b925092505092959194509250565b6000819050919050565b6115e6816115d3565b82525050565b600060208201905061160160008301846115dd565b92915050565b600067ffffffffffffffff82169050919050565b61162481611607565b811461162f57600080fd5b50565b6000813590506116418161161b565b92915050565b60006020828403121561165d5761165c6112d4565b5b600061166b84828501611632565b91505092915050565b600082825260208201905092915050565b7f416363657373436f6e74726f6c3a2063616e206f6e6c792072656e6f756e636560008201527f20726f6c657320666f722073656c660000000000000000000000000000000000602082015250565b60006116e1602f83611674565b91506116ec82611685565b604082019050919050565b60006020820190508181036000830152611710816116d4565b9050919050565b60008160601b9050919050565b600061172f82611717565b9050919050565b600061174182611724565b9050919050565b61175961175482611446565b611736565b82525050565b6000819050919050565b61177a611775826114c4565b61175f565b82525050565b600061178c8285611748565b60148201915061179c8284611769565b6020820191508190509392505050565b6000819050919050565b6117c76117c282611399565b6117ac565b82525050565b60006117d98285611748565b6014820191506117e982846117b6565b6020820191508190509392505050565b7f416c7265616479207265706f7274656420627920757365722100000000000000600082015250565b600061182f601983611674565b915061183a826117f9565b602082019050919050565b6000602082019050818103600083015261185e81611822565b9050919050565b60006118718284611748565b60148201915081905092915050565b7f4e487b7100000000000000000000000000000000000000000000000000000000600052601160045260246000fd5b60006118ba826115d3565b91507f80000000000000000000000000000000000000000000000000000000000000008214156118ed576118ec611880565b5b816000039050919050565b611901816114c4565b82525050565b600060408201905061191c60008301856113fc565b61192960208301846118f8565b9392505050565b600061193b826114c4565b9150611946836114c4565b92508282101561195957611958611880565b5b828203905092915050565b60008160011c9050919050565b6000808291508390505b60018511156119bb5780860481111561199757611996611880565b5b60018516156119a65780820291505b80810290506119b485611964565b945061197b565b94509492505050565b6000826119d45760019050611a90565b816119e25760009050611a90565b81600181146119f85760028114611a0257611a31565b6001915050611a90565b60ff841115611a1457611a13611880565b5b8360020a915084821115611a2b57611a2a611880565b5b50611a90565b5060208310610133831016604e8410600b8410161715611a665782820a905083811115611a6157611a60611880565b5b611a90565b611a738484846001611971565b92509050818404811115611a8a57611a89611880565b5b81810290505b9392505050565b600060ff82169050919050565b6000611aaf826114c4565b9150611aba83611a97565b9250611ae77fffffffffffffffffffffffffffffffffffffffffffffffffffffffffffffffff84846119c4565b905092915050565b6000611afa826114c4565b9150611b05836114c4565b9250817fffffffffffffffffffffffffffffffffffffffffffffffffffffffffffffffff0483118215151615611b3e57611b3d611880565b5b828202905092915050565b7f4e487b7100000000000000000000000000000000000000000000000000000000600052601260045260246000fd5b6000611b83826114c4565b9150611b8e836114c4565b925082611b9e57611b9d611b49565b5b828204905092915050565b6000611bb4826114c4565b9150611bbf836114c4565b9250827fffffffffffffffffffffffffffffffffffffffffffffffffffffffffffffffff03821115611bf457611bf3611880565b5b828201905092915050565b6000611c0a826115d3565b9150611c15836115d3565b9250827f7fffffffffffffffffffffffffffffffffffffffffffffffffffffffffffffff0482116000841360008413161615611c5457611c53611880565b5b817f80000000000000000000000000000000000000000000000000000000000000000583126000841260008413161615611c9157611c90611880565b5b827f80000000000000000000000000000000000000000000000000000000000000000582126000841360008412161615611cce57611ccd611880565b5b827f7fffffffffffffffffffffffffffffffffffffffffffffffffffffffffffffff0582126000841260008412161615611d0b57611d0a611880565b5b828202905092915050565b6000611d21826115d3565b9150611d2c836115d3565b9250817f7fffffffffffffffffffffffffffffffffffffffffffffffffffffffffffffff03831360008312151615611d6757611d66611880565b5b817f8000000000000000000000000000000000000000000000000000000000000000038312600083121615611d9f57611d9e611880565b5b828201905092915050565b6000611db5826115d3565b9150611dc0836115d3565b925082611dd057611dcf611b49565b5b600160000383147f800000000000000000000000000000000000000000000000000000000000000083141615611e0957611e08611880565b5b828205905092915050565b600081905092915050565b7f416363657373436f6e74726f6c3a206163636f756e7420000000000000000000600082015250565b6000611e55601783611e14565b9150611e6082611e1f565b601782019050919050565b600081519050919050565b60005b83811015611e94578082015181840152602081019050611e79565b83811115611ea3576000848401525b50505050565b6000611eb482611e6b565b611ebe8185611e14565b9350611ece818560208601611e76565b80840191505092915050565b7f206973206d697373696e6720726f6c6520000000000000000000000000000000600082015250565b6000611f10601183611e14565b9150611f1b82611eda565b601182019050919050565b6000611f3182611e48565b9150611f3d8285611ea9565b9150611f4882611f03565b9150611f548284611ea9565b91508190509392505050565b6000601f19601f8301169050919050565b6000611f7c82611e6b565b611f868185611674565b9350611f96818560208601611e76565b611f9f81611f60565b840191505092915050565b60006020820190508181036000830152611fc48184611f71565b905092915050565b7f4861736820636f756e742063616e206e6f74206265207a65726f000000000000600082015250565b6000612002601a83611674565b915061200d82611fcc565b602082019050919050565b6000602082019050818103600083015261203181611ff5565b9050919050565b600061204482856117b6565b6020820191506120548284611769565b6020820191508190509392505050565b600061206f826114c4565b915061207a836114c4565b92508261208a57612089611b49565b5b828206905092915050565b7f4f766572666c6f77206572726f72000000000000000000000000000000000000600082015250565b60006120cb600e83611674565b91506120d682612095565b602082019050919050565b600060208201905081810360008301526120fa816120be565b9050919050565b600061210c826114c4565b91507fffffffffffffffffffffffffffffffffffffffffffffffffffffffffffffffff82141561213f5761213e611880565b5b600182019050919050565b7f4e487b7100000000000000000000000000000000000000000000000000000000600052604160045260246000fd5b7f4e487b7100000000000000000000000000000000000000000000000000000000600052603260045260246000fd5b60006121b3826114c4565b915060008214156121c7576121c6611880565b5b600182039050919050565b7f537472696e67733a20686578206c656e67746820696e73756666696369656e74600082015250565b6000612208602083611674565b9150612213826121d2565b602082019050919050565b60006020820190508181036000830152612237816121fb565b9050919050565b7f4e487b7100000000000000000000000000000000000000000000000000000000600052602260045260246000fd5b6000600282049050600182168061228557607f821691505b602082108114156122995761229861223e565b5b5091905056fea2646970667358221220f6deccb68c0158eff5d225154d6ea97c31d27942c957e6dcbf2dc3706946d98564736f6c63430008090033","opcodes":"PUSH1 0x80 PUSH1 0x40 MSTORE CALLVALUE DUP1 ISZERO PUSH3 0x11 JUMPI PUSH1 0x0 DUP1 REVERT JUMPDEST POP PUSH3 0x27 PUSH1 0x0 DUP1 SHL CALLER PUSH3 0x43 PUSH1 0x20 SHL PUSH1 0x20 SHR JUMP JUMPDEST PUSH3 0x3D PUSH5 0x174876E800 PUSH3 0x135 PUSH1 0x20 SHL PUSH1 0x20 SHR JUMP JUMPDEST PUSH3 0x3A6 JUMP JUMPDEST PUSH3 0x55 DUP3 DUP3 PUSH3 0x153 PUSH1 0x20 SHL PUSH1 0x20 SHR JUMP JUMPDEST PUSH3 0x131 JUMPI PUSH1 0x1 PUSH1 0x4 PUSH1 0x0 DUP5 DUP2 MSTORE PUSH1 0x20 ADD SWAP1 DUP2 MSTORE PUSH1 0x20 ADD PUSH1 0x0 KECCAK256 PUSH1 0x0 ADD PUSH1 0x0 DUP4 PUSH20 0xFFFFFFFFFFFFFFFFFFFFFFFFFFFFFFFFFFFFFFFF AND PUSH20 0xFFFFFFFFFFFFFFFFFFFFFFFFFFFFFFFFFFFFFFFF AND DUP2 MSTORE PUSH1 0x20 ADD SWAP1 DUP2 MSTORE PUSH1 0x20 ADD PUSH1 0x0 KECCAK256 PUSH1 0x0 PUSH2 0x100 EXP DUP2 SLOAD DUP2 PUSH1 0xFF MUL NOT AND SWAP1 DUP4 ISZERO ISZERO MUL OR SWAP1 SSTORE POP PUSH3 0xD6 PUSH3 0x1BE PUSH1 0x20 SHL PUSH1 0x20 SHR JUMP JUMPDEST PUSH20 0xFFFFFFFFFFFFFFFFFFFFFFFFFFFFFFFFFFFFFFFF AND DUP2 PUSH20 0xFFFFFFFFFFFFFFFFFFFFFFFFFFFFFFFFFFFFFFFF AND DUP4 PUSH32 0x2F8788117E7EFF1D82E926EC794901D17C78024A50270940304540A733656F0D PUSH1 0x40 MLOAD PUSH1 0x40 MLOAD DUP1 SWAP2 SUB SWAP1 LOG4 JUMPDEST POP POP JUMP JUMPDEST PUSH3 0x150 DUP2 PUSH1 0x0 PUSH3 0x1C6 PUSH1 0x20 SHL PUSH3 0x7CA OR SWAP1 SWAP2 SWAP1 PUSH1 0x20 SHR JUMP JUMPDEST POP JUMP JUMPDEST PUSH1 0x0 PUSH1 0x4 PUSH1 0x0 DUP5 DUP2 MSTORE PUSH1 0x20 ADD SWAP1 DUP2 MSTORE PUSH1 0x20 ADD PUSH1 0x0 KECCAK256 PUSH1 0x0 ADD PUSH1 0x0 DUP4 PUSH20 0xFFFFFFFFFFFFFFFFFFFFFFFFFFFFFFFFFFFFFFFF AND PUSH20 0xFFFFFFFFFFFFFFFFFFFFFFFFFFFFFFFFFFFFFFFF AND DUP2 MSTORE PUSH1 0x20 ADD SWAP1 DUP2 MSTORE PUSH1 0x20 ADD PUSH1 0x0 KECCAK256 PUSH1 0x0 SWAP1 SLOAD SWAP1 PUSH2 0x100 EXP SWAP1 DIV PUSH1 0xFF AND SWAP1 POP SWAP3 SWAP2 POP POP JUMP JUMPDEST PUSH1 0x0 CALLER SWAP1 POP SWAP1 JUMP JUMPDEST PUSH3 0x1D7 DUP2 PUSH3 0x1F7 PUSH1 0x20 SHL PUSH1 0x20 SHR JUMP JUMPDEST DUP3 PUSH1 0x1 ADD PUSH1 0x0 PUSH2 0x100 EXP DUP2 SLOAD DUP2 PUSH1 0xFF MUL NOT AND SWAP1 DUP4 PUSH1 0xFF AND MUL OR SWAP1 SSTORE POP POP POP JUMP JUMPDEST PUSH1 0x0 DUP1 PUSH1 0x1 PUSH1 0x64 DUP5 PUSH3 0x20B SWAP2 SWAP1 PUSH3 0x281 JUMP JUMPDEST PUSH2 0x9000 PUSH3 0x21A SWAP2 SWAP1 PUSH3 0x311 JUMP JUMPDEST PUSH3 0x226 SWAP2 SWAP1 PUSH3 0x349 JUMP JUMPDEST SWAP1 POP PUSH2 0x100 DUP2 LT ISZERO PUSH3 0x23D JUMPI DUP1 SWAP2 POP POP PUSH3 0x243 JUMP JUMPDEST PUSH1 0xFF SWAP2 POP POP JUMPDEST SWAP2 SWAP1 POP JUMP JUMPDEST PUSH1 0x0 DUP2 SWAP1 POP SWAP2 SWAP1 POP JUMP JUMPDEST PUSH32 0x4E487B7100000000000000000000000000000000000000000000000000000000 PUSH1 0x0 MSTORE PUSH1 0x11 PUSH1 0x4 MSTORE PUSH1 0x24 PUSH1 0x0 REVERT JUMPDEST PUSH1 0x0 PUSH3 0x28E DUP3 PUSH3 0x248 JUMP JUMPDEST SWAP2 POP PUSH3 0x29B DUP4 PUSH3 0x248 JUMP JUMPDEST SWAP3 POP DUP2 PUSH32 0xFFFFFFFFFFFFFFFFFFFFFFFFFFFFFFFFFFFFFFFFFFFFFFFFFFFFFFFFFFFFFFFF DIV DUP4 GT DUP3 ISZERO ISZERO AND ISZERO PUSH3 0x2D7 JUMPI PUSH3 0x2D6 PUSH3 0x252 JUMP JUMPDEST JUMPDEST DUP3 DUP3 MUL SWAP1 POP SWAP3 SWAP2 POP POP JUMP JUMPDEST PUSH32 0x4E487B7100000000000000000000000000000000000000000000000000000000 PUSH1 0x0 MSTORE PUSH1 0x12 PUSH1 0x4 MSTORE PUSH1 0x24 PUSH1 0x0 REVERT JUMPDEST PUSH1 0x0 PUSH3 0x31E DUP3 PUSH3 0x248 JUMP JUMPDEST SWAP2 POP PUSH3 0x32B DUP4 PUSH3 0x248 JUMP JUMPDEST SWAP3 POP DUP3 PUSH3 0x33E JUMPI PUSH3 0x33D PUSH3 0x2E2 JUMP JUMPDEST JUMPDEST DUP3 DUP3 DIV SWAP1 POP SWAP3 SWAP2 POP POP JUMP JUMPDEST PUSH1 0x0 PUSH3 0x356 DUP3 PUSH3 0x248 JUMP JUMPDEST SWAP2 POP PUSH3 0x363 DUP4 PUSH3 0x248 JUMP JUMPDEST SWAP3 POP DUP3 PUSH32 0xFFFFFFFFFFFFFFFFFFFFFFFFFFFFFFFFFFFFFFFFFFFFFFFFFFFFFFFFFFFFFFFF SUB DUP3 GT ISZERO PUSH3 0x39B JUMPI PUSH3 0x39A PUSH3 0x252 JUMP JUMPDEST JUMPDEST DUP3 DUP3 ADD SWAP1 POP SWAP3 SWAP2 POP POP JUMP JUMPDEST PUSH2 0x22D5 DUP1 PUSH3 0x3B6 PUSH1 0x0 CODECOPY PUSH1 0x0 RETURN INVALID PUSH1 0x80 PUSH1 0x40 MSTORE PUSH1 0x4 CALLDATASIZE LT PUSH2 0xA0 JUMPI PUSH1 0x0 CALLDATALOAD PUSH1 0xE0 SHR DUP1 PUSH4 0x91D14854 GT PUSH2 0x64 JUMPI DUP1 PUSH4 0x91D14854 EQ PUSH2 0x1A0 JUMPI DUP1 PUSH4 0xA217FDDF EQ PUSH2 0x1DD JUMPI DUP1 PUSH4 0xADDFA182 EQ PUSH2 0x208 JUMPI DUP1 PUSH4 0xD14519D2 EQ PUSH2 0x245 JUMPI DUP1 PUSH4 0xD547741F EQ PUSH2 0x282 JUMPI DUP1 PUSH4 0xD99A3927 EQ PUSH2 0x2AB JUMPI PUSH2 0xA7 JUMP JUMPDEST DUP1 PUSH4 0x1FFC9A7 EQ PUSH2 0xA9 JUMPI DUP1 PUSH4 0x248A9CA3 EQ PUSH2 0xE6 JUMPI DUP1 PUSH4 0x2F2FF15D EQ PUSH2 0x123 JUMPI DUP1 PUSH4 0x36568ABE EQ PUSH2 0x14C JUMPI DUP1 PUSH4 0x5A1EFF52 EQ PUSH2 0x175 JUMPI PUSH2 0xA7 JUMP JUMPDEST CALLDATASIZE PUSH2 0xA7 JUMPI STOP JUMPDEST STOP JUMPDEST CALLVALUE DUP1 ISZERO PUSH2 0xB5 JUMPI PUSH1 0x0 DUP1 REVERT JUMPDEST POP PUSH2 0xD0 PUSH1 0x4 DUP1 CALLDATASIZE SUB DUP2 ADD SWAP1 PUSH2 0xCB SWAP2 SWAP1 PUSH2 0x1336 JUMP JUMPDEST PUSH2 0x2E8 JUMP JUMPDEST PUSH1 0x40 MLOAD PUSH2 0xDD SWAP2 SWAP1 PUSH2 0x137E JUMP JUMPDEST PUSH1 0x40 MLOAD DUP1 SWAP2 SUB SWAP1 RETURN JUMPDEST CALLVALUE DUP1 ISZERO PUSH2 0xF2 JUMPI PUSH1 0x0 DUP1 REVERT JUMPDEST POP PUSH2 0x10D PUSH1 0x4 DUP1 CALLDATASIZE SUB DUP2 ADD SWAP1 PUSH2 0x108 SWAP2 SWAP1 PUSH2 0x13CF JUMP JUMPDEST PUSH2 0x362 JUMP JUMPDEST PUSH1 0x40 MLOAD PUSH2 0x11A SWAP2 SWAP1 PUSH2 0x140B JUMP JUMPDEST PUSH1 0x40 MLOAD DUP1 SWAP2 SUB SWAP1 RETURN JUMPDEST CALLVALUE DUP1 ISZERO PUSH2 0x12F JUMPI PUSH1 0x0 DUP1 REVERT JUMPDEST POP PUSH2 0x14A PUSH1 0x4 DUP1 CALLDATASIZE SUB DUP2 ADD SWAP1 PUSH2 0x145 SWAP2 SWAP1 PUSH2 0x1484 JUMP JUMPDEST PUSH2 0x382 JUMP JUMPDEST STOP JUMPDEST CALLVALUE DUP1 ISZERO PUSH2 0x158 JUMPI PUSH1 0x0 DUP1 REVERT JUMPDEST POP PUSH2 0x173 PUSH1 0x4 DUP1 CALLDATASIZE SUB DUP2 ADD SWAP1 PUSH2 0x16E SWAP2 SWAP1 PUSH2 0x1484 JUMP JUMPDEST PUSH2 0x3A3 JUMP JUMPDEST STOP JUMPDEST CALLVALUE DUP1 ISZERO PUSH2 0x181 JUMPI PUSH1 0x0 DUP1 REVERT JUMPDEST POP PUSH2 0x18A PUSH2 0x426 JUMP JUMPDEST PUSH1 0x40 MLOAD PUSH2 0x197 SWAP2 SWAP1 PUSH2 0x140B JUMP JUMPDEST PUSH1 0x40 MLOAD DUP1 SWAP2 SUB SWAP1 RETURN JUMPDEST CALLVALUE DUP1 ISZERO PUSH2 0x1AC JUMPI PUSH1 0x0 DUP1 REVERT JUMPDEST POP PUSH2 0x1C7 PUSH1 0x4 DUP1 CALLDATASIZE SUB DUP2 ADD SWAP1 PUSH2 0x1C2 SWAP2 SWAP1 PUSH2 0x1484 JUMP JUMPDEST PUSH2 0x44A JUMP JUMPDEST PUSH1 0x40 MLOAD PUSH2 0x1D4 SWAP2 SWAP1 PUSH2 0x137E JUMP JUMPDEST PUSH1 0x40 MLOAD DUP1 SWAP2 SUB SWAP1 RETURN JUMPDEST CALLVALUE DUP1 ISZERO PUSH2 0x1E9 JUMPI PUSH1 0x0 DUP1 REVERT JUMPDEST POP PUSH2 0x1F2 PUSH2 0x4B5 JUMP JUMPDEST PUSH1 0x40 MLOAD PUSH2 0x1FF SWAP2 SWAP1 PUSH2 0x140B JUMP JUMPDEST PUSH1 0x40 MLOAD DUP1 SWAP2 SUB SWAP1 RETURN JUMPDEST CALLVALUE DUP1 ISZERO PUSH2 0x214 JUMPI PUSH1 0x0 DUP1 REVERT JUMPDEST POP PUSH2 0x22F PUSH1 0x4 DUP1 CALLDATASIZE SUB DUP2 ADD SWAP1 PUSH2 0x22A SWAP2 SWAP1 PUSH2 0x155F JUMP JUMPDEST PUSH2 0x4BC JUMP JUMPDEST PUSH1 0x40 MLOAD PUSH2 0x23C SWAP2 SWAP1 PUSH2 0x140B JUMP JUMPDEST PUSH1 0x40 MLOAD DUP1 SWAP2 SUB SWAP1 RETURN JUMPDEST CALLVALUE DUP1 ISZERO PUSH2 0x251 JUMPI PUSH1 0x0 DUP1 REVERT JUMPDEST POP PUSH2 0x26C PUSH1 0x4 DUP1 CALLDATASIZE SUB DUP2 ADD SWAP1 PUSH2 0x267 SWAP2 SWAP1 PUSH2 0x13CF JUMP JUMPDEST PUSH2 0x74B JUMP JUMPDEST PUSH1 0x40 MLOAD PUSH2 0x279 SWAP2 SWAP1 PUSH2 0x15EC JUMP JUMPDEST PUSH1 0x40 MLOAD DUP1 SWAP2 SUB SWAP1 RETURN JUMPDEST CALLVALUE DUP1 ISZERO PUSH2 0x28E JUMPI PUSH1 0x0 DUP1 REVERT JUMPDEST POP PUSH2 0x2A9 PUSH1 0x4 DUP1 CALLDATASIZE SUB DUP2 ADD SWAP1 PUSH2 0x2A4 SWAP2 SWAP1 PUSH2 0x1484 JUMP JUMPDEST PUSH2 0x76B JUMP JUMPDEST STOP JUMPDEST CALLVALUE DUP1 ISZERO PUSH2 0x2B7 JUMPI PUSH1 0x0 DUP1 REVERT JUMPDEST POP PUSH2 0x2D2 PUSH1 0x4 DUP1 CALLDATASIZE SUB DUP2 ADD SWAP1 PUSH2 0x2CD SWAP2 SWAP1 PUSH2 0x1647 JUMP JUMPDEST PUSH2 0x78C JUMP JUMPDEST PUSH1 0x40 MLOAD PUSH2 0x2DF SWAP2 SWAP1 PUSH2 0x137E JUMP JUMPDEST PUSH1 0x40 MLOAD DUP1 SWAP2 SUB SWAP1 RETURN JUMPDEST PUSH1 0x0 PUSH32 0x7965DB0B00000000000000000000000000000000000000000000000000000000 PUSH28 0xFFFFFFFFFFFFFFFFFFFFFFFFFFFFFFFFFFFFFFFFFFFFFFFFFFFFFFFF NOT AND DUP3 PUSH28 0xFFFFFFFFFFFFFFFFFFFFFFFFFFFFFFFFFFFFFFFFFFFFFFFFFFFFFFFF NOT AND EQ DUP1 PUSH2 0x35B JUMPI POP PUSH2 0x35A DUP3 PUSH2 0x7F3 JUMP JUMPDEST JUMPDEST SWAP1 POP SWAP2 SWAP1 POP JUMP JUMPDEST PUSH1 0x0 PUSH1 0x4 PUSH1 0x0 DUP4 DUP2 MSTORE PUSH1 0x20 ADD SWAP1 DUP2 MSTORE PUSH1 0x20 ADD PUSH1 0x0 KECCAK256 PUSH1 0x1 ADD SLOAD SWAP1 POP SWAP2 SWAP1 POP JUMP JUMPDEST PUSH2 0x38B DUP3 PUSH2 0x362 JUMP JUMPDEST PUSH2 0x394 DUP2 PUSH2 0x85D JUMP JUMPDEST PUSH2 0x39E DUP4 DUP4 PUSH2 0x871 JUMP JUMPDEST POP POP POP JUMP JUMPDEST PUSH2 0x3AB PUSH2 0x952 JUMP JUMPDEST PUSH20 0xFFFFFFFFFFFFFFFFFFFFFFFFFFFFFFFFFFFFFFFF AND DUP2 PUSH20 0xFFFFFFFFFFFFFFFFFFFFFFFFFFFFFFFFFFFFFFFF AND EQ PUSH2 0x418 JUMPI PUSH1 0x40 MLOAD PUSH32 0x8C379A000000000000000000000000000000000000000000000000000000000 DUP2 MSTORE PUSH1 0x4 ADD PUSH2 0x40F SWAP1 PUSH2 0x16F7 JUMP JUMPDEST PUSH1 0x40 MLOAD DUP1 SWAP2 SUB SWAP1 REVERT JUMPDEST PUSH2 0x422 DUP3 DUP3 PUSH2 0x95A JUMP JUMPDEST POP POP JUMP JUMPDEST PUSH32 0x277380851101B908288439C0A0F2EA6552CE5429B832EEEDE59943703CBBC168 DUP2 JUMP JUMPDEST PUSH1 0x0 PUSH1 0x4 PUSH1 0x0 DUP5 DUP2 MSTORE PUSH1 0x20 ADD SWAP1 DUP2 MSTORE PUSH1 0x20 ADD PUSH1 0x0 KECCAK256 PUSH1 0x0 ADD PUSH1 0x0 DUP4 PUSH20 0xFFFFFFFFFFFFFFFFFFFFFFFFFFFFFFFFFFFFFFFF AND PUSH20 0xFFFFFFFFFFFFFFFFFFFFFFFFFFFFFFFFFFFFFFFF AND DUP2 MSTORE PUSH1 0x20 ADD SWAP1 DUP2 MSTORE PUSH1 0x20 ADD PUSH1 0x0 KECCAK256 PUSH1 0x0 SWAP1 SLOAD SWAP1 PUSH2 0x100 EXP SWAP1 DIV PUSH1 0xFF AND SWAP1 POP SWAP3 SWAP2 POP POP JUMP JUMPDEST PUSH1 0x0 DUP1 SHL DUP2 JUMP JUMPDEST PUSH1 0x0 PUSH2 0x4C6 PUSH2 0xA3C JUMP JUMPDEST PUSH2 0x503 CALLER PUSH1 0x1 PUSH1 0x40 MLOAD PUSH1 0x20 ADD PUSH2 0x4DD SWAP3 SWAP2 SWAP1 PUSH2 0x1780 JUMP JUMPDEST PUSH1 0x40 MLOAD PUSH1 0x20 DUP2 DUP4 SUB SUB DUP2 MSTORE SWAP1 PUSH1 0x40 MSTORE DUP1 MLOAD SWAP1 PUSH1 0x20 ADD KECCAK256 PUSH1 0x0 PUSH2 0xB73 SWAP1 SWAP2 SWAP1 PUSH4 0xFFFFFFFF AND JUMP JUMPDEST ISZERO PUSH2 0x53A JUMPI PUSH1 0x40 MLOAD PUSH32 0x9689CB0F00000000000000000000000000000000000000000000000000000000 DUP2 MSTORE PUSH1 0x4 ADD PUSH1 0x40 MLOAD DUP1 SWAP2 SUB SWAP1 REVERT JUMPDEST PUSH1 0x0 CALLER DUP7 PUSH1 0x40 MLOAD PUSH1 0x20 ADD PUSH2 0x54F SWAP3 SWAP2 SWAP1 PUSH2 0x17CD JUMP JUMPDEST PUSH1 0x40 MLOAD PUSH1 0x20 DUP2 DUP4 SUB SUB DUP2 MSTORE SWAP1 PUSH1 0x40 MSTORE DUP1 MLOAD SWAP1 PUSH1 0x20 ADD KECCAK256 SWAP1 POP PUSH1 0x0 DUP1 SHL PUSH1 0x5 PUSH1 0x0 DUP4 DUP2 MSTORE PUSH1 0x20 ADD SWAP1 DUP2 MSTORE PUSH1 0x20 ADD PUSH1 0x0 KECCAK256 PUSH1 0x0 ADD SLOAD EQ PUSH2 0x5C2 JUMPI PUSH1 0x40 MLOAD PUSH32 0x8C379A000000000000000000000000000000000000000000000000000000000 DUP2 MSTORE PUSH1 0x4 ADD PUSH2 0x5B9 SWAP1 PUSH2 0x1845 JUMP JUMPDEST PUSH1 0x40 MLOAD DUP1 SWAP2 SUB SWAP1 REVERT JUMPDEST PUSH1 0x40 MLOAD DUP1 PUSH1 0x80 ADD PUSH1 0x40 MSTORE DUP1 DUP3 DUP2 MSTORE PUSH1 0x20 ADD DUP8 DUP2 MSTORE PUSH1 0x20 ADD DUP7 DUP2 MSTORE PUSH1 0x20 ADD DUP6 DUP6 DUP1 DUP1 PUSH1 0x1F ADD PUSH1 0x20 DUP1 SWAP2 DIV MUL PUSH1 0x20 ADD PUSH1 0x40 MLOAD SWAP1 DUP2 ADD PUSH1 0x40 MSTORE DUP1 SWAP4 SWAP3 SWAP2 SWAP1 DUP2 DUP2 MSTORE PUSH1 0x20 ADD DUP4 DUP4 DUP1 DUP3 DUP5 CALLDATACOPY PUSH1 0x0 DUP2 DUP5 ADD MSTORE PUSH1 0x1F NOT PUSH1 0x1F DUP3 ADD AND SWAP1 POP DUP1 DUP4 ADD SWAP3 POP POP POP POP POP POP POP DUP2 MSTORE POP PUSH1 0x5 PUSH1 0x0 DUP4 DUP2 MSTORE PUSH1 0x20 ADD SWAP1 DUP2 MSTORE PUSH1 0x20 ADD PUSH1 0x0 KECCAK256 PUSH1 0x0 DUP3 ADD MLOAD DUP2 PUSH1 0x0 ADD SSTORE PUSH1 0x20 DUP3 ADD MLOAD DUP2 PUSH1 0x1 ADD SSTORE PUSH1 0x40 DUP3 ADD MLOAD DUP2 PUSH1 0x2 ADD SSTORE PUSH1 0x60 DUP3 ADD MLOAD DUP2 PUSH1 0x3 ADD SWAP1 DUP1 MLOAD SWAP1 PUSH1 0x20 ADD SWAP1 PUSH2 0x674 SWAP3 SWAP2 SWAP1 PUSH2 0x1231 JUMP JUMPDEST POP SWAP1 POP POP PUSH1 0x0 PUSH2 0x689 DUP7 PUSH1 0x1 PUSH1 0x14 PUSH1 0x8 PUSH2 0xB9D JUMP JUMPDEST SWAP1 POP PUSH1 0x0 CALLER PUSH1 0x40 MLOAD PUSH1 0x20 ADD PUSH2 0x69E SWAP2 SWAP1 PUSH2 0x1865 JUMP JUMPDEST PUSH1 0x40 MLOAD PUSH1 0x20 DUP2 DUP4 SUB SUB DUP2 MSTORE SWAP1 PUSH1 0x40 MSTORE DUP1 MLOAD SWAP1 PUSH1 0x20 ADD KECCAK256 SWAP1 POP PUSH2 0x6C9 DUP9 DUP4 PUSH2 0x6C4 SWAP1 PUSH2 0x18AF JUMP JUMPDEST PUSH2 0xBED JUMP JUMPDEST PUSH1 0x0 PUSH1 0x6 PUSH1 0x0 DUP4 DUP2 MSTORE PUSH1 0x20 ADD SWAP1 DUP2 MSTORE PUSH1 0x20 ADD PUSH1 0x0 KECCAK256 PUSH1 0x0 ADD SLOAD EQ ISZERO PUSH2 0x6F8 JUMPI PUSH2 0x6F3 DUP2 PUSH1 0x5 PUSH2 0xBED JUMP JUMPDEST PUSH2 0x704 JUMP JUMPDEST PUSH2 0x703 DUP2 PUSH1 0x1 PUSH2 0xBED JUMP JUMPDEST JUMPDEST PUSH32 0x1471883DA0C9E2A8E7D5284477FF356083FC400504747A5D4110BDA87BD9A7D2 DUP9 DUP9 PUSH1 0x40 MLOAD PUSH2 0x735 SWAP3 SWAP2 SWAP1 PUSH2 0x1907 JUMP JUMPDEST PUSH1 0x40 MLOAD DUP1 SWAP2 SUB SWAP1 LOG1 DUP3 SWAP4 POP POP POP POP SWAP5 SWAP4 POP POP POP POP JUMP JUMPDEST PUSH1 0x0 PUSH1 0x6 PUSH1 0x0 DUP4 DUP2 MSTORE PUSH1 0x20 ADD SWAP1 DUP2 MSTORE PUSH1 0x20 ADD PUSH1 0x0 KECCAK256 PUSH1 0x0 ADD SLOAD SWAP1 POP SWAP2 SWAP1 POP JUMP JUMPDEST PUSH2 0x774 DUP3 PUSH2 0x362 JUMP JUMPDEST PUSH2 0x77D DUP2 PUSH2 0x85D JUMP JUMPDEST PUSH2 0x787 DUP4 DUP4 PUSH2 0x95A JUMP JUMPDEST POP POP POP JUMP JUMPDEST PUSH1 0x0 PUSH2 0x7B8 PUSH32 0x277380851101B908288439C0A0F2EA6552CE5429B832EEEDE59943703CBBC168 CALLER PUSH2 0x44A JUMP JUMPDEST PUSH2 0x7C1 JUMPI PUSH1 0x0 DUP1 REVERT JUMPDEST PUSH1 0x0 SWAP1 POP SWAP2 SWAP1 POP JUMP JUMPDEST PUSH2 0x7D3 DUP2 PUSH2 0xCB3 JUMP JUMPDEST DUP3 PUSH1 0x1 ADD PUSH1 0x0 PUSH2 0x100 EXP DUP2 SLOAD DUP2 PUSH1 0xFF MUL NOT AND SWAP1 DUP4 PUSH1 0xFF AND MUL OR SWAP1 SSTORE POP POP POP JUMP JUMPDEST PUSH1 0x0 PUSH32 0x1FFC9A700000000000000000000000000000000000000000000000000000000 PUSH28 0xFFFFFFFFFFFFFFFFFFFFFFFFFFFFFFFFFFFFFFFFFFFFFFFFFFFFFFFF NOT AND DUP3 PUSH28 0xFFFFFFFFFFFFFFFFFFFFFFFFFFFFFFFFFFFFFFFFFFFFFFFFFFFFFFFF NOT AND EQ SWAP1 POP SWAP2 SWAP1 POP JUMP JUMPDEST PUSH2 0x86E DUP2 PUSH2 0x869 PUSH2 0x952 JUMP JUMPDEST PUSH2 0xCFC JUMP JUMPDEST POP JUMP JUMPDEST PUSH2 0x87B DUP3 DUP3 PUSH2 0x44A JUMP JUMPDEST PUSH2 0x94E JUMPI PUSH1 0x1 PUSH1 0x4 PUSH1 0x0 DUP5 DUP2 MSTORE PUSH1 0x20 ADD SWAP1 DUP2 MSTORE PUSH1 0x20 ADD PUSH1 0x0 KECCAK256 PUSH1 0x0 ADD PUSH1 0x0 DUP4 PUSH20 0xFFFFFFFFFFFFFFFFFFFFFFFFFFFFFFFFFFFFFFFF AND PUSH20 0xFFFFFFFFFFFFFFFFFFFFFFFFFFFFFFFFFFFFFFFF AND DUP2 MSTORE PUSH1 0x20 ADD SWAP1 DUP2 MSTORE PUSH1 0x20 ADD PUSH1 0x0 KECCAK256 PUSH1 0x0 PUSH2 0x100 EXP DUP2 SLOAD DUP2 PUSH1 0xFF MUL NOT AND SWAP1 DUP4 ISZERO ISZERO MUL OR SWAP1 SSTORE POP PUSH2 0x8F3 PUSH2 0x952 JUMP JUMPDEST PUSH20 0xFFFFFFFFFFFFFFFFFFFFFFFFFFFFFFFFFFFFFFFF AND DUP2 PUSH20 0xFFFFFFFFFFFFFFFFFFFFFFFFFFFFFFFFFFFFFFFF AND DUP4 PUSH32 0x2F8788117E7EFF1D82E926EC794901D17C78024A50270940304540A733656F0D PUSH1 0x40 MLOAD PUSH1 0x40 MLOAD DUP1 SWAP2 SUB SWAP1 LOG4 JUMPDEST POP POP JUMP JUMPDEST PUSH1 0x0 CALLER SWAP1 POP SWAP1 JUMP JUMPDEST PUSH2 0x964 DUP3 DUP3 PUSH2 0x44A JUMP JUMPDEST ISZERO PUSH2 0xA38 JUMPI PUSH1 0x0 PUSH1 0x4 PUSH1 0x0 DUP5 DUP2 MSTORE PUSH1 0x20 ADD SWAP1 DUP2 MSTORE PUSH1 0x20 ADD PUSH1 0x0 KECCAK256 PUSH1 0x0 ADD PUSH1 0x0 DUP4 PUSH20 0xFFFFFFFFFFFFFFFFFFFFFFFFFFFFFFFFFFFFFFFF AND PUSH20 0xFFFFFFFFFFFFFFFFFFFFFFFFFFFFFFFFFFFFFFFF AND DUP2 MSTORE PUSH1 0x20 ADD SWAP1 DUP2 MSTORE PUSH1 0x20 ADD PUSH1 0x0 KECCAK256 PUSH1 0x0 PUSH2 0x100 EXP DUP2 SLOAD DUP2 PUSH1 0xFF MUL NOT AND SWAP1 DUP4 ISZERO ISZERO MUL OR SWAP1 SSTORE POP PUSH2 0x9DD PUSH2 0x952 JUMP JUMPDEST PUSH20 0xFFFFFFFFFFFFFFFFFFFFFFFFFFFFFFFFFFFFFFFF AND DUP2 PUSH20 0xFFFFFFFFFFFFFFFFFFFFFFFFFFFFFFFFFFFFFFFF AND DUP4 PUSH32 0xF6391F5C32D9C69D2A47EA670B442974B53935D1EDC7FD64EB21E047A839171B PUSH1 0x40 MLOAD PUSH1 0x40 MLOAD DUP1 SWAP2 SUB SWAP1 LOG4 JUMPDEST POP POP JUMP JUMPDEST PUSH1 0x0 CALLER PUSH1 0x40 MLOAD PUSH1 0x20 ADD PUSH2 0xA4F SWAP2 SWAP1 PUSH2 0x1865 JUMP JUMPDEST PUSH1 0x40 MLOAD PUSH1 0x20 DUP2 DUP4 SUB SUB DUP2 MSTORE SWAP1 PUSH1 0x40 MSTORE DUP1 MLOAD SWAP1 PUSH1 0x20 ADD KECCAK256 SWAP1 POP PUSH1 0x0 PUSH1 0x2 PUSH1 0x0 DUP4 DUP2 MSTORE PUSH1 0x20 ADD SWAP1 DUP2 MSTORE PUSH1 0x20 ADD PUSH1 0x0 KECCAK256 SLOAD SWAP1 POP PUSH1 0x0 DUP2 EQ ISZERO PUSH2 0xAA6 JUMPI PUSH1 0x1E SWAP1 POP PUSH1 0x1E PUSH1 0x2 PUSH1 0x0 DUP5 DUP2 MSTORE PUSH1 0x20 ADD SWAP1 DUP2 MSTORE PUSH1 0x20 ADD PUSH1 0x0 KECCAK256 DUP2 SWAP1 SSTORE POP JUMPDEST PUSH1 0x0 PUSH1 0x3 PUSH1 0x0 DUP5 DUP2 MSTORE PUSH1 0x20 ADD SWAP1 DUP2 MSTORE PUSH1 0x20 ADD PUSH1 0x0 KECCAK256 SLOAD SWAP1 POP PUSH1 0x0 DUP2 TIMESTAMP PUSH2 0xACC SWAP2 SWAP1 PUSH2 0x1930 JUMP JUMPDEST SWAP1 POP DUP3 DUP2 LT PUSH2 0xB17 JUMPI PUSH2 0xB12 CALLER PUSH1 0x0 PUSH1 0x40 MLOAD PUSH1 0x20 ADD PUSH2 0xAEC SWAP3 SWAP2 SWAP1 PUSH2 0x1780 JUMP JUMPDEST PUSH1 0x40 MLOAD PUSH1 0x20 DUP2 DUP4 SUB SUB DUP2 MSTORE SWAP1 PUSH1 0x40 MSTORE DUP1 MLOAD SWAP1 PUSH1 0x20 ADD KECCAK256 PUSH1 0x0 PUSH2 0xD81 SWAP1 SWAP2 SWAP1 PUSH4 0xFFFFFFFF AND JUMP JUMPDEST PUSH2 0xB55 JUMP JUMPDEST PUSH2 0xB54 CALLER PUSH1 0x1 PUSH1 0x40 MLOAD PUSH1 0x20 ADD PUSH2 0xB2E SWAP3 SWAP2 SWAP1 PUSH2 0x1780 JUMP JUMPDEST PUSH1 0x40 MLOAD PUSH1 0x20 DUP2 DUP4 SUB SUB DUP2 MSTORE SWAP1 PUSH1 0x40 MSTORE DUP1 MLOAD SWAP1 PUSH1 0x20 ADD KECCAK256 PUSH1 0x0 PUSH2 0xD81 SWAP1 SWAP2 SWAP1 PUSH4 0xFFFFFFFF AND JUMP JUMPDEST JUMPDEST TIMESTAMP PUSH1 0x3 PUSH1 0x0 DUP7 DUP2 MSTORE PUSH1 0x20 ADD SWAP1 DUP2 MSTORE PUSH1 0x20 ADD PUSH1 0x0 KECCAK256 DUP2 SWAP1 SSTORE POP POP POP POP POP JUMP JUMPDEST PUSH1 0x0 PUSH2 0xB95 DUP4 PUSH1 0x0 ADD SLOAD DUP5 PUSH1 0x1 ADD PUSH1 0x0 SWAP1 SLOAD SWAP1 PUSH2 0x100 EXP SWAP1 DIV PUSH1 0xFF AND DUP5 PUSH2 0xDAD JUMP JUMPDEST SWAP1 POP SWAP3 SWAP2 POP POP JUMP JUMPDEST PUSH1 0x0 DUP1 DUP5 DUP5 PUSH2 0xBAC SWAP2 SWAP1 PUSH2 0x1930 JUMP JUMPDEST SWAP1 POP PUSH1 0x0 DUP2 DUP5 PUSH1 0xA PUSH2 0xBBE SWAP2 SWAP1 PUSH2 0x1AA4 JUMP JUMPDEST DUP8 DUP10 PUSH2 0xBCA SWAP2 SWAP1 PUSH2 0x1930 JUMP JUMPDEST PUSH2 0xBD4 SWAP2 SWAP1 PUSH2 0x1AEF JUMP JUMPDEST PUSH2 0xBDE SWAP2 SWAP1 PUSH2 0x1B78 JUMP JUMPDEST SWAP1 POP DUP1 SWAP3 POP POP POP SWAP5 SWAP4 POP POP POP POP JUMP JUMPDEST PUSH1 0x0 PUSH1 0x6 PUSH1 0x0 DUP5 DUP2 MSTORE PUSH1 0x20 ADD SWAP1 DUP2 MSTORE PUSH1 0x20 ADD PUSH1 0x0 KECCAK256 PUSH1 0x0 ADD SLOAD SWAP1 POP PUSH1 0x0 PUSH1 0x6 PUSH1 0x0 DUP6 DUP2 MSTORE PUSH1 0x20 ADD SWAP1 DUP2 MSTORE PUSH1 0x20 ADD PUSH1 0x0 KECCAK256 PUSH1 0x1 ADD SLOAD SWAP1 POP PUSH1 0x0 PUSH1 0x1 DUP3 PUSH2 0xC32 SWAP2 SWAP1 PUSH2 0x1BA9 JUMP JUMPDEST PUSH1 0x4 DUP6 DUP5 DUP7 PUSH2 0xC41 SWAP2 SWAP1 PUSH2 0x1BFF JUMP JUMPDEST PUSH2 0xC4B SWAP2 SWAP1 PUSH2 0x1D16 JUMP JUMPDEST PUSH2 0xC55 SWAP2 SWAP1 PUSH2 0x1D16 JUMP JUMPDEST PUSH2 0xC5F SWAP2 SWAP1 PUSH2 0x1DAA JUMP JUMPDEST SWAP1 POP PUSH1 0x40 MLOAD DUP1 PUSH1 0x40 ADD PUSH1 0x40 MSTORE DUP1 DUP3 DUP2 MSTORE PUSH1 0x20 ADD PUSH1 0x1 DUP5 PUSH2 0xC7F SWAP2 SWAP1 PUSH2 0x1BA9 JUMP JUMPDEST DUP2 MSTORE POP PUSH1 0x6 PUSH1 0x0 DUP8 DUP2 MSTORE PUSH1 0x20 ADD SWAP1 DUP2 MSTORE PUSH1 0x20 ADD PUSH1 0x0 KECCAK256 PUSH1 0x0 DUP3 ADD MLOAD DUP2 PUSH1 0x0 ADD SSTORE PUSH1 0x20 DUP3 ADD MLOAD DUP2 PUSH1 0x1 ADD SSTORE SWAP1 POP POP POP POP POP POP POP JUMP JUMPDEST PUSH1 0x0 DUP1 PUSH1 0x1 PUSH1 0x64 DUP5 PUSH2 0xCC5 SWAP2 SWAP1 PUSH2 0x1AEF JUMP JUMPDEST PUSH2 0x9000 PUSH2 0xCD2 SWAP2 SWAP1 PUSH2 0x1B78 JUMP JUMPDEST PUSH2 0xCDC SWAP2 SWAP1 PUSH2 0x1BA9 JUMP JUMPDEST SWAP1 POP PUSH2 0x100 DUP2 LT ISZERO PUSH2 0xCF1 JUMPI DUP1 SWAP2 POP POP PUSH2 0xCF7 JUMP JUMPDEST PUSH1 0xFF SWAP2 POP POP JUMPDEST SWAP2 SWAP1 POP JUMP JUMPDEST PUSH2 0xD06 DUP3 DUP3 PUSH2 0x44A JUMP JUMPDEST PUSH2 0xD7D JUMPI PUSH2 0xD13 DUP2 PUSH2 0xEC3 JUMP JUMPDEST PUSH2 0xD21 DUP4 PUSH1 0x0 SHR PUSH1 0x20 PUSH2 0xEF0 JUMP JUMPDEST PUSH1 0x40 MLOAD PUSH1 0x20 ADD PUSH2 0xD32 SWAP3 SWAP2 SWAP1 PUSH2 0x1F26 JUMP JUMPDEST PUSH1 0x40 MLOAD PUSH1 0x20 DUP2 DUP4 SUB SUB DUP2 MSTORE SWAP1 PUSH1 0x40 MSTORE PUSH1 0x40 MLOAD PUSH32 0x8C379A000000000000000000000000000000000000000000000000000000000 DUP2 MSTORE PUSH1 0x4 ADD PUSH2 0xD74 SWAP2 SWAP1 PUSH2 0x1FAA JUMP JUMPDEST PUSH1 0x40 MLOAD DUP1 SWAP2 SUB SWAP1 REVERT JUMPDEST POP POP JUMP JUMPDEST PUSH2 0xDA1 DUP3 PUSH1 0x0 ADD SLOAD DUP4 PUSH1 0x1 ADD PUSH1 0x0 SWAP1 SLOAD SWAP1 PUSH2 0x100 EXP SWAP1 DIV PUSH1 0xFF AND DUP4 PUSH2 0x112C JUMP JUMPDEST DUP3 PUSH1 0x0 ADD DUP2 SWAP1 SSTORE POP POP POP JUMP JUMPDEST PUSH1 0x0 DUP1 DUP4 PUSH1 0xFF AND GT PUSH2 0xDF4 JUMPI PUSH1 0x40 MLOAD PUSH32 0x8C379A000000000000000000000000000000000000000000000000000000000 DUP2 MSTORE PUSH1 0x4 ADD PUSH2 0xDEB SWAP1 PUSH2 0x2018 JUMP JUMPDEST PUSH1 0x40 MLOAD DUP1 SWAP2 SUB SWAP1 REVERT JUMPDEST PUSH1 0x0 JUMPDEST DUP4 PUSH1 0xFF AND DUP2 LT ISZERO PUSH2 0xEB6 JUMPI PUSH1 0x0 PUSH2 0x100 DUP5 DUP4 PUSH1 0x40 MLOAD PUSH1 0x20 ADD PUSH2 0xE1A SWAP3 SWAP2 SWAP1 PUSH2 0x2038 JUMP JUMPDEST PUSH1 0x40 MLOAD PUSH1 0x20 DUP2 DUP4 SUB SUB DUP2 MSTORE SWAP1 PUSH1 0x40 MSTORE DUP1 MLOAD SWAP1 PUSH1 0x20 ADD KECCAK256 PUSH1 0x0 SHR PUSH2 0xE3D SWAP2 SWAP1 PUSH2 0x2064 JUMP JUMPDEST SWAP1 POP PUSH2 0x100 DUP2 LT PUSH2 0xE83 JUMPI PUSH1 0x40 MLOAD PUSH32 0x8C379A000000000000000000000000000000000000000000000000000000000 DUP2 MSTORE PUSH1 0x4 ADD PUSH2 0xE7A SWAP1 PUSH2 0x20E1 JUMP JUMPDEST PUSH1 0x40 MLOAD DUP1 SWAP2 SUB SWAP1 REVERT JUMPDEST PUSH1 0x0 DUP2 PUSH1 0x1 SWAP1 SHL SWAP1 POP DUP1 DUP8 OR DUP8 EQ PUSH2 0xEA1 JUMPI PUSH1 0x0 SWAP4 POP POP POP POP PUSH2 0xEBC JUMP JUMPDEST POP POP DUP1 DUP1 PUSH2 0xEAE SWAP1 PUSH2 0x2101 JUMP JUMPDEST SWAP2 POP POP PUSH2 0xDF7 JUMP JUMPDEST POP PUSH1 0x1 SWAP1 POP JUMPDEST SWAP4 SWAP3 POP POP POP JUMP JUMPDEST PUSH1 0x60 PUSH2 0xEE9 DUP3 PUSH20 0xFFFFFFFFFFFFFFFFFFFFFFFFFFFFFFFFFFFFFFFF AND PUSH1 0x14 PUSH1 0xFF AND PUSH2 0xEF0 JUMP JUMPDEST SWAP1 POP SWAP2 SWAP1 POP JUMP JUMPDEST PUSH1 0x60 PUSH1 0x0 PUSH1 0x2 DUP4 PUSH1 0x2 PUSH2 0xF03 SWAP2 SWAP1 PUSH2 0x1AEF JUMP JUMPDEST PUSH2 0xF0D SWAP2 SWAP1 PUSH2 0x1BA9 JUMP JUMPDEST PUSH8 0xFFFFFFFFFFFFFFFF DUP2 GT ISZERO PUSH2 0xF26 JUMPI PUSH2 0xF25 PUSH2 0x214A JUMP JUMPDEST JUMPDEST PUSH1 0x40 MLOAD SWAP1 DUP1 DUP3 MSTORE DUP1 PUSH1 0x1F ADD PUSH1 0x1F NOT AND PUSH1 0x20 ADD DUP3 ADD PUSH1 0x40 MSTORE DUP1 ISZERO PUSH2 0xF58 JUMPI DUP2 PUSH1 0x20 ADD PUSH1 0x1 DUP3 MUL DUP1 CALLDATASIZE DUP4 CALLDATACOPY DUP1 DUP3 ADD SWAP2 POP POP SWAP1 POP JUMPDEST POP SWAP1 POP PUSH32 0x3000000000000000000000000000000000000000000000000000000000000000 DUP2 PUSH1 0x0 DUP2 MLOAD DUP2 LT PUSH2 0xF90 JUMPI PUSH2 0xF8F PUSH2 0x2179 JUMP JUMPDEST JUMPDEST PUSH1 0x20 ADD ADD SWAP1 PUSH31 0xFFFFFFFFFFFFFFFFFFFFFFFFFFFFFFFFFFFFFFFFFFFFFFFFFFFFFFFFFFFFFF NOT AND SWAP1 DUP2 PUSH1 0x0 BYTE SWAP1 MSTORE8 POP PUSH32 0x7800000000000000000000000000000000000000000000000000000000000000 DUP2 PUSH1 0x1 DUP2 MLOAD DUP2 LT PUSH2 0xFF4 JUMPI PUSH2 0xFF3 PUSH2 0x2179 JUMP JUMPDEST JUMPDEST PUSH1 0x20 ADD ADD SWAP1 PUSH31 0xFFFFFFFFFFFFFFFFFFFFFFFFFFFFFFFFFFFFFFFFFFFFFFFFFFFFFFFFFFFFFF NOT AND SWAP1 DUP2 PUSH1 0x0 BYTE SWAP1 MSTORE8 POP PUSH1 0x0 PUSH1 0x1 DUP5 PUSH1 0x2 PUSH2 0x1034 SWAP2 SWAP1 PUSH2 0x1AEF JUMP JUMPDEST PUSH2 0x103E SWAP2 SWAP1 PUSH2 0x1BA9 JUMP JUMPDEST SWAP1 POP JUMPDEST PUSH1 0x1 DUP2 GT ISZERO PUSH2 0x10DE JUMPI PUSH32 0x3031323334353637383961626364656600000000000000000000000000000000 PUSH1 0xF DUP7 AND PUSH1 0x10 DUP2 LT PUSH2 0x1080 JUMPI PUSH2 0x107F PUSH2 0x2179 JUMP JUMPDEST JUMPDEST BYTE PUSH1 0xF8 SHL DUP3 DUP3 DUP2 MLOAD DUP2 LT PUSH2 0x1097 JUMPI PUSH2 0x1096 PUSH2 0x2179 JUMP JUMPDEST JUMPDEST PUSH1 0x20 ADD ADD SWAP1 PUSH31 0xFFFFFFFFFFFFFFFFFFFFFFFFFFFFFFFFFFFFFFFFFFFFFFFFFFFFFFFFFFFFFF NOT AND SWAP1 DUP2 PUSH1 0x0 BYTE SWAP1 MSTORE8 POP PUSH1 0x4 DUP6 SWAP1 SHR SWAP5 POP DUP1 PUSH2 0x10D7 SWAP1 PUSH2 0x21A8 JUMP JUMPDEST SWAP1 POP PUSH2 0x1041 JUMP JUMPDEST POP PUSH1 0x0 DUP5 EQ PUSH2 0x1122 JUMPI PUSH1 0x40 MLOAD PUSH32 0x8C379A000000000000000000000000000000000000000000000000000000000 DUP2 MSTORE PUSH1 0x4 ADD PUSH2 0x1119 SWAP1 PUSH2 0x221E JUMP JUMPDEST PUSH1 0x40 MLOAD DUP1 SWAP2 SUB SWAP1 REVERT JUMPDEST DUP1 SWAP2 POP POP SWAP3 SWAP2 POP POP JUMP JUMPDEST PUSH1 0x0 DUP4 SWAP1 POP PUSH1 0x0 DUP4 PUSH1 0xFF AND GT PUSH2 0x1177 JUMPI PUSH1 0x40 MLOAD PUSH32 0x8C379A000000000000000000000000000000000000000000000000000000000 DUP2 MSTORE PUSH1 0x4 ADD PUSH2 0x116E SWAP1 PUSH2 0x2018 JUMP JUMPDEST PUSH1 0x40 MLOAD DUP1 SWAP2 SUB SWAP1 REVERT JUMPDEST PUSH1 0x0 JUMPDEST DUP4 PUSH1 0xFF AND DUP2 LT ISZERO PUSH2 0x1229 JUMPI PUSH1 0x0 PUSH2 0x100 DUP5 DUP4 PUSH1 0x40 MLOAD PUSH1 0x20 ADD PUSH2 0x119D SWAP3 SWAP2 SWAP1 PUSH2 0x2038 JUMP JUMPDEST PUSH1 0x40 MLOAD PUSH1 0x20 DUP2 DUP4 SUB SUB DUP2 MSTORE SWAP1 PUSH1 0x40 MSTORE DUP1 MLOAD SWAP1 PUSH1 0x20 ADD KECCAK256 PUSH1 0x0 SHR PUSH2 0x11C0 SWAP2 SWAP1 PUSH2 0x2064 JUMP JUMPDEST SWAP1 POP PUSH2 0x100 DUP2 LT PUSH2 0x1206 JUMPI PUSH1 0x40 MLOAD PUSH32 0x8C379A000000000000000000000000000000000000000000000000000000000 DUP2 MSTORE PUSH1 0x4 ADD PUSH2 0x11FD SWAP1 PUSH2 0x20E1 JUMP JUMPDEST PUSH1 0x40 MLOAD DUP1 SWAP2 SUB SWAP1 REVERT JUMPDEST PUSH1 0x0 DUP2 PUSH1 0x1 SWAP1 SHL SWAP1 POP DUP1 DUP5 OR SWAP4 POP POP POP DUP1 DUP1 PUSH2 0x1221 SWAP1 PUSH2 0x2101 JUMP JUMPDEST SWAP2 POP POP PUSH2 0x117A JUMP JUMPDEST POP SWAP4 SWAP3 POP POP POP JUMP JUMPDEST DUP3 DUP1 SLOAD PUSH2 0x123D SWAP1 PUSH2 0x226D JUMP JUMPDEST SWAP1 PUSH1 0x0 MSTORE PUSH1 0x20 PUSH1 0x0 KECCAK256 SWAP1 PUSH1 0x1F ADD PUSH1 0x20 SWAP1 DIV DUP2 ADD SWAP3 DUP3 PUSH2 0x125F JUMPI PUSH1 0x0 DUP6 SSTORE PUSH2 0x12A6 JUMP JUMPDEST DUP3 PUSH1 0x1F LT PUSH2 0x1278 JUMPI DUP1 MLOAD PUSH1 0xFF NOT AND DUP4 DUP1 ADD OR DUP6 SSTORE PUSH2 0x12A6 JUMP JUMPDEST DUP3 DUP1 ADD PUSH1 0x1 ADD DUP6 SSTORE DUP3 ISZERO PUSH2 0x12A6 JUMPI SWAP2 DUP3 ADD JUMPDEST DUP3 DUP2 GT ISZERO PUSH2 0x12A5 JUMPI DUP3 MLOAD DUP3 SSTORE SWAP2 PUSH1 0x20 ADD SWAP2 SWAP1 PUSH1 0x1 ADD SWAP1 PUSH2 0x128A JUMP JUMPDEST JUMPDEST POP SWAP1 POP PUSH2 0x12B3 SWAP2 SWAP1 PUSH2 0x12B7 JUMP JUMPDEST POP SWAP1 JUMP JUMPDEST JUMPDEST DUP1 DUP3 GT ISZERO PUSH2 0x12D0 JUMPI PUSH1 0x0 DUP2 PUSH1 0x0 SWAP1 SSTORE POP PUSH1 0x1 ADD PUSH2 0x12B8 JUMP JUMPDEST POP SWAP1 JUMP JUMPDEST PUSH1 0x0 DUP1 REVERT JUMPDEST PUSH1 0x0 DUP1 REVERT JUMPDEST PUSH1 0x0 PUSH32 0xFFFFFFFF00000000000000000000000000000000000000000000000000000000 DUP3 AND SWAP1 POP SWAP2 SWAP1 POP JUMP JUMPDEST PUSH2 0x1313 DUP2 PUSH2 0x12DE JUMP JUMPDEST DUP2 EQ PUSH2 0x131E JUMPI PUSH1 0x0 DUP1 REVERT JUMPDEST POP JUMP JUMPDEST PUSH1 0x0 DUP2 CALLDATALOAD SWAP1 POP PUSH2 0x1330 DUP2 PUSH2 0x130A JUMP JUMPDEST SWAP3 SWAP2 POP POP JUMP JUMPDEST PUSH1 0x0 PUSH1 0x20 DUP3 DUP5 SUB SLT ISZERO PUSH2 0x134C JUMPI PUSH2 0x134B PUSH2 0x12D4 JUMP JUMPDEST JUMPDEST PUSH1 0x0 PUSH2 0x135A DUP5 DUP3 DUP6 ADD PUSH2 0x1321 JUMP JUMPDEST SWAP2 POP POP SWAP3 SWAP2 POP POP JUMP JUMPDEST PUSH1 0x0 DUP2 ISZERO ISZERO SWAP1 POP SWAP2 SWAP1 POP JUMP JUMPDEST PUSH2 0x1378 DUP2 PUSH2 0x1363 JUMP JUMPDEST DUP3 MSTORE POP POP JUMP JUMPDEST PUSH1 0x0 PUSH1 0x20 DUP3 ADD SWAP1 POP PUSH2 0x1393 PUSH1 0x0 DUP4 ADD DUP5 PUSH2 0x136F JUMP JUMPDEST SWAP3 SWAP2 POP POP JUMP JUMPDEST PUSH1 0x0 DUP2 SWAP1 POP SWAP2 SWAP1 POP JUMP JUMPDEST PUSH2 0x13AC DUP2 PUSH2 0x1399 JUMP JUMPDEST DUP2 EQ PUSH2 0x13B7 JUMPI PUSH1 0x0 DUP1 REVERT JUMPDEST POP JUMP JUMPDEST PUSH1 0x0 DUP2 CALLDATALOAD SWAP1 POP PUSH2 0x13C9 DUP2 PUSH2 0x13A3 JUMP JUMPDEST SWAP3 SWAP2 POP POP JUMP JUMPDEST PUSH1 0x0 PUSH1 0x20 DUP3 DUP5 SUB SLT ISZERO PUSH2 0x13E5 JUMPI PUSH2 0x13E4 PUSH2 0x12D4 JUMP JUMPDEST JUMPDEST PUSH1 0x0 PUSH2 0x13F3 DUP5 DUP3 DUP6 ADD PUSH2 0x13BA JUMP JUMPDEST SWAP2 POP POP SWAP3 SWAP2 POP POP JUMP JUMPDEST PUSH2 0x1405 DUP2 PUSH2 0x1399 JUMP JUMPDEST DUP3 MSTORE POP POP JUMP JUMPDEST PUSH1 0x0 PUSH1 0x20 DUP3 ADD SWAP1 POP PUSH2 0x1420 PUSH1 0x0 DUP4 ADD DUP5 PUSH2 0x13FC JUMP JUMPDEST SWAP3 SWAP2 POP POP JUMP JUMPDEST PUSH1 0x0 PUSH20 0xFFFFFFFFFFFFFFFFFFFFFFFFFFFFFFFFFFFFFFFF DUP3 AND SWAP1 POP SWAP2 SWAP1 POP JUMP JUMPDEST PUSH1 0x0 PUSH2 0x1451 DUP3 PUSH2 0x1426 JUMP JUMPDEST SWAP1 POP SWAP2 SWAP1 POP JUMP JUMPDEST PUSH2 0x1461 DUP2 PUSH2 0x1446 JUMP JUMPDEST DUP2 EQ PUSH2 0x146C JUMPI PUSH1 0x0 DUP1 REVERT JUMPDEST POP JUMP JUMPDEST PUSH1 0x0 DUP2 CALLDATALOAD SWAP1 POP PUSH2 0x147E DUP2 PUSH2 0x1458 JUMP JUMPDEST SWAP3 SWAP2 POP POP JUMP JUMPDEST PUSH1 0x0 DUP1 PUSH1 0x40 DUP4 DUP6 SUB SLT ISZERO PUSH2 0x149B JUMPI PUSH2 0x149A PUSH2 0x12D4 JUMP JUMPDEST JUMPDEST PUSH1 0x0 PUSH2 0x14A9 DUP6 DUP3 DUP7 ADD PUSH2 0x13BA JUMP JUMPDEST SWAP3 POP POP PUSH1 0x20 PUSH2 0x14BA DUP6 DUP3 DUP7 ADD PUSH2 0x146F JUMP JUMPDEST SWAP2 POP POP SWAP3 POP SWAP3 SWAP1 POP JUMP JUMPDEST PUSH1 0x0 DUP2 SWAP1 POP SWAP2 SWAP1 POP JUMP JUMPDEST PUSH2 0x14D7 DUP2 PUSH2 0x14C4 JUMP JUMPDEST DUP2 EQ PUSH2 0x14E2 JUMPI PUSH1 0x0 DUP1 REVERT JUMPDEST POP JUMP JUMPDEST PUSH1 0x0 DUP2 CALLDATALOAD SWAP1 POP PUSH2 0x14F4 DUP2 PUSH2 0x14CE JUMP JUMPDEST SWAP3 SWAP2 POP POP JUMP JUMPDEST PUSH1 0x0 DUP1 REVERT JUMPDEST PUSH1 0x0 DUP1 REVERT JUMPDEST PUSH1 0x0 DUP1 REVERT JUMPDEST PUSH1 0x0 DUP1 DUP4 PUSH1 0x1F DUP5 ADD SLT PUSH2 0x151F JUMPI PUSH2 0x151E PUSH2 0x14FA JUMP JUMPDEST JUMPDEST DUP3 CALLDATALOAD SWAP1 POP PUSH8 0xFFFFFFFFFFFFFFFF DUP2 GT ISZERO PUSH2 0x153C JUMPI PUSH2 0x153B PUSH2 0x14FF JUMP JUMPDEST JUMPDEST PUSH1 0x20 DUP4 ADD SWAP2 POP DUP4 PUSH1 0x1 DUP3 MUL DUP4 ADD GT ISZERO PUSH2 0x1558 JUMPI PUSH2 0x1557 PUSH2 0x1504 JUMP JUMPDEST JUMPDEST SWAP3 POP SWAP3 SWAP1 POP JUMP JUMPDEST PUSH1 0x0 DUP1 PUSH1 0x0 DUP1 PUSH1 0x60 DUP6 DUP8 SUB SLT ISZERO PUSH2 0x1579 JUMPI PUSH2 0x1578 PUSH2 0x12D4 JUMP JUMPDEST JUMPDEST PUSH1 0x0 PUSH2 0x1587 DUP8 DUP3 DUP9 ADD PUSH2 0x13BA JUMP JUMPDEST SWAP5 POP POP PUSH1 0x20 PUSH2 0x1598 DUP8 DUP3 DUP9 ADD PUSH2 0x14E5 JUMP JUMPDEST SWAP4 POP POP PUSH1 0x40 DUP6 ADD CALLDATALOAD PUSH8 0xFFFFFFFFFFFFFFFF DUP2 GT ISZERO PUSH2 0x15B9 JUMPI PUSH2 0x15B8 PUSH2 0x12D9 JUMP JUMPDEST JUMPDEST PUSH2 0x15C5 DUP8 DUP3 DUP9 ADD PUSH2 0x1509 JUMP JUMPDEST SWAP3 POP SWAP3 POP POP SWAP3 SWAP6 SWAP2 SWAP5 POP SWAP3 POP JUMP JUMPDEST PUSH1 0x0 DUP2 SWAP1 POP SWAP2 SWAP1 POP JUMP JUMPDEST PUSH2 0x15E6 DUP2 PUSH2 0x15D3 JUMP JUMPDEST DUP3 MSTORE POP POP JUMP JUMPDEST PUSH1 0x0 PUSH1 0x20 DUP3 ADD SWAP1 POP PUSH2 0x1601 PUSH1 0x0 DUP4 ADD DUP5 PUSH2 0x15DD JUMP JUMPDEST SWAP3 SWAP2 POP POP JUMP JUMPDEST PUSH1 0x0 PUSH8 0xFFFFFFFFFFFFFFFF DUP3 AND SWAP1 POP SWAP2 SWAP1 POP JUMP JUMPDEST PUSH2 0x1624 DUP2 PUSH2 0x1607 JUMP JUMPDEST DUP2 EQ PUSH2 0x162F JUMPI PUSH1 0x0 DUP1 REVERT JUMPDEST POP JUMP JUMPDEST PUSH1 0x0 DUP2 CALLDATALOAD SWAP1 POP PUSH2 0x1641 DUP2 PUSH2 0x161B JUMP JUMPDEST SWAP3 SWAP2 POP POP JUMP JUMPDEST PUSH1 0x0 PUSH1 0x20 DUP3 DUP5 SUB SLT ISZERO PUSH2 0x165D JUMPI PUSH2 0x165C PUSH2 0x12D4 JUMP JUMPDEST JUMPDEST PUSH1 0x0 PUSH2 0x166B DUP5 DUP3 DUP6 ADD PUSH2 0x1632 JUMP JUMPDEST SWAP2 POP POP SWAP3 SWAP2 POP POP JUMP JUMPDEST PUSH1 0x0 DUP3 DUP3 MSTORE PUSH1 0x20 DUP3 ADD SWAP1 POP SWAP3 SWAP2 POP POP JUMP JUMPDEST PUSH32 0x416363657373436F6E74726F6C3A2063616E206F6E6C792072656E6F756E6365 PUSH1 0x0 DUP3 ADD MSTORE PUSH32 0x20726F6C657320666F722073656C660000000000000000000000000000000000 PUSH1 0x20 DUP3 ADD MSTORE POP JUMP JUMPDEST PUSH1 0x0 PUSH2 0x16E1 PUSH1 0x2F DUP4 PUSH2 0x1674 JUMP JUMPDEST SWAP2 POP PUSH2 0x16EC DUP3 PUSH2 0x1685 JUMP JUMPDEST PUSH1 0x40 DUP3 ADD SWAP1 POP SWAP2 SWAP1 POP JUMP JUMPDEST PUSH1 0x0 PUSH1 0x20 DUP3 ADD SWAP1 POP DUP2 DUP2 SUB PUSH1 0x0 DUP4 ADD MSTORE PUSH2 0x1710 DUP2 PUSH2 0x16D4 JUMP JUMPDEST SWAP1 POP SWAP2 SWAP1 POP JUMP JUMPDEST PUSH1 0x0 DUP2 PUSH1 0x60 SHL SWAP1 POP SWAP2 SWAP1 POP JUMP JUMPDEST PUSH1 0x0 PUSH2 0x172F DUP3 PUSH2 0x1717 JUMP JUMPDEST SWAP1 POP SWAP2 SWAP1 POP JUMP JUMPDEST PUSH1 0x0 PUSH2 0x1741 DUP3 PUSH2 0x1724 JUMP JUMPDEST SWAP1 POP SWAP2 SWAP1 POP JUMP JUMPDEST PUSH2 0x1759 PUSH2 0x1754 DUP3 PUSH2 0x1446 JUMP JUMPDEST PUSH2 0x1736 JUMP JUMPDEST DUP3 MSTORE POP POP JUMP JUMPDEST PUSH1 0x0 DUP2 SWAP1 POP SWAP2 SWAP1 POP JUMP JUMPDEST PUSH2 0x177A PUSH2 0x1775 DUP3 PUSH2 0x14C4 JUMP JUMPDEST PUSH2 0x175F JUMP JUMPDEST DUP3 MSTORE POP POP JUMP JUMPDEST PUSH1 0x0 PUSH2 0x178C DUP3 DUP6 PUSH2 0x1748 JUMP JUMPDEST PUSH1 0x14 DUP3 ADD SWAP2 POP PUSH2 0x179C DUP3 DUP5 PUSH2 0x1769 JUMP JUMPDEST PUSH1 0x20 DUP3 ADD SWAP2 POP DUP2 SWAP1 POP SWAP4 SWAP3 POP POP POP JUMP JUMPDEST PUSH1 0x0 DUP2 SWAP1 POP SWAP2 SWAP1 POP JUMP JUMPDEST PUSH2 0x17C7 PUSH2 0x17C2 DUP3 PUSH2 0x1399 JUMP JUMPDEST PUSH2 0x17AC JUMP JUMPDEST DUP3 MSTORE POP POP JUMP JUMPDEST PUSH1 0x0 PUSH2 0x17D9 DUP3 DUP6 PUSH2 0x1748 JUMP JUMPDEST PUSH1 0x14 DUP3 ADD SWAP2 POP PUSH2 0x17E9 DUP3 DUP5 PUSH2 0x17B6 JUMP JUMPDEST PUSH1 0x20 DUP3 ADD SWAP2 POP DUP2 SWAP1 POP SWAP4 SWAP3 POP POP POP JUMP JUMPDEST PUSH32 0x416C7265616479207265706F7274656420627920757365722100000000000000 PUSH1 0x0 DUP3 ADD MSTORE POP JUMP JUMPDEST PUSH1 0x0 PUSH2 0x182F PUSH1 0x19 DUP4 PUSH2 0x1674 JUMP JUMPDEST SWAP2 POP PUSH2 0x183A DUP3 PUSH2 0x17F9 JUMP JUMPDEST PUSH1 0x20 DUP3 ADD SWAP1 POP SWAP2 SWAP1 POP JUMP JUMPDEST PUSH1 0x0 PUSH1 0x20 DUP3 ADD SWAP1 POP DUP2 DUP2 SUB PUSH1 0x0 DUP4 ADD MSTORE PUSH2 0x185E DUP2 PUSH2 0x1822 JUMP JUMPDEST SWAP1 POP SWAP2 SWAP1 POP JUMP JUMPDEST PUSH1 0x0 PUSH2 0x1871 DUP3 DUP5 PUSH2 0x1748 JUMP JUMPDEST PUSH1 0x14 DUP3 ADD SWAP2 POP DUP2 SWAP1 POP SWAP3 SWAP2 POP POP JUMP JUMPDEST PUSH32 0x4E487B7100000000000000000000000000000000000000000000000000000000 PUSH1 0x0 MSTORE PUSH1 0x11 PUSH1 0x4 MSTORE PUSH1 0x24 PUSH1 0x0 REVERT JUMPDEST PUSH1 0x0 PUSH2 0x18BA DUP3 PUSH2 0x15D3 JUMP JUMPDEST SWAP2 POP PUSH32 0x8000000000000000000000000000000000000000000000000000000000000000 DUP3 EQ ISZERO PUSH2 0x18ED JUMPI PUSH2 0x18EC PUSH2 0x1880 JUMP JUMPDEST JUMPDEST DUP2 PUSH1 0x0 SUB SWAP1 POP SWAP2 SWAP1 POP JUMP JUMPDEST PUSH2 0x1901 DUP2 PUSH2 0x14C4 JUMP JUMPDEST DUP3 MSTORE POP POP JUMP JUMPDEST PUSH1 0x0 PUSH1 0x40 DUP3 ADD SWAP1 POP PUSH2 0x191C PUSH1 0x0 DUP4 ADD DUP6 PUSH2 0x13FC JUMP JUMPDEST PUSH2 0x1929 PUSH1 0x20 DUP4 ADD DUP5 PUSH2 0x18F8 JUMP JUMPDEST SWAP4 SWAP3 POP POP POP JUMP JUMPDEST PUSH1 0x0 PUSH2 0x193B DUP3 PUSH2 0x14C4 JUMP JUMPDEST SWAP2 POP PUSH2 0x1946 DUP4 PUSH2 0x14C4 JUMP JUMPDEST SWAP3 POP DUP3 DUP3 LT ISZERO PUSH2 0x1959 JUMPI PUSH2 0x1958 PUSH2 0x1880 JUMP JUMPDEST JUMPDEST DUP3 DUP3 SUB SWAP1 POP SWAP3 SWAP2 POP POP JUMP JUMPDEST PUSH1 0x0 DUP2 PUSH1 0x1 SHR SWAP1 POP SWAP2 SWAP1 POP JUMP JUMPDEST PUSH1 0x0 DUP1 DUP3 SWAP2 POP DUP4 SWAP1 POP JUMPDEST PUSH1 0x1 DUP6 GT ISZERO PUSH2 0x19BB JUMPI DUP1 DUP7 DIV DUP2 GT ISZERO PUSH2 0x1997 JUMPI PUSH2 0x1996 PUSH2 0x1880 JUMP JUMPDEST JUMPDEST PUSH1 0x1 DUP6 AND ISZERO PUSH2 0x19A6 JUMPI DUP1 DUP3 MUL SWAP2 POP JUMPDEST DUP1 DUP2 MUL SWAP1 POP PUSH2 0x19B4 DUP6 PUSH2 0x1964 JUMP JUMPDEST SWAP5 POP PUSH2 0x197B JUMP JUMPDEST SWAP5 POP SWAP5 SWAP3 POP POP POP JUMP JUMPDEST PUSH1 0x0 DUP3 PUSH2 0x19D4 JUMPI PUSH1 0x1 SWAP1 POP PUSH2 0x1A90 JUMP JUMPDEST DUP2 PUSH2 0x19E2 JUMPI PUSH1 0x0 SWAP1 POP PUSH2 0x1A90 JUMP JUMPDEST DUP2 PUSH1 0x1 DUP2 EQ PUSH2 0x19F8 JUMPI PUSH1 0x2 DUP2 EQ PUSH2 0x1A02 JUMPI PUSH2 0x1A31 JUMP JUMPDEST PUSH1 0x1 SWAP2 POP POP PUSH2 0x1A90 JUMP JUMPDEST PUSH1 0xFF DUP5 GT ISZERO PUSH2 0x1A14 JUMPI PUSH2 0x1A13 PUSH2 0x1880 JUMP JUMPDEST JUMPDEST DUP4 PUSH1 0x2 EXP SWAP2 POP DUP5 DUP3 GT ISZERO PUSH2 0x1A2B JUMPI PUSH2 0x1A2A PUSH2 0x1880 JUMP JUMPDEST JUMPDEST POP PUSH2 0x1A90 JUMP JUMPDEST POP PUSH1 0x20 DUP4 LT PUSH2 0x133 DUP4 LT AND PUSH1 0x4E DUP5 LT PUSH1 0xB DUP5 LT AND OR ISZERO PUSH2 0x1A66 JUMPI DUP3 DUP3 EXP SWAP1 POP DUP4 DUP2 GT ISZERO PUSH2 0x1A61 JUMPI PUSH2 0x1A60 PUSH2 0x1880 JUMP JUMPDEST JUMPDEST PUSH2 0x1A90 JUMP JUMPDEST PUSH2 0x1A73 DUP5 DUP5 DUP5 PUSH1 0x1 PUSH2 0x1971 JUMP JUMPDEST SWAP3 POP SWAP1 POP DUP2 DUP5 DIV DUP2 GT ISZERO PUSH2 0x1A8A JUMPI PUSH2 0x1A89 PUSH2 0x1880 JUMP JUMPDEST JUMPDEST DUP2 DUP2 MUL SWAP1 POP JUMPDEST SWAP4 SWAP3 POP POP POP JUMP JUMPDEST PUSH1 0x0 PUSH1 0xFF DUP3 AND SWAP1 POP SWAP2 SWAP1 POP JUMP JUMPDEST PUSH1 0x0 PUSH2 0x1AAF DUP3 PUSH2 0x14C4 JUMP JUMPDEST SWAP2 POP PUSH2 0x1ABA DUP4 PUSH2 0x1A97 JUMP JUMPDEST SWAP3 POP PUSH2 0x1AE7 PUSH32 0xFFFFFFFFFFFFFFFFFFFFFFFFFFFFFFFFFFFFFFFFFFFFFFFFFFFFFFFFFFFFFFFF DUP5 DUP5 PUSH2 0x19C4 JUMP JUMPDEST SWAP1 POP SWAP3 SWAP2 POP POP JUMP JUMPDEST PUSH1 0x0 PUSH2 0x1AFA DUP3 PUSH2 0x14C4 JUMP JUMPDEST SWAP2 POP PUSH2 0x1B05 DUP4 PUSH2 0x14C4 JUMP JUMPDEST SWAP3 POP DUP2 PUSH32 0xFFFFFFFFFFFFFFFFFFFFFFFFFFFFFFFFFFFFFFFFFFFFFFFFFFFFFFFFFFFFFFFF DIV DUP4 GT DUP3 ISZERO ISZERO AND ISZERO PUSH2 0x1B3E JUMPI PUSH2 0x1B3D PUSH2 0x1880 JUMP JUMPDEST JUMPDEST DUP3 DUP3 MUL SWAP1 POP SWAP3 SWAP2 POP POP JUMP JUMPDEST PUSH32 0x4E487B7100000000000000000000000000000000000000000000000000000000 PUSH1 0x0 MSTORE PUSH1 0x12 PUSH1 0x4 MSTORE PUSH1 0x24 PUSH1 0x0 REVERT JUMPDEST PUSH1 0x0 PUSH2 0x1B83 DUP3 PUSH2 0x14C4 JUMP JUMPDEST SWAP2 POP PUSH2 0x1B8E DUP4 PUSH2 0x14C4 JUMP JUMPDEST SWAP3 POP DUP3 PUSH2 0x1B9E JUMPI PUSH2 0x1B9D PUSH2 0x1B49 JUMP JUMPDEST JUMPDEST DUP3 DUP3 DIV SWAP1 POP SWAP3 SWAP2 POP POP JUMP JUMPDEST PUSH1 0x0 PUSH2 0x1BB4 DUP3 PUSH2 0x14C4 JUMP JUMPDEST SWAP2 POP PUSH2 0x1BBF DUP4 PUSH2 0x14C4 JUMP JUMPDEST SWAP3 POP DUP3 PUSH32 0xFFFFFFFFFFFFFFFFFFFFFFFFFFFFFFFFFFFFFFFFFFFFFFFFFFFFFFFFFFFFFFFF SUB DUP3 GT ISZERO PUSH2 0x1BF4 JUMPI PUSH2 0x1BF3 PUSH2 0x1880 JUMP JUMPDEST JUMPDEST DUP3 DUP3 ADD SWAP1 POP SWAP3 SWAP2 POP POP JUMP JUMPDEST PUSH1 0x0 PUSH2 0x1C0A DUP3 PUSH2 0x15D3 JUMP JUMPDEST SWAP2 POP PUSH2 0x1C15 DUP4 PUSH2 0x15D3 JUMP JUMPDEST SWAP3 POP DUP3 PUSH32 0x7FFFFFFFFFFFFFFFFFFFFFFFFFFFFFFFFFFFFFFFFFFFFFFFFFFFFFFFFFFFFFFF DIV DUP3 GT PUSH1 0x0 DUP5 SGT PUSH1 0x0 DUP5 SGT AND AND ISZERO PUSH2 0x1C54 JUMPI PUSH2 0x1C53 PUSH2 0x1880 JUMP JUMPDEST JUMPDEST DUP2 PUSH32 0x8000000000000000000000000000000000000000000000000000000000000000 SDIV DUP4 SLT PUSH1 0x0 DUP5 SLT PUSH1 0x0 DUP5 SGT AND AND ISZERO PUSH2 0x1C91 JUMPI PUSH2 0x1C90 PUSH2 0x1880 JUMP JUMPDEST JUMPDEST DUP3 PUSH32 0x8000000000000000000000000000000000000000000000000000000000000000 SDIV DUP3 SLT PUSH1 0x0 DUP5 SGT PUSH1 0x0 DUP5 SLT AND AND ISZERO PUSH2 0x1CCE JUMPI PUSH2 0x1CCD PUSH2 0x1880 JUMP JUMPDEST JUMPDEST DUP3 PUSH32 0x7FFFFFFFFFFFFFFFFFFFFFFFFFFFFFFFFFFFFFFFFFFFFFFFFFFFFFFFFFFFFFFF SDIV DUP3 SLT PUSH1 0x0 DUP5 SLT PUSH1 0x0 DUP5 SLT AND AND ISZERO PUSH2 0x1D0B JUMPI PUSH2 0x1D0A PUSH2 0x1880 JUMP JUMPDEST JUMPDEST DUP3 DUP3 MUL SWAP1 POP SWAP3 SWAP2 POP POP JUMP JUMPDEST PUSH1 0x0 PUSH2 0x1D21 DUP3 PUSH2 0x15D3 JUMP JUMPDEST SWAP2 POP PUSH2 0x1D2C DUP4 PUSH2 0x15D3 JUMP JUMPDEST SWAP3 POP DUP2 PUSH32 0x7FFFFFFFFFFFFFFFFFFFFFFFFFFFFFFFFFFFFFFFFFFFFFFFFFFFFFFFFFFFFFFF SUB DUP4 SGT PUSH1 0x0 DUP4 SLT ISZERO AND ISZERO PUSH2 0x1D67 JUMPI PUSH2 0x1D66 PUSH2 0x1880 JUMP JUMPDEST JUMPDEST DUP2 PUSH32 0x8000000000000000000000000000000000000000000000000000000000000000 SUB DUP4 SLT PUSH1 0x0 DUP4 SLT AND ISZERO PUSH2 0x1D9F JUMPI PUSH2 0x1D9E PUSH2 0x1880 JUMP JUMPDEST JUMPDEST DUP3 DUP3 ADD SWAP1 POP SWAP3 SWAP2 POP POP JUMP JUMPDEST PUSH1 0x0 PUSH2 0x1DB5 DUP3 PUSH2 0x15D3 JUMP JUMPDEST SWAP2 POP PUSH2 0x1DC0 DUP4 PUSH2 0x15D3 JUMP JUMPDEST SWAP3 POP DUP3 PUSH2 0x1DD0 JUMPI PUSH2 0x1DCF PUSH2 0x1B49 JUMP JUMPDEST JUMPDEST PUSH1 0x1 PUSH1 0x0 SUB DUP4 EQ PUSH32 0x8000000000000000000000000000000000000000000000000000000000000000 DUP4 EQ AND ISZERO PUSH2 0x1E09 JUMPI PUSH2 0x1E08 PUSH2 0x1880 JUMP JUMPDEST JUMPDEST DUP3 DUP3 SDIV SWAP1 POP SWAP3 SWAP2 POP POP JUMP JUMPDEST PUSH1 0x0 DUP2 SWAP1 POP SWAP3 SWAP2 POP POP JUMP JUMPDEST PUSH32 0x416363657373436F6E74726F6C3A206163636F756E7420000000000000000000 PUSH1 0x0 DUP3 ADD MSTORE POP JUMP JUMPDEST PUSH1 0x0 PUSH2 0x1E55 PUSH1 0x17 DUP4 PUSH2 0x1E14 JUMP JUMPDEST SWAP2 POP PUSH2 0x1E60 DUP3 PUSH2 0x1E1F JUMP JUMPDEST PUSH1 0x17 DUP3 ADD SWAP1 POP SWAP2 SWAP1 POP JUMP JUMPDEST PUSH1 0x0 DUP2 MLOAD SWAP1 POP SWAP2 SWAP1 POP JUMP JUMPDEST PUSH1 0x0 JUMPDEST DUP4 DUP2 LT ISZERO PUSH2 0x1E94 JUMPI DUP1 DUP3 ADD MLOAD DUP2 DUP5 ADD MSTORE PUSH1 0x20 DUP2 ADD SWAP1 POP PUSH2 0x1E79 JUMP JUMPDEST DUP4 DUP2 GT ISZERO PUSH2 0x1EA3 JUMPI PUSH1 0x0 DUP5 DUP5 ADD MSTORE JUMPDEST POP POP POP POP JUMP JUMPDEST PUSH1 0x0 PUSH2 0x1EB4 DUP3 PUSH2 0x1E6B JUMP JUMPDEST PUSH2 0x1EBE DUP2 DUP6 PUSH2 0x1E14 JUMP JUMPDEST SWAP4 POP PUSH2 0x1ECE DUP2 DUP6 PUSH1 0x20 DUP7 ADD PUSH2 0x1E76 JUMP JUMPDEST DUP1 DUP5 ADD SWAP2 POP POP SWAP3 SWAP2 POP POP JUMP JUMPDEST PUSH32 0x206973206D697373696E6720726F6C6520000000000000000000000000000000 PUSH1 0x0 DUP3 ADD MSTORE POP JUMP JUMPDEST PUSH1 0x0 PUSH2 0x1F10 PUSH1 0x11 DUP4 PUSH2 0x1E14 JUMP JUMPDEST SWAP2 POP PUSH2 0x1F1B DUP3 PUSH2 0x1EDA JUMP JUMPDEST PUSH1 0x11 DUP3 ADD SWAP1 POP SWAP2 SWAP1 POP JUMP JUMPDEST PUSH1 0x0 PUSH2 0x1F31 DUP3 PUSH2 0x1E48 JUMP JUMPDEST SWAP2 POP PUSH2 0x1F3D DUP3 DUP6 PUSH2 0x1EA9 JUMP JUMPDEST SWAP2 POP PUSH2 0x1F48 DUP3 PUSH2 0x1F03 JUMP JUMPDEST SWAP2 POP PUSH2 0x1F54 DUP3 DUP5 PUSH2 0x1EA9 JUMP JUMPDEST SWAP2 POP DUP2 SWAP1 POP SWAP4 SWAP3 POP POP POP JUMP JUMPDEST PUSH1 0x0 PUSH1 0x1F NOT PUSH1 0x1F DUP4 ADD AND SWAP1 POP SWAP2 SWAP1 POP JUMP JUMPDEST PUSH1 0x0 PUSH2 0x1F7C DUP3 PUSH2 0x1E6B JUMP JUMPDEST PUSH2 0x1F86 DUP2 DUP6 PUSH2 0x1674 JUMP JUMPDEST SWAP4 POP PUSH2 0x1F96 DUP2 DUP6 PUSH1 0x20 DUP7 ADD PUSH2 0x1E76 JUMP JUMPDEST PUSH2 0x1F9F DUP2 PUSH2 0x1F60 JUMP JUMPDEST DUP5 ADD SWAP2 POP POP SWAP3 SWAP2 POP POP JUMP JUMPDEST PUSH1 0x0 PUSH1 0x20 DUP3 ADD SWAP1 POP DUP2 DUP2 SUB PUSH1 0x0 DUP4 ADD MSTORE PUSH2 0x1FC4 DUP2 DUP5 PUSH2 0x1F71 JUMP JUMPDEST SWAP1 POP SWAP3 SWAP2 POP POP JUMP JUMPDEST PUSH32 0x4861736820636F756E742063616E206E6F74206265207A65726F000000000000 PUSH1 0x0 DUP3 ADD MSTORE POP JUMP JUMPDEST PUSH1 0x0 PUSH2 0x2002 PUSH1 0x1A DUP4 PUSH2 0x1674 JUMP JUMPDEST SWAP2 POP PUSH2 0x200D DUP3 PUSH2 0x1FCC JUMP JUMPDEST PUSH1 0x20 DUP3 ADD SWAP1 POP SWAP2 SWAP1 POP JUMP JUMPDEST PUSH1 0x0 PUSH1 0x20 DUP3 ADD SWAP1 POP DUP2 DUP2 SUB PUSH1 0x0 DUP4 ADD MSTORE PUSH2 0x2031 DUP2 PUSH2 0x1FF5 JUMP JUMPDEST SWAP1 POP SWAP2 SWAP1 POP JUMP JUMPDEST PUSH1 0x0 PUSH2 0x2044 DUP3 DUP6 PUSH2 0x17B6 JUMP JUMPDEST PUSH1 0x20 DUP3 ADD SWAP2 POP PUSH2 0x2054 DUP3 DUP5 PUSH2 0x1769 JUMP JUMPDEST PUSH1 0x20 DUP3 ADD SWAP2 POP DUP2 SWAP1 POP SWAP4 SWAP3 POP POP POP JUMP JUMPDEST PUSH1 0x0 PUSH2 0x206F DUP3 PUSH2 0x14C4 JUMP JUMPDEST SWAP2 POP PUSH2 0x207A DUP4 PUSH2 0x14C4 JUMP JUMPDEST SWAP3 POP DUP3 PUSH2 0x208A JUMPI PUSH2 0x2089 PUSH2 0x1B49 JUMP JUMPDEST JUMPDEST DUP3 DUP3 MOD SWAP1 POP SWAP3 SWAP2 POP POP JUMP JUMPDEST PUSH32 0x4F766572666C6F77206572726F72000000000000000000000000000000000000 PUSH1 0x0 DUP3 ADD MSTORE POP JUMP JUMPDEST PUSH1 0x0 PUSH2 0x20CB PUSH1 0xE DUP4 PUSH2 0x1674 JUMP JUMPDEST SWAP2 POP PUSH2 0x20D6 DUP3 PUSH2 0x2095 JUMP JUMPDEST PUSH1 0x20 DUP3 ADD SWAP1 POP SWAP2 SWAP1 POP JUMP JUMPDEST PUSH1 0x0 PUSH1 0x20 DUP3 ADD SWAP1 POP DUP2 DUP2 SUB PUSH1 0x0 DUP4 ADD MSTORE PUSH2 0x20FA DUP2 PUSH2 0x20BE JUMP JUMPDEST SWAP1 POP SWAP2 SWAP1 POP JUMP JUMPDEST PUSH1 0x0 PUSH2 0x210C DUP3 PUSH2 0x14C4 JUMP JUMPDEST SWAP2 POP PUSH32 0xFFFFFFFFFFFFFFFFFFFFFFFFFFFFFFFFFFFFFFFFFFFFFFFFFFFFFFFFFFFFFFFF DUP3 EQ ISZERO PUSH2 0x213F JUMPI PUSH2 0x213E PUSH2 0x1880 JUMP JUMPDEST JUMPDEST PUSH1 0x1 DUP3 ADD SWAP1 POP SWAP2 SWAP1 POP JUMP JUMPDEST PUSH32 0x4E487B7100000000000000000000000000000000000000000000000000000000 PUSH1 0x0 MSTORE PUSH1 0x41 PUSH1 0x4 MSTORE PUSH1 0x24 PUSH1 0x0 REVERT JUMPDEST PUSH32 0x4E487B7100000000000000000000000000000000000000000000000000000000 PUSH1 0x0 MSTORE PUSH1 0x32 PUSH1 0x4 MSTORE PUSH1 0x24 PUSH1 0x0 REVERT JUMPDEST PUSH1 0x0 PUSH2 0x21B3 DUP3 PUSH2 0x14C4 JUMP JUMPDEST SWAP2 POP PUSH1 0x0 DUP3 EQ ISZERO PUSH2 0x21C7 JUMPI PUSH2 0x21C6 PUSH2 0x1880 JUMP JUMPDEST JUMPDEST PUSH1 0x1 DUP3 SUB SWAP1 POP SWAP2 SWAP1 POP JUMP JUMPDEST PUSH32 0x537472696E67733A20686578206C656E67746820696E73756666696369656E74 PUSH1 0x0 DUP3 ADD MSTORE POP JUMP JUMPDEST PUSH1 0x0 PUSH2 0x2208 PUSH1 0x20 DUP4 PUSH2 0x1674 JUMP JUMPDEST SWAP2 POP PUSH2 0x2213 DUP3 PUSH2 0x21D2 JUMP JUMPDEST PUSH1 0x20 DUP3 ADD SWAP1 POP SWAP2 SWAP1 POP JUMP JUMPDEST PUSH1 0x0 PUSH1 0x20 DUP3 ADD SWAP1 POP DUP2 DUP2 SUB PUSH1 0x0 DUP4 ADD MSTORE PUSH2 0x2237 DUP2 PUSH2 0x21FB JUMP JUMPDEST SWAP1 POP SWAP2 SWAP1 POP JUMP JUMPDEST PUSH32 0x4E487B7100000000000000000000000000000000000000000000000000000000 PUSH1 0x0 MSTORE PUSH1 0x22 PUSH1 0x4 MSTORE PUSH1 0x24 PUSH1 0x0 REVERT JUMPDEST PUSH1 0x0 PUSH1 0x2 DUP3 DIV SWAP1 POP PUSH1 0x1 DUP3 AND DUP1 PUSH2 0x2285 JUMPI PUSH1 0x7F DUP3 AND SWAP2 POP JUMPDEST PUSH1 0x20 DUP3 LT DUP2 EQ ISZERO PUSH2 0x2299 JUMPI PUSH2 0x2298 PUSH2 0x223E JUMP JUMPDEST JUMPDEST POP SWAP2 SWAP1 POP JUMP INVALID LOG2 PUSH5 0x6970667358 0x22 SLT KECCAK256 0xF6 0xDE 0xCC 0xB6 DUP13 ADD PC 0xEF CREATE2 0xD2 0x25 ISZERO 0x4D PUSH15 0xA97C31D27942C957E6DCBF2DC37069 CHAINID 0xD9 DUP6 PUSH5 0x736F6C6343 STOP ADDMOD MULMOD STOP CALLER "},"methodIdentifiers":{"COMMUNITY_MODERATOR_ROLE()":"5a1eff52","DEFAULT_ADMIN_ROLE()":"a217fddf","getReputation(bytes32)":"d14519d2","getRoleAdmin(bytes32)":"248a9ca3","grantRole(bytes32,address)":"2f2ff15d","hasRole(bytes32,address)":"91d14854","renounceRole(bytes32,address)":"36568abe","report(bytes32,uint256,string)":"addfa182","revokeRole(bytes32,address)":"d547741f","setReporterRateLimit(uint64)":"d99a3927","supportsInterface(bytes4)":"01ffc9a7"}}}}}