{"contracts/implementation/CreepzIdManager.sol":{"CreepzIdManager":{"abi":[{"inputs":[],"stateMutability":"nonpayable","type":"constructor"},{"inputs":[],"name":"ReporterRateLimitExceeded","type":"error"},{"anonymous":false,"inputs":[{"indexed":false,"internalType":"bytes32","name":"against","type":"bytes32"},{"indexed":false,"internalType":"uint256","name":"severity","type":"uint256"}],"name":"NewReport","type":"event"},{"stateMutability":"payable","type":"fallback"},{"inputs":[{"internalType":"bytes32","name":"identifier","type":"bytes32"}],"name":"getReputation","outputs":[{"internalType":"int256","name":"score","type":"int256"}],"stateMutability":"view","type":"function"},{"inputs":[{"internalType":"bytes32","name":"id","type":"bytes32"},{"internalType":"uint256","name":"severity","type":"uint256"},{"internalType":"string","name":"metadataCID","type":"string"}],"name":"report","outputs":[{"internalType":"bytes32","name":"newReportId","type":"bytes32"}],"stateMutability":"nonpayable","type":"function"},{"inputs":[{"internalType":"uint64","name":"aRate","type":"uint64"}],"name":"setReporterRateLimit","outputs":[{"internalType":"bool","name":"result","type":"bool"}],"stateMutability":"nonpayable","type":"function"},{"stateMutability":"payable","type":"receive"}],"evm":{"bytecode":{"linkReferences":{},"object":"60806040523480156200001157600080fd5b506200002864174876e8006200002e60201b60201c565b6200022c565b620000498160006200004c60201b6200036d1790919060201c565b50565b6200005d816200007d60201b60201c565b8260010160006101000a81548160ff021916908360ff1602179055505050565b600080600160648462000091919062000107565b619000620000a0919062000197565b620000ac9190620001cf565b9050610100811015620000c35780915050620000c9565b60ff9150505b919050565b6000819050919050565b7f4e487b7100000000000000000000000000000000000000000000000000000000600052601160045260246000fd5b60006200011482620000ce565b91506200012183620000ce565b9250817fffffffffffffffffffffffffffffffffffffffffffffffffffffffffffffffff04831182151516156200015d576200015c620000d8565b5b828202905092915050565b7f4e487b7100000000000000000000000000000000000000000000000000000000600052601260045260246000fd5b6000620001a482620000ce565b9150620001b183620000ce565b925082620001c457620001c362000168565b5b828204905092915050565b6000620001dc82620000ce565b9150620001e983620000ce565b9250827fffffffffffffffffffffffffffffffffffffffffffffffffffffffffffffffff03821115620002215762000220620000d8565b5b828201905092915050565b61182d806200023c6000396000f3fe6080604052600436106100385760003560e01c8063addfa18214610041578063d14519d21461007e578063d99a3927146100bb5761003f565b3661003f57005b005b34801561004d57600080fd5b5061006860048036038101906100639190610c5c565b6100f8565b6040516100759190610cdf565b60405180910390f35b34801561008a57600080fd5b506100a560048036038101906100a09190610cfa565b610346565b6040516100b29190610d40565b60405180910390f35b3480156100c757600080fd5b506100e260048036038101906100dd9190610d9b565b610366565b6040516100ef9190610de3565b60405180910390f35b6000610102610396565b61013f336001604051602001610119929190610e99565b6040516020818303038152906040528051906020012060006105b090919063ffffffff16565b15610176576040517f9689cb0f00000000000000000000000000000000000000000000000000000000815260040160405180910390fd5b6000338660405160200161018b929190610ee6565b6040516020818303038152906040528051906020012090506000801b6004600083815260200190815260200160002060000154146101fe576040517f08c379a00000000000000000000000000000000000000000000000000000000081526004016101f590610f6f565b60405180910390fd5b604051806080016040528082815260200187815260200186815260200185858080601f016020809104026020016040519081016040528093929190818152602001838380828437600081840152601f19601f820116905080830192505050505050508152506004600083815260200190815260200160002060008201518160000155602082015181600101556040820151816002015560608201518160030190805190602001906102b0929190610ade565b5090505060006102c5866001601460086105da565b9050610300336040516020016102db9190610f8f565b60405160208183030381529060405280519060200120826102fb90610fd9565b61062a565b7f1471883da0c9e2a8e7d5284477ff356083fc400504747a5d4110bda87bd9a7d28787604051610331929190611031565b60405180910390a18192505050949350505050565b600060056000838152602001908152602001600020600001549050919050565b6000919050565b610376816106f0565b8260010160006101000a81548160ff021916908360ff1602179055505050565b6000336040516020016103a99190610f8f565b6040516020818303038152906040528051906020012090506000600260008381526020019081526020016000205490506000811415610440576127109050612710600260008481526020019081526020016000208190555061043f6040518060400160405280601d81526020017f526573657474696e67207265706f727465722072617465206c696d6974000000815250610739565b5b60006003600084815260200190815260200160002054905060008142610466919061105a565b90506104a76040518060400160405280601781526020017f74696d6553696e63654c61737452657175657374202564000000000000000000815250826107d2565b82811061052e576104ec6040518060400160405280601081526020017f6e6f742072617465206c696d6974656400000000000000000000000000000000815250610739565b610529336000604051602001610503929190610e99565b60405160208183030381529060405280519060200120600061086e90919063ffffffff16565b6105aa565b61056c6040518060400160405280600e81526020017f72617465206c696d697465642121000000000000000000000000000000000000815250610739565b6105a9336001604051602001610583929190610e99565b60405160208183030381529060405280519060200120600061086e90919063ffffffff16565b5b50505050565b60006105d283600001548460010160009054906101000a900460ff168461089a565b905092915050565b60008084846105e9919061105a565b905060008184600a6105fb91906111ce565b8789610607919061105a565b6106119190611219565b61061b91906112a2565b90508092505050949350505050565b600060056000848152602001908152602001600020600001549050600060056000858152602001908152602001600020600101549050600060018261066f91906112d3565b600485848661067e9190611329565b6106889190611440565b6106929190611440565b61069c91906114d4565b905060405180604001604052808281526020016001846106bc91906112d3565b8152506005600087815260200190815260200160002060008201518160000155602082015181600101559050505050505050565b60008060016064846107029190611219565b61900061070f91906112a2565b61071991906112d3565b905061010081101561072e5780915050610734565b60ff9150505b919050565b6107cf8160405160240161074d91906115c6565b6040516020818303038152906040527f41304fac000000000000000000000000000000000000000000000000000000007bffffffffffffffffffffffffffffffffffffffffffffffffffffffff19166020820180517bffffffffffffffffffffffffffffffffffffffffffffffffffffffff83818316178352505050506109b0565b50565b61086a82826040516024016107e89291906115e8565b6040516020818303038152906040527fb60e72cc000000000000000000000000000000000000000000000000000000007bffffffffffffffffffffffffffffffffffffffffffffffffffffffff19166020820180517bffffffffffffffffffffffffffffffffffffffffffffffffffffffff83818316178352505050506109b0565b5050565b61088e82600001548360010160009054906101000a900460ff16836109d9565b82600001819055505050565b6000808360ff16116108e1576040517f08c379a00000000000000000000000000000000000000000000000000000000081526004016108d890611664565b60405180910390fd5b60005b8360ff168110156109a35760006101008483604051602001610907929190611684565b6040516020818303038152906040528051906020012060001c61092a91906116b0565b90506101008110610970576040517f08c379a00000000000000000000000000000000000000000000000000000000081526004016109679061172d565b60405180910390fd5b6000816001901b9050808717871461098e57600093505050506109a9565b5050808061099b9061174d565b9150506108e4565b50600190505b9392505050565b60008151905060006a636f6e736f6c652e6c6f679050602083016000808483855afa5050505050565b600083905060008360ff1611610a24576040517f08c379a0000000000000000000000000000000000000000000000000000000008152600401610a1b90611664565b60405180910390fd5b60005b8360ff16811015610ad65760006101008483604051602001610a4a929190611684565b6040516020818303038152906040528051906020012060001c610a6d91906116b0565b90506101008110610ab3576040517f08c379a0000000000000000000000000000000000000000000000000000000008152600401610aaa9061172d565b60405180910390fd5b6000816001901b9050808417935050508080610ace9061174d565b915050610a27565b509392505050565b828054610aea906117c5565b90600052602060002090601f016020900481019282610b0c5760008555610b53565b82601f10610b2557805160ff1916838001178555610b53565b82800160010185558215610b53579182015b82811115610b52578251825591602001919060010190610b37565b5b509050610b609190610b64565b5090565b5b80821115610b7d576000816000905550600101610b65565b5090565b600080fd5b600080fd5b6000819050919050565b610b9e81610b8b565b8114610ba957600080fd5b50565b600081359050610bbb81610b95565b92915050565b6000819050919050565b610bd481610bc1565b8114610bdf57600080fd5b50565b600081359050610bf181610bcb565b92915050565b600080fd5b600080fd5b600080fd5b60008083601f840112610c1c57610c1b610bf7565b5b8235905067ffffffffffffffff811115610c3957610c38610bfc565b5b602083019150836001820283011115610c5557610c54610c01565b5b9250929050565b60008060008060608587031215610c7657610c75610b81565b5b6000610c8487828801610bac565b9450506020610c9587828801610be2565b935050604085013567ffffffffffffffff811115610cb657610cb5610b86565b5b610cc287828801610c06565b925092505092959194509250565b610cd981610b8b565b82525050565b6000602082019050610cf46000830184610cd0565b92915050565b600060208284031215610d1057610d0f610b81565b5b6000610d1e84828501610bac565b91505092915050565b6000819050919050565b610d3a81610d27565b82525050565b6000602082019050610d556000830184610d31565b92915050565b600067ffffffffffffffff82169050919050565b610d7881610d5b565b8114610d8357600080fd5b50565b600081359050610d9581610d6f565b92915050565b600060208284031215610db157610db0610b81565b5b6000610dbf84828501610d86565b91505092915050565b60008115159050919050565b610ddd81610dc8565b82525050565b6000602082019050610df86000830184610dd4565b92915050565b600073ffffffffffffffffffffffffffffffffffffffff82169050919050565b6000610e2982610dfe565b9050919050565b60008160601b9050919050565b6000610e4882610e30565b9050919050565b6000610e5a82610e3d565b9050919050565b610e72610e6d82610e1e565b610e4f565b82525050565b6000819050919050565b610e93610e8e82610bc1565b610e78565b82525050565b6000610ea58285610e61565b601482019150610eb58284610e82565b6020820191508190509392505050565b6000819050919050565b610ee0610edb82610b8b565b610ec5565b82525050565b6000610ef28285610e61565b601482019150610f028284610ecf565b6020820191508190509392505050565b600082825260208201905092915050565b7f416c7265616479207265706f7274656420627920757365722100000000000000600082015250565b6000610f59601983610f12565b9150610f6482610f23565b602082019050919050565b60006020820190508181036000830152610f8881610f4c565b9050919050565b6000610f9b8284610e61565b60148201915081905092915050565b7f4e487b7100000000000000000000000000000000000000000000000000000000600052601160045260246000fd5b6000610fe482610d27565b91507f800000000000000000000000000000000000000000000000000000000000000082141561101757611016610faa565b5b816000039050919050565b61102b81610bc1565b82525050565b60006040820190506110466000830185610cd0565b6110536020830184611022565b9392505050565b600061106582610bc1565b915061107083610bc1565b92508282101561108357611082610faa565b5b828203905092915050565b60008160011c9050919050565b6000808291508390505b60018511156110e5578086048111156110c1576110c0610faa565b5b60018516156110d05780820291505b80810290506110de8561108e565b94506110a5565b94509492505050565b6000826110fe57600190506111ba565b8161110c57600090506111ba565b8160018114611122576002811461112c5761115b565b60019150506111ba565b60ff84111561113e5761113d610faa565b5b8360020a91508482111561115557611154610faa565b5b506111ba565b5060208310610133831016604e8410600b84101617156111905782820a90508381111561118b5761118a610faa565b5b6111ba565b61119d848484600161109b565b925090508184048111156111b4576111b3610faa565b5b81810290505b9392505050565b600060ff82169050919050565b60006111d982610bc1565b91506111e4836111c1565b92506112117fffffffffffffffffffffffffffffffffffffffffffffffffffffffffffffffff84846110ee565b905092915050565b600061122482610bc1565b915061122f83610bc1565b9250817fffffffffffffffffffffffffffffffffffffffffffffffffffffffffffffffff048311821515161561126857611267610faa565b5b828202905092915050565b7f4e487b7100000000000000000000000000000000000000000000000000000000600052601260045260246000fd5b60006112ad82610bc1565b91506112b883610bc1565b9250826112c8576112c7611273565b5b828204905092915050565b60006112de82610bc1565b91506112e983610bc1565b9250827fffffffffffffffffffffffffffffffffffffffffffffffffffffffffffffffff0382111561131e5761131d610faa565b5b828201905092915050565b600061133482610d27565b915061133f83610d27565b9250827f7fffffffffffffffffffffffffffffffffffffffffffffffffffffffffffffff048211600084136000841316161561137e5761137d610faa565b5b817f800000000000000000000000000000000000000000000000000000000000000005831260008412600084131616156113bb576113ba610faa565b5b827f800000000000000000000000000000000000000000000000000000000000000005821260008413600084121616156113f8576113f7610faa565b5b827f7fffffffffffffffffffffffffffffffffffffffffffffffffffffffffffffff058212600084126000841216161561143557611434610faa565b5b828202905092915050565b600061144b82610d27565b915061145683610d27565b9250817f7fffffffffffffffffffffffffffffffffffffffffffffffffffffffffffffff0383136000831215161561149157611490610faa565b5b817f80000000000000000000000000000000000000000000000000000000000000000383126000831216156114c9576114c8610faa565b5b828201905092915050565b60006114df82610d27565b91506114ea83610d27565b9250826114fa576114f9611273565b5b600160000383147f80000000000000000000000000000000000000000000000000000000000000008314161561153357611532610faa565b5b828205905092915050565b600081519050919050565b60005b8381101561156757808201518184015260208101905061154c565b83811115611576576000848401525b50505050565b6000601f19601f8301169050919050565b60006115988261153e565b6115a28185610f12565b93506115b2818560208601611549565b6115bb8161157c565b840191505092915050565b600060208201905081810360008301526115e0818461158d565b905092915050565b60006040820190508181036000830152611602818561158d565b90506116116020830184611022565b9392505050565b7f4861736820636f756e742063616e206e6f74206265207a65726f000000000000600082015250565b600061164e601a83610f12565b915061165982611618565b602082019050919050565b6000602082019050818103600083015261167d81611641565b9050919050565b60006116908285610ecf565b6020820191506116a08284610e82565b6020820191508190509392505050565b60006116bb82610bc1565b91506116c683610bc1565b9250826116d6576116d5611273565b5b828206905092915050565b7f4f766572666c6f77206572726f72000000000000000000000000000000000000600082015250565b6000611717600e83610f12565b9150611722826116e1565b602082019050919050565b600060208201905081810360008301526117468161170a565b9050919050565b600061175882610bc1565b91507fffffffffffffffffffffffffffffffffffffffffffffffffffffffffffffffff82141561178b5761178a610faa565b5b600182019050919050565b7f4e487b7100000000000000000000000000000000000000000000000000000000600052602260045260246000fd5b600060028204905060018216806117dd57607f821691505b602082108114156117f1576117f0611796565b5b5091905056fea26469706673582212206093c5ccee84eade9f9683568a63cdb37893004eacb2ee0fcf3a706ac05058a764736f6c63430008090033","opcodes":"PUSH1 0x80 PUSH1 0x40 MSTORE CALLVALUE DUP1 ISZERO PUSH3 0x11 JUMPI PUSH1 0x0 DUP1 REVERT JUMPDEST POP PUSH3 0x28 PUSH5 0x174876E800 PUSH3 0x2E PUSH1 0x20 SHL PUSH1 0x20 SHR JUMP JUMPDEST PUSH3 0x22C JUMP JUMPDEST PUSH3 0x49 DUP2 PUSH1 0x0 PUSH3 0x4C PUSH1 0x20 SHL PUSH3 0x36D OR SWAP1 SWAP2 SWAP1 PUSH1 0x20 SHR JUMP JUMPDEST POP JUMP JUMPDEST PUSH3 0x5D DUP2 PUSH3 0x7D PUSH1 0x20 SHL PUSH1 0x20 SHR JUMP JUMPDEST DUP3 PUSH1 0x1 ADD PUSH1 0x0 PUSH2 0x100 EXP DUP2 SLOAD DUP2 PUSH1 0xFF MUL NOT AND SWAP1 DUP4 PUSH1 0xFF AND MUL OR SWAP1 SSTORE POP POP POP JUMP JUMPDEST PUSH1 0x0 DUP1 PUSH1 0x1 PUSH1 0x64 DUP5 PUSH3 0x91 SWAP2 SWAP1 PUSH3 0x107 JUMP JUMPDEST PUSH2 0x9000 PUSH3 0xA0 SWAP2 SWAP1 PUSH3 0x197 JUMP JUMPDEST PUSH3 0xAC SWAP2 SWAP1 PUSH3 0x1CF JUMP JUMPDEST SWAP1 POP PUSH2 0x100 DUP2 LT ISZERO PUSH3 0xC3 JUMPI DUP1 SWAP2 POP POP PUSH3 0xC9 JUMP JUMPDEST PUSH1 0xFF SWAP2 POP POP JUMPDEST SWAP2 SWAP1 POP JUMP JUMPDEST PUSH1 0x0 DUP2 SWAP1 POP SWAP2 SWAP1 POP JUMP JUMPDEST PUSH32 0x4E487B7100000000000000000000000000000000000000000000000000000000 PUSH1 0x0 MSTORE PUSH1 0x11 PUSH1 0x4 MSTORE PUSH1 0x24 PUSH1 0x0 REVERT JUMPDEST PUSH1 0x0 PUSH3 0x114 DUP3 PUSH3 0xCE JUMP JUMPDEST SWAP2 POP PUSH3 0x121 DUP4 PUSH3 0xCE JUMP JUMPDEST SWAP3 POP DUP2 PUSH32 0xFFFFFFFFFFFFFFFFFFFFFFFFFFFFFFFFFFFFFFFFFFFFFFFFFFFFFFFFFFFFFFFF DIV DUP4 GT DUP3 ISZERO ISZERO AND ISZERO PUSH3 0x15D JUMPI PUSH3 0x15C PUSH3 0xD8 JUMP JUMPDEST JUMPDEST DUP3 DUP3 MUL SWAP1 POP SWAP3 SWAP2 POP POP JUMP JUMPDEST PUSH32 0x4E487B7100000000000000000000000000000000000000000000000000000000 PUSH1 0x0 MSTORE PUSH1 0x12 PUSH1 0x4 MSTORE PUSH1 0x24 PUSH1 0x0 REVERT JUMPDEST PUSH1 0x0 PUSH3 0x1A4 DUP3 PUSH3 0xCE JUMP JUMPDEST SWAP2 POP PUSH3 0x1B1 DUP4 PUSH3 0xCE JUMP JUMPDEST SWAP3 POP DUP3 PUSH3 0x1C4 JUMPI PUSH3 0x1C3 PUSH3 0x168 JUMP JUMPDEST JUMPDEST DUP3 DUP3 DIV SWAP1 POP SWAP3 SWAP2 POP POP JUMP JUMPDEST PUSH1 0x0 PUSH3 0x1DC DUP3 PUSH3 0xCE JUMP JUMPDEST SWAP2 POP PUSH3 0x1E9 DUP4 PUSH3 0xCE JUMP JUMPDEST SWAP3 POP DUP3 PUSH32 0xFFFFFFFFFFFFFFFFFFFFFFFFFFFFFFFFFFFFFFFFFFFFFFFFFFFFFFFFFFFFFFFF SUB DUP3 GT ISZERO PUSH3 0x221 JUMPI PUSH3 0x220 PUSH3 0xD8 JUMP JUMPDEST JUMPDEST DUP3 DUP3 ADD SWAP1 POP SWAP3 SWAP2 POP POP JUMP JUMPDEST PUSH2 0x182D DUP1 PUSH3 0x23C PUSH1 0x0 CODECOPY PUSH1 0x0 RETURN INVALID PUSH1 0x80 PUSH1 0x40 MSTORE PUSH1 0x4 CALLDATASIZE LT PUSH2 0x38 JUMPI PUSH1 0x0 CALLDATALOAD PUSH1 0xE0 SHR DUP1 PUSH4 0xADDFA182 EQ PUSH2 0x41 JUMPI DUP1 PUSH4 0xD14519D2 EQ PUSH2 0x7E JUMPI DUP1 PUSH4 0xD99A3927 EQ PUSH2 0xBB JUMPI PUSH2 0x3F JUMP JUMPDEST CALLDATASIZE PUSH2 0x3F JUMPI STOP JUMPDEST STOP JUMPDEST CALLVALUE DUP1 ISZERO PUSH2 0x4D JUMPI PUSH1 0x0 DUP1 REVERT JUMPDEST POP PUSH2 0x68 PUSH1 0x4 DUP1 CALLDATASIZE SUB DUP2 ADD SWAP1 PUSH2 0x63 SWAP2 SWAP1 PUSH2 0xC5C JUMP JUMPDEST PUSH2 0xF8 JUMP JUMPDEST PUSH1 0x40 MLOAD PUSH2 0x75 SWAP2 SWAP1 PUSH2 0xCDF JUMP JUMPDEST PUSH1 0x40 MLOAD DUP1 SWAP2 SUB SWAP1 RETURN JUMPDEST CALLVALUE DUP1 ISZERO PUSH2 0x8A JUMPI PUSH1 0x0 DUP1 REVERT JUMPDEST POP PUSH2 0xA5 PUSH1 0x4 DUP1 CALLDATASIZE SUB DUP2 ADD SWAP1 PUSH2 0xA0 SWAP2 SWAP1 PUSH2 0xCFA JUMP JUMPDEST PUSH2 0x346 JUMP JUMPDEST PUSH1 0x40 MLOAD PUSH2 0xB2 SWAP2 SWAP1 PUSH2 0xD40 JUMP JUMPDEST PUSH1 0x40 MLOAD DUP1 SWAP2 SUB SWAP1 RETURN JUMPDEST CALLVALUE DUP1 ISZERO PUSH2 0xC7 JUMPI PUSH1 0x0 DUP1 REVERT JUMPDEST POP PUSH2 0xE2 PUSH1 0x4 DUP1 CALLDATASIZE SUB DUP2 ADD SWAP1 PUSH2 0xDD SWAP2 SWAP1 PUSH2 0xD9B JUMP JUMPDEST PUSH2 0x366 JUMP JUMPDEST PUSH1 0x40 MLOAD PUSH2 0xEF SWAP2 SWAP1 PUSH2 0xDE3 JUMP JUMPDEST PUSH1 0x40 MLOAD DUP1 SWAP2 SUB SWAP1 RETURN JUMPDEST PUSH1 0x0 PUSH2 0x102 PUSH2 0x396 JUMP JUMPDEST PUSH2 0x13F CALLER PUSH1 0x1 PUSH1 0x40 MLOAD PUSH1 0x20 ADD PUSH2 0x119 SWAP3 SWAP2 SWAP1 PUSH2 0xE99 JUMP JUMPDEST PUSH1 0x40 MLOAD PUSH1 0x20 DUP2 DUP4 SUB SUB DUP2 MSTORE SWAP1 PUSH1 0x40 MSTORE DUP1 MLOAD SWAP1 PUSH1 0x20 ADD KECCAK256 PUSH1 0x0 PUSH2 0x5B0 SWAP1 SWAP2 SWAP1 PUSH4 0xFFFFFFFF AND JUMP JUMPDEST ISZERO PUSH2 0x176 JUMPI PUSH1 0x40 MLOAD PUSH32 0x9689CB0F00000000000000000000000000000000000000000000000000000000 DUP2 MSTORE PUSH1 0x4 ADD PUSH1 0x40 MLOAD DUP1 SWAP2 SUB SWAP1 REVERT JUMPDEST PUSH1 0x0 CALLER DUP7 PUSH1 0x40 MLOAD PUSH1 0x20 ADD PUSH2 0x18B SWAP3 SWAP2 SWAP1 PUSH2 0xEE6 JUMP JUMPDEST PUSH1 0x40 MLOAD PUSH1 0x20 DUP2 DUP4 SUB SUB DUP2 MSTORE SWAP1 PUSH1 0x40 MSTORE DUP1 MLOAD SWAP1 PUSH1 0x20 ADD KECCAK256 SWAP1 POP PUSH1 0x0 DUP1 SHL PUSH1 0x4 PUSH1 0x0 DUP4 DUP2 MSTORE PUSH1 0x20 ADD SWAP1 DUP2 MSTORE PUSH1 0x20 ADD PUSH1 0x0 KECCAK256 PUSH1 0x0 ADD SLOAD EQ PUSH2 0x1FE JUMPI PUSH1 0x40 MLOAD PUSH32 0x8C379A000000000000000000000000000000000000000000000000000000000 DUP2 MSTORE PUSH1 0x4 ADD PUSH2 0x1F5 SWAP1 PUSH2 0xF6F JUMP JUMPDEST PUSH1 0x40 MLOAD DUP1 SWAP2 SUB SWAP1 REVERT JUMPDEST PUSH1 0x40 MLOAD DUP1 PUSH1 0x80 ADD PUSH1 0x40 MSTORE DUP1 DUP3 DUP2 MSTORE PUSH1 0x20 ADD DUP8 DUP2 MSTORE PUSH1 0x20 ADD DUP7 DUP2 MSTORE PUSH1 0x20 ADD DUP6 DUP6 DUP1 DUP1 PUSH1 0x1F ADD PUSH1 0x20 DUP1 SWAP2 DIV MUL PUSH1 0x20 ADD PUSH1 0x40 MLOAD SWAP1 DUP2 ADD PUSH1 0x40 MSTORE DUP1 SWAP4 SWAP3 SWAP2 SWAP1 DUP2 DUP2 MSTORE PUSH1 0x20 ADD DUP4 DUP4 DUP1 DUP3 DUP5 CALLDATACOPY PUSH1 0x0 DUP2 DUP5 ADD MSTORE PUSH1 0x1F NOT PUSH1 0x1F DUP3 ADD AND SWAP1 POP DUP1 DUP4 ADD SWAP3 POP POP POP POP POP POP POP DUP2 MSTORE POP PUSH1 0x4 PUSH1 0x0 DUP4 DUP2 MSTORE PUSH1 0x20 ADD SWAP1 DUP2 MSTORE PUSH1 0x20 ADD PUSH1 0x0 KECCAK256 PUSH1 0x0 DUP3 ADD MLOAD DUP2 PUSH1 0x0 ADD SSTORE PUSH1 0x20 DUP3 ADD MLOAD DUP2 PUSH1 0x1 ADD SSTORE PUSH1 0x40 DUP3 ADD MLOAD DUP2 PUSH1 0x2 ADD SSTORE PUSH1 0x60 DUP3 ADD MLOAD DUP2 PUSH1 0x3 ADD SWAP1 DUP1 MLOAD SWAP1 PUSH1 0x20 ADD SWAP1 PUSH2 0x2B0 SWAP3 SWAP2 SWAP1 PUSH2 0xADE JUMP JUMPDEST POP SWAP1 POP POP PUSH1 0x0 PUSH2 0x2C5 DUP7 PUSH1 0x1 PUSH1 0x14 PUSH1 0x8 PUSH2 0x5DA JUMP JUMPDEST SWAP1 POP PUSH2 0x300 CALLER PUSH1 0x40 MLOAD PUSH1 0x20 ADD PUSH2 0x2DB SWAP2 SWAP1 PUSH2 0xF8F JUMP JUMPDEST PUSH1 0x40 MLOAD PUSH1 0x20 DUP2 DUP4 SUB SUB DUP2 MSTORE SWAP1 PUSH1 0x40 MSTORE DUP1 MLOAD SWAP1 PUSH1 0x20 ADD KECCAK256 DUP3 PUSH2 0x2FB SWAP1 PUSH2 0xFD9 JUMP JUMPDEST PUSH2 0x62A JUMP JUMPDEST PUSH32 0x1471883DA0C9E2A8E7D5284477FF356083FC400504747A5D4110BDA87BD9A7D2 DUP8 DUP8 PUSH1 0x40 MLOAD PUSH2 0x331 SWAP3 SWAP2 SWAP1 PUSH2 0x1031 JUMP JUMPDEST PUSH1 0x40 MLOAD DUP1 SWAP2 SUB SWAP1 LOG1 DUP2 SWAP3 POP POP POP SWAP5 SWAP4 POP POP POP POP JUMP JUMPDEST PUSH1 0x0 PUSH1 0x5 PUSH1 0x0 DUP4 DUP2 MSTORE PUSH1 0x20 ADD SWAP1 DUP2 MSTORE PUSH1 0x20 ADD PUSH1 0x0 KECCAK256 PUSH1 0x0 ADD SLOAD SWAP1 POP SWAP2 SWAP1 POP JUMP JUMPDEST PUSH1 0x0 SWAP2 SWAP1 POP JUMP JUMPDEST PUSH2 0x376 DUP2 PUSH2 0x6F0 JUMP JUMPDEST DUP3 PUSH1 0x1 ADD PUSH1 0x0 PUSH2 0x100 EXP DUP2 SLOAD DUP2 PUSH1 0xFF MUL NOT AND SWAP1 DUP4 PUSH1 0xFF AND MUL OR SWAP1 SSTORE POP POP POP JUMP JUMPDEST PUSH1 0x0 CALLER PUSH1 0x40 MLOAD PUSH1 0x20 ADD PUSH2 0x3A9 SWAP2 SWAP1 PUSH2 0xF8F JUMP JUMPDEST PUSH1 0x40 MLOAD PUSH1 0x20 DUP2 DUP4 SUB SUB DUP2 MSTORE SWAP1 PUSH1 0x40 MSTORE DUP1 MLOAD SWAP1 PUSH1 0x20 ADD KECCAK256 SWAP1 POP PUSH1 0x0 PUSH1 0x2 PUSH1 0x0 DUP4 DUP2 MSTORE PUSH1 0x20 ADD SWAP1 DUP2 MSTORE PUSH1 0x20 ADD PUSH1 0x0 KECCAK256 SLOAD SWAP1 POP PUSH1 0x0 DUP2 EQ ISZERO PUSH2 0x440 JUMPI PUSH2 0x2710 SWAP1 POP PUSH2 0x2710 PUSH1 0x2 PUSH1 0x0 DUP5 DUP2 MSTORE PUSH1 0x20 ADD SWAP1 DUP2 MSTORE PUSH1 0x20 ADD PUSH1 0x0 KECCAK256 DUP2 SWAP1 SSTORE POP PUSH2 0x43F PUSH1 0x40 MLOAD DUP1 PUSH1 0x40 ADD PUSH1 0x40 MSTORE DUP1 PUSH1 0x1D DUP2 MSTORE PUSH1 0x20 ADD PUSH32 0x526573657474696E67207265706F727465722072617465206C696D6974000000 DUP2 MSTORE POP PUSH2 0x739 JUMP JUMPDEST JUMPDEST PUSH1 0x0 PUSH1 0x3 PUSH1 0x0 DUP5 DUP2 MSTORE PUSH1 0x20 ADD SWAP1 DUP2 MSTORE PUSH1 0x20 ADD PUSH1 0x0 KECCAK256 SLOAD SWAP1 POP PUSH1 0x0 DUP2 TIMESTAMP PUSH2 0x466 SWAP2 SWAP1 PUSH2 0x105A JUMP JUMPDEST SWAP1 POP PUSH2 0x4A7 PUSH1 0x40 MLOAD DUP1 PUSH1 0x40 ADD PUSH1 0x40 MSTORE DUP1 PUSH1 0x17 DUP2 MSTORE PUSH1 0x20 ADD PUSH32 0x74696D6553696E63654C61737452657175657374202564000000000000000000 DUP2 MSTORE POP DUP3 PUSH2 0x7D2 JUMP JUMPDEST DUP3 DUP2 LT PUSH2 0x52E JUMPI PUSH2 0x4EC PUSH1 0x40 MLOAD DUP1 PUSH1 0x40 ADD PUSH1 0x40 MSTORE DUP1 PUSH1 0x10 DUP2 MSTORE PUSH1 0x20 ADD PUSH32 0x6E6F742072617465206C696D6974656400000000000000000000000000000000 DUP2 MSTORE POP PUSH2 0x739 JUMP JUMPDEST PUSH2 0x529 CALLER PUSH1 0x0 PUSH1 0x40 MLOAD PUSH1 0x20 ADD PUSH2 0x503 SWAP3 SWAP2 SWAP1 PUSH2 0xE99 JUMP JUMPDEST PUSH1 0x40 MLOAD PUSH1 0x20 DUP2 DUP4 SUB SUB DUP2 MSTORE SWAP1 PUSH1 0x40 MSTORE DUP1 MLOAD SWAP1 PUSH1 0x20 ADD KECCAK256 PUSH1 0x0 PUSH2 0x86E SWAP1 SWAP2 SWAP1 PUSH4 0xFFFFFFFF AND JUMP JUMPDEST PUSH2 0x5AA JUMP JUMPDEST PUSH2 0x56C PUSH1 0x40 MLOAD DUP1 PUSH1 0x40 ADD PUSH1 0x40 MSTORE DUP1 PUSH1 0xE DUP2 MSTORE PUSH1 0x20 ADD PUSH32 0x72617465206C696D697465642121000000000000000000000000000000000000 DUP2 MSTORE POP PUSH2 0x739 JUMP JUMPDEST PUSH2 0x5A9 CALLER PUSH1 0x1 PUSH1 0x40 MLOAD PUSH1 0x20 ADD PUSH2 0x583 SWAP3 SWAP2 SWAP1 PUSH2 0xE99 JUMP JUMPDEST PUSH1 0x40 MLOAD PUSH1 0x20 DUP2 DUP4 SUB SUB DUP2 MSTORE SWAP1 PUSH1 0x40 MSTORE DUP1 MLOAD SWAP1 PUSH1 0x20 ADD KECCAK256 PUSH1 0x0 PUSH2 0x86E SWAP1 SWAP2 SWAP1 PUSH4 0xFFFFFFFF AND JUMP JUMPDEST JUMPDEST POP POP POP POP JUMP JUMPDEST PUSH1 0x0 PUSH2 0x5D2 DUP4 PUSH1 0x0 ADD SLOAD DUP5 PUSH1 0x1 ADD PUSH1 0x0 SWAP1 SLOAD SWAP1 PUSH2 0x100 EXP SWAP1 DIV PUSH1 0xFF AND DUP5 PUSH2 0x89A JUMP JUMPDEST SWAP1 POP SWAP3 SWAP2 POP POP JUMP JUMPDEST PUSH1 0x0 DUP1 DUP5 DUP5 PUSH2 0x5E9 SWAP2 SWAP1 PUSH2 0x105A JUMP JUMPDEST SWAP1 POP PUSH1 0x0 DUP2 DUP5 PUSH1 0xA PUSH2 0x5FB SWAP2 SWAP1 PUSH2 0x11CE JUMP JUMPDEST DUP8 DUP10 PUSH2 0x607 SWAP2 SWAP1 PUSH2 0x105A JUMP JUMPDEST PUSH2 0x611 SWAP2 SWAP1 PUSH2 0x1219 JUMP JUMPDEST PUSH2 0x61B SWAP2 SWAP1 PUSH2 0x12A2 JUMP JUMPDEST SWAP1 POP DUP1 SWAP3 POP POP POP SWAP5 SWAP4 POP POP POP POP JUMP JUMPDEST PUSH1 0x0 PUSH1 0x5 PUSH1 0x0 DUP5 DUP2 MSTORE PUSH1 0x20 ADD SWAP1 DUP2 MSTORE PUSH1 0x20 ADD PUSH1 0x0 KECCAK256 PUSH1 0x0 ADD SLOAD SWAP1 POP PUSH1 0x0 PUSH1 0x5 PUSH1 0x0 DUP6 DUP2 MSTORE PUSH1 0x20 ADD SWAP1 DUP2 MSTORE PUSH1 0x20 ADD PUSH1 0x0 KECCAK256 PUSH1 0x1 ADD SLOAD SWAP1 POP PUSH1 0x0 PUSH1 0x1 DUP3 PUSH2 0x66F SWAP2 SWAP1 PUSH2 0x12D3 JUMP JUMPDEST PUSH1 0x4 DUP6 DUP5 DUP7 PUSH2 0x67E SWAP2 SWAP1 PUSH2 0x1329 JUMP JUMPDEST PUSH2 0x688 SWAP2 SWAP1 PUSH2 0x1440 JUMP JUMPDEST PUSH2 0x692 SWAP2 SWAP1 PUSH2 0x1440 JUMP JUMPDEST PUSH2 0x69C SWAP2 SWAP1 PUSH2 0x14D4 JUMP JUMPDEST SWAP1 POP PUSH1 0x40 MLOAD DUP1 PUSH1 0x40 ADD PUSH1 0x40 MSTORE DUP1 DUP3 DUP2 MSTORE PUSH1 0x20 ADD PUSH1 0x1 DUP5 PUSH2 0x6BC SWAP2 SWAP1 PUSH2 0x12D3 JUMP JUMPDEST DUP2 MSTORE POP PUSH1 0x5 PUSH1 0x0 DUP8 DUP2 MSTORE PUSH1 0x20 ADD SWAP1 DUP2 MSTORE PUSH1 0x20 ADD PUSH1 0x0 KECCAK256 PUSH1 0x0 DUP3 ADD MLOAD DUP2 PUSH1 0x0 ADD SSTORE PUSH1 0x20 DUP3 ADD MLOAD DUP2 PUSH1 0x1 ADD SSTORE SWAP1 POP POP POP POP POP POP POP JUMP JUMPDEST PUSH1 0x0 DUP1 PUSH1 0x1 PUSH1 0x64 DUP5 PUSH2 0x702 SWAP2 SWAP1 PUSH2 0x1219 JUMP JUMPDEST PUSH2 0x9000 PUSH2 0x70F SWAP2 SWAP1 PUSH2 0x12A2 JUMP JUMPDEST PUSH2 0x719 SWAP2 SWAP1 PUSH2 0x12D3 JUMP JUMPDEST SWAP1 POP PUSH2 0x100 DUP2 LT ISZERO PUSH2 0x72E JUMPI DUP1 SWAP2 POP POP PUSH2 0x734 JUMP JUMPDEST PUSH1 0xFF SWAP2 POP POP JUMPDEST SWAP2 SWAP1 POP JUMP JUMPDEST PUSH2 0x7CF DUP2 PUSH1 0x40 MLOAD PUSH1 0x24 ADD PUSH2 0x74D SWAP2 SWAP1 PUSH2 0x15C6 JUMP JUMPDEST PUSH1 0x40 MLOAD PUSH1 0x20 DUP2 DUP4 SUB SUB DUP2 MSTORE SWAP1 PUSH1 0x40 MSTORE PUSH32 0x41304FAC00000000000000000000000000000000000000000000000000000000 PUSH28 0xFFFFFFFFFFFFFFFFFFFFFFFFFFFFFFFFFFFFFFFFFFFFFFFFFFFFFFFF NOT AND PUSH1 0x20 DUP3 ADD DUP1 MLOAD PUSH28 0xFFFFFFFFFFFFFFFFFFFFFFFFFFFFFFFFFFFFFFFFFFFFFFFFFFFFFFFF DUP4 DUP2 DUP4 AND OR DUP4 MSTORE POP POP POP POP PUSH2 0x9B0 JUMP JUMPDEST POP JUMP JUMPDEST PUSH2 0x86A DUP3 DUP3 PUSH1 0x40 MLOAD PUSH1 0x24 ADD PUSH2 0x7E8 SWAP3 SWAP2 SWAP1 PUSH2 0x15E8 JUMP JUMPDEST PUSH1 0x40 MLOAD PUSH1 0x20 DUP2 DUP4 SUB SUB DUP2 MSTORE SWAP1 PUSH1 0x40 MSTORE PUSH32 0xB60E72CC00000000000000000000000000000000000000000000000000000000 PUSH28 0xFFFFFFFFFFFFFFFFFFFFFFFFFFFFFFFFFFFFFFFFFFFFFFFFFFFFFFFF NOT AND PUSH1 0x20 DUP3 ADD DUP1 MLOAD PUSH28 0xFFFFFFFFFFFFFFFFFFFFFFFFFFFFFFFFFFFFFFFFFFFFFFFFFFFFFFFF DUP4 DUP2 DUP4 AND OR DUP4 MSTORE POP POP POP POP PUSH2 0x9B0 JUMP JUMPDEST POP POP JUMP JUMPDEST PUSH2 0x88E DUP3 PUSH1 0x0 ADD SLOAD DUP4 PUSH1 0x1 ADD PUSH1 0x0 SWAP1 SLOAD SWAP1 PUSH2 0x100 EXP SWAP1 DIV PUSH1 0xFF AND DUP4 PUSH2 0x9D9 JUMP JUMPDEST DUP3 PUSH1 0x0 ADD DUP2 SWAP1 SSTORE POP POP POP JUMP JUMPDEST PUSH1 0x0 DUP1 DUP4 PUSH1 0xFF AND GT PUSH2 0x8E1 JUMPI PUSH1 0x40 MLOAD PUSH32 0x8C379A000000000000000000000000000000000000000000000000000000000 DUP2 MSTORE PUSH1 0x4 ADD PUSH2 0x8D8 SWAP1 PUSH2 0x1664 JUMP JUMPDEST PUSH1 0x40 MLOAD DUP1 SWAP2 SUB SWAP1 REVERT JUMPDEST PUSH1 0x0 JUMPDEST DUP4 PUSH1 0xFF AND DUP2 LT ISZERO PUSH2 0x9A3 JUMPI PUSH1 0x0 PUSH2 0x100 DUP5 DUP4 PUSH1 0x40 MLOAD PUSH1 0x20 ADD PUSH2 0x907 SWAP3 SWAP2 SWAP1 PUSH2 0x1684 JUMP JUMPDEST PUSH1 0x40 MLOAD PUSH1 0x20 DUP2 DUP4 SUB SUB DUP2 MSTORE SWAP1 PUSH1 0x40 MSTORE DUP1 MLOAD SWAP1 PUSH1 0x20 ADD KECCAK256 PUSH1 0x0 SHR PUSH2 0x92A SWAP2 SWAP1 PUSH2 0x16B0 JUMP JUMPDEST SWAP1 POP PUSH2 0x100 DUP2 LT PUSH2 0x970 JUMPI PUSH1 0x40 MLOAD PUSH32 0x8C379A000000000000000000000000000000000000000000000000000000000 DUP2 MSTORE PUSH1 0x4 ADD PUSH2 0x967 SWAP1 PUSH2 0x172D JUMP JUMPDEST PUSH1 0x40 MLOAD DUP1 SWAP2 SUB SWAP1 REVERT JUMPDEST PUSH1 0x0 DUP2 PUSH1 0x1 SWAP1 SHL SWAP1 POP DUP1 DUP8 OR DUP8 EQ PUSH2 0x98E JUMPI PUSH1 0x0 SWAP4 POP POP POP POP PUSH2 0x9A9 JUMP JUMPDEST POP POP DUP1 DUP1 PUSH2 0x99B SWAP1 PUSH2 0x174D JUMP JUMPDEST SWAP2 POP POP PUSH2 0x8E4 JUMP JUMPDEST POP PUSH1 0x1 SWAP1 POP JUMPDEST SWAP4 SWAP3 POP POP POP JUMP JUMPDEST PUSH1 0x0 DUP2 MLOAD SWAP1 POP PUSH1 0x0 PUSH11 0x636F6E736F6C652E6C6F67 SWAP1 POP PUSH1 0x20 DUP4 ADD PUSH1 0x0 DUP1 DUP5 DUP4 DUP6 GAS STATICCALL POP POP POP POP POP JUMP JUMPDEST PUSH1 0x0 DUP4 SWAP1 POP PUSH1 0x0 DUP4 PUSH1 0xFF AND GT PUSH2 0xA24 JUMPI PUSH1 0x40 MLOAD PUSH32 0x8C379A000000000000000000000000000000000000000000000000000000000 DUP2 MSTORE PUSH1 0x4 ADD PUSH2 0xA1B SWAP1 PUSH2 0x1664 JUMP JUMPDEST PUSH1 0x40 MLOAD DUP1 SWAP2 SUB SWAP1 REVERT JUMPDEST PUSH1 0x0 JUMPDEST DUP4 PUSH1 0xFF AND DUP2 LT ISZERO PUSH2 0xAD6 JUMPI PUSH1 0x0 PUSH2 0x100 DUP5 DUP4 PUSH1 0x40 MLOAD PUSH1 0x20 ADD PUSH2 0xA4A SWAP3 SWAP2 SWAP1 PUSH2 0x1684 JUMP JUMPDEST PUSH1 0x40 MLOAD PUSH1 0x20 DUP2 DUP4 SUB SUB DUP2 MSTORE SWAP1 PUSH1 0x40 MSTORE DUP1 MLOAD SWAP1 PUSH1 0x20 ADD KECCAK256 PUSH1 0x0 SHR PUSH2 0xA6D SWAP2 SWAP1 PUSH2 0x16B0 JUMP JUMPDEST SWAP1 POP PUSH2 0x100 DUP2 LT PUSH2 0xAB3 JUMPI PUSH1 0x40 MLOAD PUSH32 0x8C379A000000000000000000000000000000000000000000000000000000000 DUP2 MSTORE PUSH1 0x4 ADD PUSH2 0xAAA SWAP1 PUSH2 0x172D JUMP JUMPDEST PUSH1 0x40 MLOAD DUP1 SWAP2 SUB SWAP1 REVERT JUMPDEST PUSH1 0x0 DUP2 PUSH1 0x1 SWAP1 SHL SWAP1 POP DUP1 DUP5 OR SWAP4 POP POP POP DUP1 DUP1 PUSH2 0xACE SWAP1 PUSH2 0x174D JUMP JUMPDEST SWAP2 POP POP PUSH2 0xA27 JUMP JUMPDEST POP SWAP4 SWAP3 POP POP POP JUMP JUMPDEST DUP3 DUP1 SLOAD PUSH2 0xAEA SWAP1 PUSH2 0x17C5 JUMP JUMPDEST SWAP1 PUSH1 0x0 MSTORE PUSH1 0x20 PUSH1 0x0 KECCAK256 SWAP1 PUSH1 0x1F ADD PUSH1 0x20 SWAP1 DIV DUP2 ADD SWAP3 DUP3 PUSH2 0xB0C JUMPI PUSH1 0x0 DUP6 SSTORE PUSH2 0xB53 JUMP JUMPDEST DUP3 PUSH1 0x1F LT PUSH2 0xB25 JUMPI DUP1 MLOAD PUSH1 0xFF NOT AND DUP4 DUP1 ADD OR DUP6 SSTORE PUSH2 0xB53 JUMP JUMPDEST DUP3 DUP1 ADD PUSH1 0x1 ADD DUP6 SSTORE DUP3 ISZERO PUSH2 0xB53 JUMPI SWAP2 DUP3 ADD JUMPDEST DUP3 DUP2 GT ISZERO PUSH2 0xB52 JUMPI DUP3 MLOAD DUP3 SSTORE SWAP2 PUSH1 0x20 ADD SWAP2 SWAP1 PUSH1 0x1 ADD SWAP1 PUSH2 0xB37 JUMP JUMPDEST JUMPDEST POP SWAP1 POP PUSH2 0xB60 SWAP2 SWAP1 PUSH2 0xB64 JUMP JUMPDEST POP SWAP1 JUMP JUMPDEST JUMPDEST DUP1 DUP3 GT ISZERO PUSH2 0xB7D JUMPI PUSH1 0x0 DUP2 PUSH1 0x0 SWAP1 SSTORE POP PUSH1 0x1 ADD PUSH2 0xB65 JUMP JUMPDEST POP SWAP1 JUMP JUMPDEST PUSH1 0x0 DUP1 REVERT JUMPDEST PUSH1 0x0 DUP1 REVERT JUMPDEST PUSH1 0x0 DUP2 SWAP1 POP SWAP2 SWAP1 POP JUMP JUMPDEST PUSH2 0xB9E DUP2 PUSH2 0xB8B JUMP JUMPDEST DUP2 EQ PUSH2 0xBA9 JUMPI PUSH1 0x0 DUP1 REVERT JUMPDEST POP JUMP JUMPDEST PUSH1 0x0 DUP2 CALLDATALOAD SWAP1 POP PUSH2 0xBBB DUP2 PUSH2 0xB95 JUMP JUMPDEST SWAP3 SWAP2 POP POP JUMP JUMPDEST PUSH1 0x0 DUP2 SWAP1 POP SWAP2 SWAP1 POP JUMP JUMPDEST PUSH2 0xBD4 DUP2 PUSH2 0xBC1 JUMP JUMPDEST DUP2 EQ PUSH2 0xBDF JUMPI PUSH1 0x0 DUP1 REVERT JUMPDEST POP JUMP JUMPDEST PUSH1 0x0 DUP2 CALLDATALOAD SWAP1 POP PUSH2 0xBF1 DUP2 PUSH2 0xBCB JUMP JUMPDEST SWAP3 SWAP2 POP POP JUMP JUMPDEST PUSH1 0x0 DUP1 REVERT JUMPDEST PUSH1 0x0 DUP1 REVERT JUMPDEST PUSH1 0x0 DUP1 REVERT JUMPDEST PUSH1 0x0 DUP1 DUP4 PUSH1 0x1F DUP5 ADD SLT PUSH2 0xC1C JUMPI PUSH2 0xC1B PUSH2 0xBF7 JUMP JUMPDEST JUMPDEST DUP3 CALLDATALOAD SWAP1 POP PUSH8 0xFFFFFFFFFFFFFFFF DUP2 GT ISZERO PUSH2 0xC39 JUMPI PUSH2 0xC38 PUSH2 0xBFC JUMP JUMPDEST JUMPDEST PUSH1 0x20 DUP4 ADD SWAP2 POP DUP4 PUSH1 0x1 DUP3 MUL DUP4 ADD GT ISZERO PUSH2 0xC55 JUMPI PUSH2 0xC54 PUSH2 0xC01 JUMP JUMPDEST JUMPDEST SWAP3 POP SWAP3 SWAP1 POP JUMP JUMPDEST PUSH1 0x0 DUP1 PUSH1 0x0 DUP1 PUSH1 0x60 DUP6 DUP8 SUB SLT ISZERO PUSH2 0xC76 JUMPI PUSH2 0xC75 PUSH2 0xB81 JUMP JUMPDEST JUMPDEST PUSH1 0x0 PUSH2 0xC84 DUP8 DUP3 DUP9 ADD PUSH2 0xBAC JUMP JUMPDEST SWAP5 POP POP PUSH1 0x20 PUSH2 0xC95 DUP8 DUP3 DUP9 ADD PUSH2 0xBE2 JUMP JUMPDEST SWAP4 POP POP PUSH1 0x40 DUP6 ADD CALLDATALOAD PUSH8 0xFFFFFFFFFFFFFFFF DUP2 GT ISZERO PUSH2 0xCB6 JUMPI PUSH2 0xCB5 PUSH2 0xB86 JUMP JUMPDEST JUMPDEST PUSH2 0xCC2 DUP8 DUP3 DUP9 ADD PUSH2 0xC06 JUMP JUMPDEST SWAP3 POP SWAP3 POP POP SWAP3 SWAP6 SWAP2 SWAP5 POP SWAP3 POP JUMP JUMPDEST PUSH2 0xCD9 DUP2 PUSH2 0xB8B JUMP JUMPDEST DUP3 MSTORE POP POP JUMP JUMPDEST PUSH1 0x0 PUSH1 0x20 DUP3 ADD SWAP1 POP PUSH2 0xCF4 PUSH1 0x0 DUP4 ADD DUP5 PUSH2 0xCD0 JUMP JUMPDEST SWAP3 SWAP2 POP POP JUMP JUMPDEST PUSH1 0x0 PUSH1 0x20 DUP3 DUP5 SUB SLT ISZERO PUSH2 0xD10 JUMPI PUSH2 0xD0F PUSH2 0xB81 JUMP JUMPDEST JUMPDEST PUSH1 0x0 PUSH2 0xD1E DUP5 DUP3 DUP6 ADD PUSH2 0xBAC JUMP JUMPDEST SWAP2 POP POP SWAP3 SWAP2 POP POP JUMP JUMPDEST PUSH1 0x0 DUP2 SWAP1 POP SWAP2 SWAP1 POP JUMP JUMPDEST PUSH2 0xD3A DUP2 PUSH2 0xD27 JUMP JUMPDEST DUP3 MSTORE POP POP JUMP JUMPDEST PUSH1 0x0 PUSH1 0x20 DUP3 ADD SWAP1 POP PUSH2 0xD55 PUSH1 0x0 DUP4 ADD DUP5 PUSH2 0xD31 JUMP JUMPDEST SWAP3 SWAP2 POP POP JUMP JUMPDEST PUSH1 0x0 PUSH8 0xFFFFFFFFFFFFFFFF DUP3 AND SWAP1 POP SWAP2 SWAP1 POP JUMP JUMPDEST PUSH2 0xD78 DUP2 PUSH2 0xD5B JUMP JUMPDEST DUP2 EQ PUSH2 0xD83 JUMPI PUSH1 0x0 DUP1 REVERT JUMPDEST POP JUMP JUMPDEST PUSH1 0x0 DUP2 CALLDATALOAD SWAP1 POP PUSH2 0xD95 DUP2 PUSH2 0xD6F JUMP JUMPDEST SWAP3 SWAP2 POP POP JUMP JUMPDEST PUSH1 0x0 PUSH1 0x20 DUP3 DUP5 SUB SLT ISZERO PUSH2 0xDB1 JUMPI PUSH2 0xDB0 PUSH2 0xB81 JUMP JUMPDEST JUMPDEST PUSH1 0x0 PUSH2 0xDBF DUP5 DUP3 DUP6 ADD PUSH2 0xD86 JUMP JUMPDEST SWAP2 POP POP SWAP3 SWAP2 POP POP JUMP JUMPDEST PUSH1 0x0 DUP2 ISZERO ISZERO SWAP1 POP SWAP2 SWAP1 POP JUMP JUMPDEST PUSH2 0xDDD DUP2 PUSH2 0xDC8 JUMP JUMPDEST DUP3 MSTORE POP POP JUMP JUMPDEST PUSH1 0x0 PUSH1 0x20 DUP3 ADD SWAP1 POP PUSH2 0xDF8 PUSH1 0x0 DUP4 ADD DUP5 PUSH2 0xDD4 JUMP JUMPDEST SWAP3 SWAP2 POP POP JUMP JUMPDEST PUSH1 0x0 PUSH20 0xFFFFFFFFFFFFFFFFFFFFFFFFFFFFFFFFFFFFFFFF DUP3 AND SWAP1 POP SWAP2 SWAP1 POP JUMP JUMPDEST PUSH1 0x0 PUSH2 0xE29 DUP3 PUSH2 0xDFE JUMP JUMPDEST SWAP1 POP SWAP2 SWAP1 POP JUMP JUMPDEST PUSH1 0x0 DUP2 PUSH1 0x60 SHL SWAP1 POP SWAP2 SWAP1 POP JUMP JUMPDEST PUSH1 0x0 PUSH2 0xE48 DUP3 PUSH2 0xE30 JUMP JUMPDEST SWAP1 POP SWAP2 SWAP1 POP JUMP JUMPDEST PUSH1 0x0 PUSH2 0xE5A DUP3 PUSH2 0xE3D JUMP JUMPDEST SWAP1 POP SWAP2 SWAP1 POP JUMP JUMPDEST PUSH2 0xE72 PUSH2 0xE6D DUP3 PUSH2 0xE1E JUMP JUMPDEST PUSH2 0xE4F JUMP JUMPDEST DUP3 MSTORE POP POP JUMP JUMPDEST PUSH1 0x0 DUP2 SWAP1 POP SWAP2 SWAP1 POP JUMP JUMPDEST PUSH2 0xE93 PUSH2 0xE8E DUP3 PUSH2 0xBC1 JUMP JUMPDEST PUSH2 0xE78 JUMP JUMPDEST DUP3 MSTORE POP POP JUMP JUMPDEST PUSH1 0x0 PUSH2 0xEA5 DUP3 DUP6 PUSH2 0xE61 JUMP JUMPDEST PUSH1 0x14 DUP3 ADD SWAP2 POP PUSH2 0xEB5 DUP3 DUP5 PUSH2 0xE82 JUMP JUMPDEST PUSH1 0x20 DUP3 ADD SWAP2 POP DUP2 SWAP1 POP SWAP4 SWAP3 POP POP POP JUMP JUMPDEST PUSH1 0x0 DUP2 SWAP1 POP SWAP2 SWAP1 POP JUMP JUMPDEST PUSH2 0xEE0 PUSH2 0xEDB DUP3 PUSH2 0xB8B JUMP JUMPDEST PUSH2 0xEC5 JUMP JUMPDEST DUP3 MSTORE POP POP JUMP JUMPDEST PUSH1 0x0 PUSH2 0xEF2 DUP3 DUP6 PUSH2 0xE61 JUMP JUMPDEST PUSH1 0x14 DUP3 ADD SWAP2 POP PUSH2 0xF02 DUP3 DUP5 PUSH2 0xECF JUMP JUMPDEST PUSH1 0x20 DUP3 ADD SWAP2 POP DUP2 SWAP1 POP SWAP4 SWAP3 POP POP POP JUMP JUMPDEST PUSH1 0x0 DUP3 DUP3 MSTORE PUSH1 0x20 DUP3 ADD SWAP1 POP SWAP3 SWAP2 POP POP JUMP JUMPDEST PUSH32 0x416C7265616479207265706F7274656420627920757365722100000000000000 PUSH1 0x0 DUP3 ADD MSTORE POP JUMP JUMPDEST PUSH1 0x0 PUSH2 0xF59 PUSH1 0x19 DUP4 PUSH2 0xF12 JUMP JUMPDEST SWAP2 POP PUSH2 0xF64 DUP3 PUSH2 0xF23 JUMP JUMPDEST PUSH1 0x20 DUP3 ADD SWAP1 POP SWAP2 SWAP1 POP JUMP JUMPDEST PUSH1 0x0 PUSH1 0x20 DUP3 ADD SWAP1 POP DUP2 DUP2 SUB PUSH1 0x0 DUP4 ADD MSTORE PUSH2 0xF88 DUP2 PUSH2 0xF4C JUMP JUMPDEST SWAP1 POP SWAP2 SWAP1 POP JUMP JUMPDEST PUSH1 0x0 PUSH2 0xF9B DUP3 DUP5 PUSH2 0xE61 JUMP JUMPDEST PUSH1 0x14 DUP3 ADD SWAP2 POP DUP2 SWAP1 POP SWAP3 SWAP2 POP POP JUMP JUMPDEST PUSH32 0x4E487B7100000000000000000000000000000000000000000000000000000000 PUSH1 0x0 MSTORE PUSH1 0x11 PUSH1 0x4 MSTORE PUSH1 0x24 PUSH1 0x0 REVERT JUMPDEST PUSH1 0x0 PUSH2 0xFE4 DUP3 PUSH2 0xD27 JUMP JUMPDEST SWAP2 POP PUSH32 0x8000000000000000000000000000000000000000000000000000000000000000 DUP3 EQ ISZERO PUSH2 0x1017 JUMPI PUSH2 0x1016 PUSH2 0xFAA JUMP JUMPDEST JUMPDEST DUP2 PUSH1 0x0 SUB SWAP1 POP SWAP2 SWAP1 POP JUMP JUMPDEST PUSH2 0x102B DUP2 PUSH2 0xBC1 JUMP JUMPDEST DUP3 MSTORE POP POP JUMP JUMPDEST PUSH1 0x0 PUSH1 0x40 DUP3 ADD SWAP1 POP PUSH2 0x1046 PUSH1 0x0 DUP4 ADD DUP6 PUSH2 0xCD0 JUMP JUMPDEST PUSH2 0x1053 PUSH1 0x20 DUP4 ADD DUP5 PUSH2 0x1022 JUMP JUMPDEST SWAP4 SWAP3 POP POP POP JUMP JUMPDEST PUSH1 0x0 PUSH2 0x1065 DUP3 PUSH2 0xBC1 JUMP JUMPDEST SWAP2 POP PUSH2 0x1070 DUP4 PUSH2 0xBC1 JUMP JUMPDEST SWAP3 POP DUP3 DUP3 LT ISZERO PUSH2 0x1083 JUMPI PUSH2 0x1082 PUSH2 0xFAA JUMP JUMPDEST JUMPDEST DUP3 DUP3 SUB SWAP1 POP SWAP3 SWAP2 POP POP JUMP JUMPDEST PUSH1 0x0 DUP2 PUSH1 0x1 SHR SWAP1 POP SWAP2 SWAP1 POP JUMP JUMPDEST PUSH1 0x0 DUP1 DUP3 SWAP2 POP DUP4 SWAP1 POP JUMPDEST PUSH1 0x1 DUP6 GT ISZERO PUSH2 0x10E5 JUMPI DUP1 DUP7 DIV DUP2 GT ISZERO PUSH2 0x10C1 JUMPI PUSH2 0x10C0 PUSH2 0xFAA JUMP JUMPDEST JUMPDEST PUSH1 0x1 DUP6 AND ISZERO PUSH2 0x10D0 JUMPI DUP1 DUP3 MUL SWAP2 POP JUMPDEST DUP1 DUP2 MUL SWAP1 POP PUSH2 0x10DE DUP6 PUSH2 0x108E JUMP JUMPDEST SWAP5 POP PUSH2 0x10A5 JUMP JUMPDEST SWAP5 POP SWAP5 SWAP3 POP POP POP JUMP JUMPDEST PUSH1 0x0 DUP3 PUSH2 0x10FE JUMPI PUSH1 0x1 SWAP1 POP PUSH2 0x11BA JUMP JUMPDEST DUP2 PUSH2 0x110C JUMPI PUSH1 0x0 SWAP1 POP PUSH2 0x11BA JUMP JUMPDEST DUP2 PUSH1 0x1 DUP2 EQ PUSH2 0x1122 JUMPI PUSH1 0x2 DUP2 EQ PUSH2 0x112C JUMPI PUSH2 0x115B JUMP JUMPDEST PUSH1 0x1 SWAP2 POP POP PUSH2 0x11BA JUMP JUMPDEST PUSH1 0xFF DUP5 GT ISZERO PUSH2 0x113E JUMPI PUSH2 0x113D PUSH2 0xFAA JUMP JUMPDEST JUMPDEST DUP4 PUSH1 0x2 EXP SWAP2 POP DUP5 DUP3 GT ISZERO PUSH2 0x1155 JUMPI PUSH2 0x1154 PUSH2 0xFAA JUMP JUMPDEST JUMPDEST POP PUSH2 0x11BA JUMP JUMPDEST POP PUSH1 0x20 DUP4 LT PUSH2 0x133 DUP4 LT AND PUSH1 0x4E DUP5 LT PUSH1 0xB DUP5 LT AND OR ISZERO PUSH2 0x1190 JUMPI DUP3 DUP3 EXP SWAP1 POP DUP4 DUP2 GT ISZERO PUSH2 0x118B JUMPI PUSH2 0x118A PUSH2 0xFAA JUMP JUMPDEST JUMPDEST PUSH2 0x11BA JUMP JUMPDEST PUSH2 0x119D DUP5 DUP5 DUP5 PUSH1 0x1 PUSH2 0x109B JUMP JUMPDEST SWAP3 POP SWAP1 POP DUP2 DUP5 DIV DUP2 GT ISZERO PUSH2 0x11B4 JUMPI PUSH2 0x11B3 PUSH2 0xFAA JUMP JUMPDEST JUMPDEST DUP2 DUP2 MUL SWAP1 POP JUMPDEST SWAP4 SWAP3 POP POP POP JUMP JUMPDEST PUSH1 0x0 PUSH1 0xFF DUP3 AND SWAP1 POP SWAP2 SWAP1 POP JUMP JUMPDEST PUSH1 0x0 PUSH2 0x11D9 DUP3 PUSH2 0xBC1 JUMP JUMPDEST SWAP2 POP PUSH2 0x11E4 DUP4 PUSH2 0x11C1 JUMP JUMPDEST SWAP3 POP PUSH2 0x1211 PUSH32 0xFFFFFFFFFFFFFFFFFFFFFFFFFFFFFFFFFFFFFFFFFFFFFFFFFFFFFFFFFFFFFFFF DUP5 DUP5 PUSH2 0x10EE JUMP JUMPDEST SWAP1 POP SWAP3 SWAP2 POP POP JUMP JUMPDEST PUSH1 0x0 PUSH2 0x1224 DUP3 PUSH2 0xBC1 JUMP JUMPDEST SWAP2 POP PUSH2 0x122F DUP4 PUSH2 0xBC1 JUMP JUMPDEST SWAP3 POP DUP2 PUSH32 0xFFFFFFFFFFFFFFFFFFFFFFFFFFFFFFFFFFFFFFFFFFFFFFFFFFFFFFFFFFFFFFFF DIV DUP4 GT DUP3 ISZERO ISZERO AND ISZERO PUSH2 0x1268 JUMPI PUSH2 0x1267 PUSH2 0xFAA JUMP JUMPDEST JUMPDEST DUP3 DUP3 MUL SWAP1 POP SWAP3 SWAP2 POP POP JUMP JUMPDEST PUSH32 0x4E487B7100000000000000000000000000000000000000000000000000000000 PUSH1 0x0 MSTORE PUSH1 0x12 PUSH1 0x4 MSTORE PUSH1 0x24 PUSH1 0x0 REVERT JUMPDEST PUSH1 0x0 PUSH2 0x12AD DUP3 PUSH2 0xBC1 JUMP JUMPDEST SWAP2 POP PUSH2 0x12B8 DUP4 PUSH2 0xBC1 JUMP JUMPDEST SWAP3 POP DUP3 PUSH2 0x12C8 JUMPI PUSH2 0x12C7 PUSH2 0x1273 JUMP JUMPDEST JUMPDEST DUP3 DUP3 DIV SWAP1 POP SWAP3 SWAP2 POP POP JUMP JUMPDEST PUSH1 0x0 PUSH2 0x12DE DUP3 PUSH2 0xBC1 JUMP JUMPDEST SWAP2 POP PUSH2 0x12E9 DUP4 PUSH2 0xBC1 JUMP JUMPDEST SWAP3 POP DUP3 PUSH32 0xFFFFFFFFFFFFFFFFFFFFFFFFFFFFFFFFFFFFFFFFFFFFFFFFFFFFFFFFFFFFFFFF SUB DUP3 GT ISZERO PUSH2 0x131E JUMPI PUSH2 0x131D PUSH2 0xFAA JUMP JUMPDEST JUMPDEST DUP3 DUP3 ADD SWAP1 POP SWAP3 SWAP2 POP POP JUMP JUMPDEST PUSH1 0x0 PUSH2 0x1334 DUP3 PUSH2 0xD27 JUMP JUMPDEST SWAP2 POP PUSH2 0x133F DUP4 PUSH2 0xD27 JUMP JUMPDEST SWAP3 POP DUP3 PUSH32 0x7FFFFFFFFFFFFFFFFFFFFFFFFFFFFFFFFFFFFFFFFFFFFFFFFFFFFFFFFFFFFFFF DIV DUP3 GT PUSH1 0x0 DUP5 SGT PUSH1 0x0 DUP5 SGT AND AND ISZERO PUSH2 0x137E JUMPI PUSH2 0x137D PUSH2 0xFAA JUMP JUMPDEST JUMPDEST DUP2 PUSH32 0x8000000000000000000000000000000000000000000000000000000000000000 SDIV DUP4 SLT PUSH1 0x0 DUP5 SLT PUSH1 0x0 DUP5 SGT AND AND ISZERO PUSH2 0x13BB JUMPI PUSH2 0x13BA PUSH2 0xFAA JUMP JUMPDEST JUMPDEST DUP3 PUSH32 0x8000000000000000000000000000000000000000000000000000000000000000 SDIV DUP3 SLT PUSH1 0x0 DUP5 SGT PUSH1 0x0 DUP5 SLT AND AND ISZERO PUSH2 0x13F8 JUMPI PUSH2 0x13F7 PUSH2 0xFAA JUMP JUMPDEST JUMPDEST DUP3 PUSH32 0x7FFFFFFFFFFFFFFFFFFFFFFFFFFFFFFFFFFFFFFFFFFFFFFFFFFFFFFFFFFFFFFF SDIV DUP3 SLT PUSH1 0x0 DUP5 SLT PUSH1 0x0 DUP5 SLT AND AND ISZERO PUSH2 0x1435 JUMPI PUSH2 0x1434 PUSH2 0xFAA JUMP JUMPDEST JUMPDEST DUP3 DUP3 MUL SWAP1 POP SWAP3 SWAP2 POP POP JUMP JUMPDEST PUSH1 0x0 PUSH2 0x144B DUP3 PUSH2 0xD27 JUMP JUMPDEST SWAP2 POP PUSH2 0x1456 DUP4 PUSH2 0xD27 JUMP JUMPDEST SWAP3 POP DUP2 PUSH32 0x7FFFFFFFFFFFFFFFFFFFFFFFFFFFFFFFFFFFFFFFFFFFFFFFFFFFFFFFFFFFFFFF SUB DUP4 SGT PUSH1 0x0 DUP4 SLT ISZERO AND ISZERO PUSH2 0x1491 JUMPI PUSH2 0x1490 PUSH2 0xFAA JUMP JUMPDEST JUMPDEST DUP2 PUSH32 0x8000000000000000000000000000000000000000000000000000000000000000 SUB DUP4 SLT PUSH1 0x0 DUP4 SLT AND ISZERO PUSH2 0x14C9 JUMPI PUSH2 0x14C8 PUSH2 0xFAA JUMP JUMPDEST JUMPDEST DUP3 DUP3 ADD SWAP1 POP SWAP3 SWAP2 POP POP JUMP JUMPDEST PUSH1 0x0 PUSH2 0x14DF DUP3 PUSH2 0xD27 JUMP JUMPDEST SWAP2 POP PUSH2 0x14EA DUP4 PUSH2 0xD27 JUMP JUMPDEST SWAP3 POP DUP3 PUSH2 0x14FA JUMPI PUSH2 0x14F9 PUSH2 0x1273 JUMP JUMPDEST JUMPDEST PUSH1 0x1 PUSH1 0x0 SUB DUP4 EQ PUSH32 0x8000000000000000000000000000000000000000000000000000000000000000 DUP4 EQ AND ISZERO PUSH2 0x1533 JUMPI PUSH2 0x1532 PUSH2 0xFAA JUMP JUMPDEST JUMPDEST DUP3 DUP3 SDIV SWAP1 POP SWAP3 SWAP2 POP POP JUMP JUMPDEST PUSH1 0x0 DUP2 MLOAD SWAP1 POP SWAP2 SWAP1 POP JUMP JUMPDEST PUSH1 0x0 JUMPDEST DUP4 DUP2 LT ISZERO PUSH2 0x1567 JUMPI DUP1 DUP3 ADD MLOAD DUP2 DUP5 ADD MSTORE PUSH1 0x20 DUP2 ADD SWAP1 POP PUSH2 0x154C JUMP JUMPDEST DUP4 DUP2 GT ISZERO PUSH2 0x1576 JUMPI PUSH1 0x0 DUP5 DUP5 ADD MSTORE JUMPDEST POP POP POP POP JUMP JUMPDEST PUSH1 0x0 PUSH1 0x1F NOT PUSH1 0x1F DUP4 ADD AND SWAP1 POP SWAP2 SWAP1 POP JUMP JUMPDEST PUSH1 0x0 PUSH2 0x1598 DUP3 PUSH2 0x153E JUMP JUMPDEST PUSH2 0x15A2 DUP2 DUP6 PUSH2 0xF12 JUMP JUMPDEST SWAP4 POP PUSH2 0x15B2 DUP2 DUP6 PUSH1 0x20 DUP7 ADD PUSH2 0x1549 JUMP JUMPDEST PUSH2 0x15BB DUP2 PUSH2 0x157C JUMP JUMPDEST DUP5 ADD SWAP2 POP POP SWAP3 SWAP2 POP POP JUMP JUMPDEST PUSH1 0x0 PUSH1 0x20 DUP3 ADD SWAP1 POP DUP2 DUP2 SUB PUSH1 0x0 DUP4 ADD MSTORE PUSH2 0x15E0 DUP2 DUP5 PUSH2 0x158D JUMP JUMPDEST SWAP1 POP SWAP3 SWAP2 POP POP JUMP JUMPDEST PUSH1 0x0 PUSH1 0x40 DUP3 ADD SWAP1 POP DUP2 DUP2 SUB PUSH1 0x0 DUP4 ADD MSTORE PUSH2 0x1602 DUP2 DUP6 PUSH2 0x158D JUMP JUMPDEST SWAP1 POP PUSH2 0x1611 PUSH1 0x20 DUP4 ADD DUP5 PUSH2 0x1022 JUMP JUMPDEST SWAP4 SWAP3 POP POP POP JUMP JUMPDEST PUSH32 0x4861736820636F756E742063616E206E6F74206265207A65726F000000000000 PUSH1 0x0 DUP3 ADD MSTORE POP JUMP JUMPDEST PUSH1 0x0 PUSH2 0x164E PUSH1 0x1A DUP4 PUSH2 0xF12 JUMP JUMPDEST SWAP2 POP PUSH2 0x1659 DUP3 PUSH2 0x1618 JUMP JUMPDEST PUSH1 0x20 DUP3 ADD SWAP1 POP SWAP2 SWAP1 POP JUMP JUMPDEST PUSH1 0x0 PUSH1 0x20 DUP3 ADD SWAP1 POP DUP2 DUP2 SUB PUSH1 0x0 DUP4 ADD MSTORE PUSH2 0x167D DUP2 PUSH2 0x1641 JUMP JUMPDEST SWAP1 POP SWAP2 SWAP1 POP JUMP JUMPDEST PUSH1 0x0 PUSH2 0x1690 DUP3 DUP6 PUSH2 0xECF JUMP JUMPDEST PUSH1 0x20 DUP3 ADD SWAP2 POP PUSH2 0x16A0 DUP3 DUP5 PUSH2 0xE82 JUMP JUMPDEST PUSH1 0x20 DUP3 ADD SWAP2 POP DUP2 SWAP1 POP SWAP4 SWAP3 POP POP POP JUMP JUMPDEST PUSH1 0x0 PUSH2 0x16BB DUP3 PUSH2 0xBC1 JUMP JUMPDEST SWAP2 POP PUSH2 0x16C6 DUP4 PUSH2 0xBC1 JUMP JUMPDEST SWAP3 POP DUP3 PUSH2 0x16D6 JUMPI PUSH2 0x16D5 PUSH2 0x1273 JUMP JUMPDEST JUMPDEST DUP3 DUP3 MOD SWAP1 POP SWAP3 SWAP2 POP POP JUMP JUMPDEST PUSH32 0x4F766572666C6F77206572726F72000000000000000000000000000000000000 PUSH1 0x0 DUP3 ADD MSTORE POP JUMP JUMPDEST PUSH1 0x0 PUSH2 0x1717 PUSH1 0xE DUP4 PUSH2 0xF12 JUMP JUMPDEST SWAP2 POP PUSH2 0x1722 DUP3 PUSH2 0x16E1 JUMP JUMPDEST PUSH1 0x20 DUP3 ADD SWAP1 POP SWAP2 SWAP1 POP JUMP JUMPDEST PUSH1 0x0 PUSH1 0x20 DUP3 ADD SWAP1 POP DUP2 DUP2 SUB PUSH1 0x0 DUP4 ADD MSTORE PUSH2 0x1746 DUP2 PUSH2 0x170A JUMP JUMPDEST SWAP1 POP SWAP2 SWAP1 POP JUMP JUMPDEST PUSH1 0x0 PUSH2 0x1758 DUP3 PUSH2 0xBC1 JUMP JUMPDEST SWAP2 POP PUSH32 0xFFFFFFFFFFFFFFFFFFFFFFFFFFFFFFFFFFFFFFFFFFFFFFFFFFFFFFFFFFFFFFFF DUP3 EQ ISZERO PUSH2 0x178B JUMPI PUSH2 0x178A PUSH2 0xFAA JUMP JUMPDEST JUMPDEST PUSH1 0x1 DUP3 ADD SWAP1 POP SWAP2 SWAP1 POP JUMP JUMPDEST PUSH32 0x4E487B7100000000000000000000000000000000000000000000000000000000 PUSH1 0x0 MSTORE PUSH1 0x22 PUSH1 0x4 MSTORE PUSH1 0x24 PUSH1 0x0 REVERT JUMPDEST PUSH1 0x0 PUSH1 0x2 DUP3 DIV SWAP1 POP PUSH1 0x1 DUP3 AND DUP1 PUSH2 0x17DD JUMPI PUSH1 0x7F DUP3 AND SWAP2 POP JUMPDEST PUSH1 0x20 DUP3 LT DUP2 EQ ISZERO PUSH2 0x17F1 JUMPI PUSH2 0x17F0 PUSH2 0x1796 JUMP JUMPDEST JUMPDEST POP SWAP2 SWAP1 POP JUMP INVALID LOG2 PUSH5 0x6970667358 0x22 SLT KECCAK256 PUSH1 0x93 0xC5 0xCC 0xEE DUP5 0xEA 0xDE SWAP16 SWAP7 DUP4 JUMP DUP11 PUSH4 0xCDB37893 STOP 0x4E 0xAC 0xB2 0xEE 0xF 0xCF GASPRICE PUSH17 0x6AC05058A764736F6C6343000809003300 "},"methodIdentifiers":{"getReputation(bytes32)":"d14519d2","report(bytes32,uint256,string)":"addfa182","setReporterRateLimit(uint64)":"d99a3927"}}}}}