{"contracts/implementation/CreepzIdManager.sol":{"CreepzIdManager":{"abi":[{"inputs":[],"stateMutability":"nonpayable","type":"constructor"},{"inputs":[],"name":"ReporterRateLimitExceeded","type":"error"},{"anonymous":false,"inputs":[{"indexed":false,"internalType":"bytes32","name":"against","type":"bytes32"},{"indexed":false,"internalType":"uint256","name":"severity","type":"uint256"}],"name":"NewReport","type":"event"},{"inputs":[{"internalType":"bytes32","name":"identifier","type":"bytes32"}],"name":"getReputation","outputs":[{"internalType":"int256","name":"score","type":"int256"}],"stateMutability":"view","type":"function"},{"inputs":[{"internalType":"bytes32","name":"id","type":"bytes32"},{"internalType":"uint256","name":"severity","type":"uint256"},{"internalType":"string","name":"metadataCID","type":"string"}],"name":"report","outputs":[{"internalType":"bytes32","name":"newReportId","type":"bytes32"}],"stateMutability":"nonpayable","type":"function"},{"inputs":[{"internalType":"uint64","name":"aRate","type":"uint64"}],"name":"setReporterRateLimit","outputs":[{"internalType":"bool","name":"result","type":"bool"}],"stateMutability":"nonpayable","type":"function"}],"evm":{"bytecode":{"linkReferences":{},"object":"60806040523480156200001157600080fd5b506200002864174876e8006200002e60201b60201c565b6200022c565b620000498160006200004c60201b6200034b1790919060201c565b50565b6200005d816200007d60201b60201c565b8260010160006101000a81548160ff021916908360ff1602179055505050565b600080600160648462000091919062000107565b619000620000a0919062000197565b620000ac9190620001cf565b9050610100811015620000c35780915050620000c9565b60ff9150505b919050565b6000819050919050565b7f4e487b7100000000000000000000000000000000000000000000000000000000600052601160045260246000fd5b60006200011482620000ce565b91506200012183620000ce565b9250817fffffffffffffffffffffffffffffffffffffffffffffffffffffffffffffffff04831182151516156200015d576200015c620000d8565b5b828202905092915050565b7f4e487b7100000000000000000000000000000000000000000000000000000000600052601260045260246000fd5b6000620001a482620000ce565b9150620001b183620000ce565b925082620001c457620001c362000168565b5b828204905092915050565b6000620001dc82620000ce565b9150620001e983620000ce565b9250827fffffffffffffffffffffffffffffffffffffffffffffffffffffffffffffffff03821115620002215762000220620000d8565b5b828201905092915050565b6114b1806200023c6000396000f3fe608060405234801561001057600080fd5b50600436106100415760003560e01c8063addfa18214610046578063d14519d214610076578063d99a3927146100a6575b600080fd5b610060600480360381019061005b91906109ba565b6100d6565b60405161006d9190610a3d565b60405180910390f35b610090600480360381019061008b9190610a58565b610324565b60405161009d9190610a9e565b60405180910390f35b6100c060048036038101906100bb9190610af9565b610344565b6040516100cd9190610b41565b60405180910390f35b60006100e0610374565b61011d3360016040516020016100f7929190610bf7565b60405160208183030381529060405280519060200120600061046c90919063ffffffff16565b15610154576040517f9689cb0f00000000000000000000000000000000000000000000000000000000815260040160405180910390fd5b60003386604051602001610169929190610c44565b6040516020818303038152906040528051906020012090506000801b6004600083815260200190815260200160002060000154146101dc576040517f08c379a00000000000000000000000000000000000000000000000000000000081526004016101d390610ccd565b60405180910390fd5b604051806080016040528082815260200187815260200186815260200185858080601f016020809104026020016040519081016040528093929190818152602001838380828437600081840152601f19601f8201169050808301925050505050505081525060046000838152602001908152602001600020600082015181600001556020820151816001015560408201518160020155606082015181600301908051906020019061028e92919061083c565b5090505060006102a386600160146008610496565b90506102de336040516020016102b99190610ced565b60405160208183030381529060405280519060200120826102d990610d37565b6104e6565b7f1471883da0c9e2a8e7d5284477ff356083fc400504747a5d4110bda87bd9a7d2878760405161030f929190610d8f565b60405180910390a18192505050949350505050565b600060056000838152602001908152602001600020600001549050919050565b6000919050565b610354816105ac565b8260010160006101000a81548160ff021916908360ff1602179055505050565b6000336040516020016103879190610ced565b604051602081830303815290604052805190602001209050600060026000838152602001908152602001600020549050600060036000848152602001908152602001600020549050600081426103dd9190610db8565b9050828110610428576104233360006040516020016103fd929190610bf7565b6040516020818303038152906040528051906020012060006105f590919063ffffffff16565b610466565b61046533600160405160200161043f929190610bf7565b6040516020818303038152906040528051906020012060006105f590919063ffffffff16565b5b50505050565b600061048e83600001548460010160009054906101000a900460ff1684610621565b905092915050565b60008084846104a59190610db8565b905060008184600a6104b79190610f2c565b87896104c39190610db8565b6104cd9190610f77565b6104d79190611000565b90508092505050949350505050565b600060056000848152602001908152602001600020600001549050600060056000858152602001908152602001600020600101549050600060018261052b9190611031565b600485848661053a9190611087565b610544919061119e565b61054e919061119e565b6105589190611232565b905060405180604001604052808281526020016001846105789190611031565b8152506005600087815260200190815260200160002060008201518160000155602082015181600101559050505050505050565b60008060016064846105be9190610f77565b6190006105cb9190611000565b6105d59190611031565b90506101008110156105ea57809150506105f0565b60ff9150505b919050565b61061582600001548360010160009054906101000a900460ff1683610737565b82600001819055505050565b6000808360ff1611610668576040517f08c379a000000000000000000000000000000000000000000000000000000000815260040161065f906112e8565b60405180910390fd5b60005b8360ff1681101561072a576000610100848360405160200161068e929190611308565b6040516020818303038152906040528051906020012060001c6106b19190611334565b905061010081106106f7576040517f08c379a00000000000000000000000000000000000000000000000000000000081526004016106ee906113b1565b60405180910390fd5b6000816001901b905080871787146107155760009350505050610730565b50508080610722906113d1565b91505061066b565b50600190505b9392505050565b600083905060008360ff1611610782576040517f08c379a0000000000000000000000000000000000000000000000000000000008152600401610779906112e8565b60405180910390fd5b60005b8360ff1681101561083457600061010084836040516020016107a8929190611308565b6040516020818303038152906040528051906020012060001c6107cb9190611334565b90506101008110610811576040517f08c379a0000000000000000000000000000000000000000000000000000000008152600401610808906113b1565b60405180910390fd5b6000816001901b905080841793505050808061082c906113d1565b915050610785565b509392505050565b82805461084890611449565b90600052602060002090601f01602090048101928261086a57600085556108b1565b82601f1061088357805160ff19168380011785556108b1565b828001600101855582156108b1579182015b828111156108b0578251825591602001919060010190610895565b5b5090506108be91906108c2565b5090565b5b808211156108db5760008160009055506001016108c3565b5090565b600080fd5b600080fd5b6000819050919050565b6108fc816108e9565b811461090757600080fd5b50565b600081359050610919816108f3565b92915050565b6000819050919050565b6109328161091f565b811461093d57600080fd5b50565b60008135905061094f81610929565b92915050565b600080fd5b600080fd5b600080fd5b60008083601f84011261097a57610979610955565b5b8235905067ffffffffffffffff8111156109975761099661095a565b5b6020830191508360018202830111156109b3576109b261095f565b5b9250929050565b600080600080606085870312156109d4576109d36108df565b5b60006109e28782880161090a565b94505060206109f387828801610940565b935050604085013567ffffffffffffffff811115610a1457610a136108e4565b5b610a2087828801610964565b925092505092959194509250565b610a37816108e9565b82525050565b6000602082019050610a526000830184610a2e565b92915050565b600060208284031215610a6e57610a6d6108df565b5b6000610a7c8482850161090a565b91505092915050565b6000819050919050565b610a9881610a85565b82525050565b6000602082019050610ab36000830184610a8f565b92915050565b600067ffffffffffffffff82169050919050565b610ad681610ab9565b8114610ae157600080fd5b50565b600081359050610af381610acd565b92915050565b600060208284031215610b0f57610b0e6108df565b5b6000610b1d84828501610ae4565b91505092915050565b60008115159050919050565b610b3b81610b26565b82525050565b6000602082019050610b566000830184610b32565b92915050565b600073ffffffffffffffffffffffffffffffffffffffff82169050919050565b6000610b8782610b5c565b9050919050565b60008160601b9050919050565b6000610ba682610b8e565b9050919050565b6000610bb882610b9b565b9050919050565b610bd0610bcb82610b7c565b610bad565b82525050565b6000819050919050565b610bf1610bec8261091f565b610bd6565b82525050565b6000610c038285610bbf565b601482019150610c138284610be0565b6020820191508190509392505050565b6000819050919050565b610c3e610c39826108e9565b610c23565b82525050565b6000610c508285610bbf565b601482019150610c608284610c2d565b6020820191508190509392505050565b600082825260208201905092915050565b7f416c7265616479207265706f7274656420627920757365722100000000000000600082015250565b6000610cb7601983610c70565b9150610cc282610c81565b602082019050919050565b60006020820190508181036000830152610ce681610caa565b9050919050565b6000610cf98284610bbf565b60148201915081905092915050565b7f4e487b7100000000000000000000000000000000000000000000000000000000600052601160045260246000fd5b6000610d4282610a85565b91507f8000000000000000000000000000000000000000000000000000000000000000821415610d7557610d74610d08565b5b816000039050919050565b610d898161091f565b82525050565b6000604082019050610da46000830185610a2e565b610db16020830184610d80565b9392505050565b6000610dc38261091f565b9150610dce8361091f565b925082821015610de157610de0610d08565b5b828203905092915050565b60008160011c9050919050565b6000808291508390505b6001851115610e4357808604811115610e1f57610e1e610d08565b5b6001851615610e2e5780820291505b8081029050610e3c85610dec565b9450610e03565b94509492505050565b600082610e5c5760019050610f18565b81610e6a5760009050610f18565b8160018114610e805760028114610e8a57610eb9565b6001915050610f18565b60ff841115610e9c57610e9b610d08565b5b8360020a915084821115610eb357610eb2610d08565b5b50610f18565b5060208310610133831016604e8410600b8410161715610eee5782820a905083811115610ee957610ee8610d08565b5b610f18565b610efb8484846001610df9565b92509050818404811115610f1257610f11610d08565b5b81810290505b9392505050565b600060ff82169050919050565b6000610f378261091f565b9150610f4283610f1f565b9250610f6f7fffffffffffffffffffffffffffffffffffffffffffffffffffffffffffffffff8484610e4c565b905092915050565b6000610f828261091f565b9150610f8d8361091f565b9250817fffffffffffffffffffffffffffffffffffffffffffffffffffffffffffffffff0483118215151615610fc657610fc5610d08565b5b828202905092915050565b7f4e487b7100000000000000000000000000000000000000000000000000000000600052601260045260246000fd5b600061100b8261091f565b91506110168361091f565b92508261102657611025610fd1565b5b828204905092915050565b600061103c8261091f565b91506110478361091f565b9250827fffffffffffffffffffffffffffffffffffffffffffffffffffffffffffffffff0382111561107c5761107b610d08565b5b828201905092915050565b600061109282610a85565b915061109d83610a85565b9250827f7fffffffffffffffffffffffffffffffffffffffffffffffffffffffffffffff04821160008413600084131616156110dc576110db610d08565b5b817f8000000000000000000000000000000000000000000000000000000000000000058312600084126000841316161561111957611118610d08565b5b827f8000000000000000000000000000000000000000000000000000000000000000058212600084136000841216161561115657611155610d08565b5b827f7fffffffffffffffffffffffffffffffffffffffffffffffffffffffffffffff058212600084126000841216161561119357611192610d08565b5b828202905092915050565b60006111a982610a85565b91506111b483610a85565b9250817f7fffffffffffffffffffffffffffffffffffffffffffffffffffffffffffffff038313600083121516156111ef576111ee610d08565b5b817f800000000000000000000000000000000000000000000000000000000000000003831260008312161561122757611226610d08565b5b828201905092915050565b600061123d82610a85565b915061124883610a85565b92508261125857611257610fd1565b5b600160000383147f80000000000000000000000000000000000000000000000000000000000000008314161561129157611290610d08565b5b828205905092915050565b7f4861736820636f756e742063616e206e6f74206265207a65726f000000000000600082015250565b60006112d2601a83610c70565b91506112dd8261129c565b602082019050919050565b60006020820190508181036000830152611301816112c5565b9050919050565b60006113148285610c2d565b6020820191506113248284610be0565b6020820191508190509392505050565b600061133f8261091f565b915061134a8361091f565b92508261135a57611359610fd1565b5b828206905092915050565b7f4f766572666c6f77206572726f72000000000000000000000000000000000000600082015250565b600061139b600e83610c70565b91506113a682611365565b602082019050919050565b600060208201905081810360008301526113ca8161138e565b9050919050565b60006113dc8261091f565b91507fffffffffffffffffffffffffffffffffffffffffffffffffffffffffffffffff82141561140f5761140e610d08565b5b600182019050919050565b7f4e487b7100000000000000000000000000000000000000000000000000000000600052602260045260246000fd5b6000600282049050600182168061146157607f821691505b602082108114156114755761147461141a565b5b5091905056fea2646970667358221220b3d3e3c78b0e1db818261e495e02e8b34700fa2b57503daabdb8f14b7efb34ce64736f6c63430008090033","opcodes":"PUSH1 0x80 PUSH1 0x40 MSTORE CALLVALUE DUP1 ISZERO PUSH3 0x11 JUMPI PUSH1 0x0 DUP1 REVERT JUMPDEST POP PUSH3 0x28 PUSH5 0x174876E800 PUSH3 0x2E PUSH1 0x20 SHL PUSH1 0x20 SHR JUMP JUMPDEST PUSH3 0x22C JUMP JUMPDEST PUSH3 0x49 DUP2 PUSH1 0x0 PUSH3 0x4C PUSH1 0x20 SHL PUSH3 0x34B OR SWAP1 SWAP2 SWAP1 PUSH1 0x20 SHR JUMP JUMPDEST POP JUMP JUMPDEST PUSH3 0x5D DUP2 PUSH3 0x7D PUSH1 0x20 SHL PUSH1 0x20 SHR JUMP JUMPDEST DUP3 PUSH1 0x1 ADD PUSH1 0x0 PUSH2 0x100 EXP DUP2 SLOAD DUP2 PUSH1 0xFF MUL NOT AND SWAP1 DUP4 PUSH1 0xFF AND MUL OR SWAP1 SSTORE POP POP POP JUMP JUMPDEST PUSH1 0x0 DUP1 PUSH1 0x1 PUSH1 0x64 DUP5 PUSH3 0x91 SWAP2 SWAP1 PUSH3 0x107 JUMP JUMPDEST PUSH2 0x9000 PUSH3 0xA0 SWAP2 SWAP1 PUSH3 0x197 JUMP JUMPDEST PUSH3 0xAC SWAP2 SWAP1 PUSH3 0x1CF JUMP JUMPDEST SWAP1 POP PUSH2 0x100 DUP2 LT ISZERO PUSH3 0xC3 JUMPI DUP1 SWAP2 POP POP PUSH3 0xC9 JUMP JUMPDEST PUSH1 0xFF SWAP2 POP POP JUMPDEST SWAP2 SWAP1 POP JUMP JUMPDEST PUSH1 0x0 DUP2 SWAP1 POP SWAP2 SWAP1 POP JUMP JUMPDEST PUSH32 0x4E487B7100000000000000000000000000000000000000000000000000000000 PUSH1 0x0 MSTORE PUSH1 0x11 PUSH1 0x4 MSTORE PUSH1 0x24 PUSH1 0x0 REVERT JUMPDEST PUSH1 0x0 PUSH3 0x114 DUP3 PUSH3 0xCE JUMP JUMPDEST SWAP2 POP PUSH3 0x121 DUP4 PUSH3 0xCE JUMP JUMPDEST SWAP3 POP DUP2 PUSH32 0xFFFFFFFFFFFFFFFFFFFFFFFFFFFFFFFFFFFFFFFFFFFFFFFFFFFFFFFFFFFFFFFF DIV DUP4 GT DUP3 ISZERO ISZERO AND ISZERO PUSH3 0x15D JUMPI PUSH3 0x15C PUSH3 0xD8 JUMP JUMPDEST JUMPDEST DUP3 DUP3 MUL SWAP1 POP SWAP3 SWAP2 POP POP JUMP JUMPDEST PUSH32 0x4E487B7100000000000000000000000000000000000000000000000000000000 PUSH1 0x0 MSTORE PUSH1 0x12 PUSH1 0x4 MSTORE PUSH1 0x24 PUSH1 0x0 REVERT JUMPDEST PUSH1 0x0 PUSH3 0x1A4 DUP3 PUSH3 0xCE JUMP JUMPDEST SWAP2 POP PUSH3 0x1B1 DUP4 PUSH3 0xCE JUMP JUMPDEST SWAP3 POP DUP3 PUSH3 0x1C4 JUMPI PUSH3 0x1C3 PUSH3 0x168 JUMP JUMPDEST JUMPDEST DUP3 DUP3 DIV SWAP1 POP SWAP3 SWAP2 POP POP JUMP JUMPDEST PUSH1 0x0 PUSH3 0x1DC DUP3 PUSH3 0xCE JUMP JUMPDEST SWAP2 POP PUSH3 0x1E9 DUP4 PUSH3 0xCE JUMP JUMPDEST SWAP3 POP DUP3 PUSH32 0xFFFFFFFFFFFFFFFFFFFFFFFFFFFFFFFFFFFFFFFFFFFFFFFFFFFFFFFFFFFFFFFF SUB DUP3 GT ISZERO PUSH3 0x221 JUMPI PUSH3 0x220 PUSH3 0xD8 JUMP JUMPDEST JUMPDEST DUP3 DUP3 ADD SWAP1 POP SWAP3 SWAP2 POP POP JUMP JUMPDEST PUSH2 0x14B1 DUP1 PUSH3 0x23C PUSH1 0x0 CODECOPY PUSH1 0x0 RETURN INVALID PUSH1 0x80 PUSH1 0x40 MSTORE CALLVALUE DUP1 ISZERO PUSH2 0x10 JUMPI PUSH1 0x0 DUP1 REVERT JUMPDEST POP PUSH1 0x4 CALLDATASIZE LT PUSH2 0x41 JUMPI PUSH1 0x0 CALLDATALOAD PUSH1 0xE0 SHR DUP1 PUSH4 0xADDFA182 EQ PUSH2 0x46 JUMPI DUP1 PUSH4 0xD14519D2 EQ PUSH2 0x76 JUMPI DUP1 PUSH4 0xD99A3927 EQ PUSH2 0xA6 JUMPI JUMPDEST PUSH1 0x0 DUP1 REVERT JUMPDEST PUSH2 0x60 PUSH1 0x4 DUP1 CALLDATASIZE SUB DUP2 ADD SWAP1 PUSH2 0x5B SWAP2 SWAP1 PUSH2 0x9BA JUMP JUMPDEST PUSH2 0xD6 JUMP JUMPDEST PUSH1 0x40 MLOAD PUSH2 0x6D SWAP2 SWAP1 PUSH2 0xA3D JUMP JUMPDEST PUSH1 0x40 MLOAD DUP1 SWAP2 SUB SWAP1 RETURN JUMPDEST PUSH2 0x90 PUSH1 0x4 DUP1 CALLDATASIZE SUB DUP2 ADD SWAP1 PUSH2 0x8B SWAP2 SWAP1 PUSH2 0xA58 JUMP JUMPDEST PUSH2 0x324 JUMP JUMPDEST PUSH1 0x40 MLOAD PUSH2 0x9D SWAP2 SWAP1 PUSH2 0xA9E JUMP JUMPDEST PUSH1 0x40 MLOAD DUP1 SWAP2 SUB SWAP1 RETURN JUMPDEST PUSH2 0xC0 PUSH1 0x4 DUP1 CALLDATASIZE SUB DUP2 ADD SWAP1 PUSH2 0xBB SWAP2 SWAP1 PUSH2 0xAF9 JUMP JUMPDEST PUSH2 0x344 JUMP JUMPDEST PUSH1 0x40 MLOAD PUSH2 0xCD SWAP2 SWAP1 PUSH2 0xB41 JUMP JUMPDEST PUSH1 0x40 MLOAD DUP1 SWAP2 SUB SWAP1 RETURN JUMPDEST PUSH1 0x0 PUSH2 0xE0 PUSH2 0x374 JUMP JUMPDEST PUSH2 0x11D CALLER PUSH1 0x1 PUSH1 0x40 MLOAD PUSH1 0x20 ADD PUSH2 0xF7 SWAP3 SWAP2 SWAP1 PUSH2 0xBF7 JUMP JUMPDEST PUSH1 0x40 MLOAD PUSH1 0x20 DUP2 DUP4 SUB SUB DUP2 MSTORE SWAP1 PUSH1 0x40 MSTORE DUP1 MLOAD SWAP1 PUSH1 0x20 ADD KECCAK256 PUSH1 0x0 PUSH2 0x46C SWAP1 SWAP2 SWAP1 PUSH4 0xFFFFFFFF AND JUMP JUMPDEST ISZERO PUSH2 0x154 JUMPI PUSH1 0x40 MLOAD PUSH32 0x9689CB0F00000000000000000000000000000000000000000000000000000000 DUP2 MSTORE PUSH1 0x4 ADD PUSH1 0x40 MLOAD DUP1 SWAP2 SUB SWAP1 REVERT JUMPDEST PUSH1 0x0 CALLER DUP7 PUSH1 0x40 MLOAD PUSH1 0x20 ADD PUSH2 0x169 SWAP3 SWAP2 SWAP1 PUSH2 0xC44 JUMP JUMPDEST PUSH1 0x40 MLOAD PUSH1 0x20 DUP2 DUP4 SUB SUB DUP2 MSTORE SWAP1 PUSH1 0x40 MSTORE DUP1 MLOAD SWAP1 PUSH1 0x20 ADD KECCAK256 SWAP1 POP PUSH1 0x0 DUP1 SHL PUSH1 0x4 PUSH1 0x0 DUP4 DUP2 MSTORE PUSH1 0x20 ADD SWAP1 DUP2 MSTORE PUSH1 0x20 ADD PUSH1 0x0 KECCAK256 PUSH1 0x0 ADD SLOAD EQ PUSH2 0x1DC JUMPI PUSH1 0x40 MLOAD PUSH32 0x8C379A000000000000000000000000000000000000000000000000000000000 DUP2 MSTORE PUSH1 0x4 ADD PUSH2 0x1D3 SWAP1 PUSH2 0xCCD JUMP JUMPDEST PUSH1 0x40 MLOAD DUP1 SWAP2 SUB SWAP1 REVERT JUMPDEST PUSH1 0x40 MLOAD DUP1 PUSH1 0x80 ADD PUSH1 0x40 MSTORE DUP1 DUP3 DUP2 MSTORE PUSH1 0x20 ADD DUP8 DUP2 MSTORE PUSH1 0x20 ADD DUP7 DUP2 MSTORE PUSH1 0x20 ADD DUP6 DUP6 DUP1 DUP1 PUSH1 0x1F ADD PUSH1 0x20 DUP1 SWAP2 DIV MUL PUSH1 0x20 ADD PUSH1 0x40 MLOAD SWAP1 DUP2 ADD PUSH1 0x40 MSTORE DUP1 SWAP4 SWAP3 SWAP2 SWAP1 DUP2 DUP2 MSTORE PUSH1 0x20 ADD DUP4 DUP4 DUP1 DUP3 DUP5 CALLDATACOPY PUSH1 0x0 DUP2 DUP5 ADD MSTORE PUSH1 0x1F NOT PUSH1 0x1F DUP3 ADD AND SWAP1 POP DUP1 DUP4 ADD SWAP3 POP POP POP POP POP POP POP DUP2 MSTORE POP PUSH1 0x4 PUSH1 0x0 DUP4 DUP2 MSTORE PUSH1 0x20 ADD SWAP1 DUP2 MSTORE PUSH1 0x20 ADD PUSH1 0x0 KECCAK256 PUSH1 0x0 DUP3 ADD MLOAD DUP2 PUSH1 0x0 ADD SSTORE PUSH1 0x20 DUP3 ADD MLOAD DUP2 PUSH1 0x1 ADD SSTORE PUSH1 0x40 DUP3 ADD MLOAD DUP2 PUSH1 0x2 ADD SSTORE PUSH1 0x60 DUP3 ADD MLOAD DUP2 PUSH1 0x3 ADD SWAP1 DUP1 MLOAD SWAP1 PUSH1 0x20 ADD SWAP1 PUSH2 0x28E SWAP3 SWAP2 SWAP1 PUSH2 0x83C JUMP JUMPDEST POP SWAP1 POP POP PUSH1 0x0 PUSH2 0x2A3 DUP7 PUSH1 0x1 PUSH1 0x14 PUSH1 0x8 PUSH2 0x496 JUMP JUMPDEST SWAP1 POP PUSH2 0x2DE CALLER PUSH1 0x40 MLOAD PUSH1 0x20 ADD PUSH2 0x2B9 SWAP2 SWAP1 PUSH2 0xCED JUMP JUMPDEST PUSH1 0x40 MLOAD PUSH1 0x20 DUP2 DUP4 SUB SUB DUP2 MSTORE SWAP1 PUSH1 0x40 MSTORE DUP1 MLOAD SWAP1 PUSH1 0x20 ADD KECCAK256 DUP3 PUSH2 0x2D9 SWAP1 PUSH2 0xD37 JUMP JUMPDEST PUSH2 0x4E6 JUMP JUMPDEST PUSH32 0x1471883DA0C9E2A8E7D5284477FF356083FC400504747A5D4110BDA87BD9A7D2 DUP8 DUP8 PUSH1 0x40 MLOAD PUSH2 0x30F SWAP3 SWAP2 SWAP1 PUSH2 0xD8F JUMP JUMPDEST PUSH1 0x40 MLOAD DUP1 SWAP2 SUB SWAP1 LOG1 DUP2 SWAP3 POP POP POP SWAP5 SWAP4 POP POP POP POP JUMP JUMPDEST PUSH1 0x0 PUSH1 0x5 PUSH1 0x0 DUP4 DUP2 MSTORE PUSH1 0x20 ADD SWAP1 DUP2 MSTORE PUSH1 0x20 ADD PUSH1 0x0 KECCAK256 PUSH1 0x0 ADD SLOAD SWAP1 POP SWAP2 SWAP1 POP JUMP JUMPDEST PUSH1 0x0 SWAP2 SWAP1 POP JUMP JUMPDEST PUSH2 0x354 DUP2 PUSH2 0x5AC JUMP JUMPDEST DUP3 PUSH1 0x1 ADD PUSH1 0x0 PUSH2 0x100 EXP DUP2 SLOAD DUP2 PUSH1 0xFF MUL NOT AND SWAP1 DUP4 PUSH1 0xFF AND MUL OR SWAP1 SSTORE POP POP POP JUMP JUMPDEST PUSH1 0x0 CALLER PUSH1 0x40 MLOAD PUSH1 0x20 ADD PUSH2 0x387 SWAP2 SWAP1 PUSH2 0xCED JUMP JUMPDEST PUSH1 0x40 MLOAD PUSH1 0x20 DUP2 DUP4 SUB SUB DUP2 MSTORE SWAP1 PUSH1 0x40 MSTORE DUP1 MLOAD SWAP1 PUSH1 0x20 ADD KECCAK256 SWAP1 POP PUSH1 0x0 PUSH1 0x2 PUSH1 0x0 DUP4 DUP2 MSTORE PUSH1 0x20 ADD SWAP1 DUP2 MSTORE PUSH1 0x20 ADD PUSH1 0x0 KECCAK256 SLOAD SWAP1 POP PUSH1 0x0 PUSH1 0x3 PUSH1 0x0 DUP5 DUP2 MSTORE PUSH1 0x20 ADD SWAP1 DUP2 MSTORE PUSH1 0x20 ADD PUSH1 0x0 KECCAK256 SLOAD SWAP1 POP PUSH1 0x0 DUP2 TIMESTAMP PUSH2 0x3DD SWAP2 SWAP1 PUSH2 0xDB8 JUMP JUMPDEST SWAP1 POP DUP3 DUP2 LT PUSH2 0x428 JUMPI PUSH2 0x423 CALLER PUSH1 0x0 PUSH1 0x40 MLOAD PUSH1 0x20 ADD PUSH2 0x3FD SWAP3 SWAP2 SWAP1 PUSH2 0xBF7 JUMP JUMPDEST PUSH1 0x40 MLOAD PUSH1 0x20 DUP2 DUP4 SUB SUB DUP2 MSTORE SWAP1 PUSH1 0x40 MSTORE DUP1 MLOAD SWAP1 PUSH1 0x20 ADD KECCAK256 PUSH1 0x0 PUSH2 0x5F5 SWAP1 SWAP2 SWAP1 PUSH4 0xFFFFFFFF AND JUMP JUMPDEST PUSH2 0x466 JUMP JUMPDEST PUSH2 0x465 CALLER PUSH1 0x1 PUSH1 0x40 MLOAD PUSH1 0x20 ADD PUSH2 0x43F SWAP3 SWAP2 SWAP1 PUSH2 0xBF7 JUMP JUMPDEST PUSH1 0x40 MLOAD PUSH1 0x20 DUP2 DUP4 SUB SUB DUP2 MSTORE SWAP1 PUSH1 0x40 MSTORE DUP1 MLOAD SWAP1 PUSH1 0x20 ADD KECCAK256 PUSH1 0x0 PUSH2 0x5F5 SWAP1 SWAP2 SWAP1 PUSH4 0xFFFFFFFF AND JUMP JUMPDEST JUMPDEST POP POP POP POP JUMP JUMPDEST PUSH1 0x0 PUSH2 0x48E DUP4 PUSH1 0x0 ADD SLOAD DUP5 PUSH1 0x1 ADD PUSH1 0x0 SWAP1 SLOAD SWAP1 PUSH2 0x100 EXP SWAP1 DIV PUSH1 0xFF AND DUP5 PUSH2 0x621 JUMP JUMPDEST SWAP1 POP SWAP3 SWAP2 POP POP JUMP JUMPDEST PUSH1 0x0 DUP1 DUP5 DUP5 PUSH2 0x4A5 SWAP2 SWAP1 PUSH2 0xDB8 JUMP JUMPDEST SWAP1 POP PUSH1 0x0 DUP2 DUP5 PUSH1 0xA PUSH2 0x4B7 SWAP2 SWAP1 PUSH2 0xF2C JUMP JUMPDEST DUP8 DUP10 PUSH2 0x4C3 SWAP2 SWAP1 PUSH2 0xDB8 JUMP JUMPDEST PUSH2 0x4CD SWAP2 SWAP1 PUSH2 0xF77 JUMP JUMPDEST PUSH2 0x4D7 SWAP2 SWAP1 PUSH2 0x1000 JUMP JUMPDEST SWAP1 POP DUP1 SWAP3 POP POP POP SWAP5 SWAP4 POP POP POP POP JUMP JUMPDEST PUSH1 0x0 PUSH1 0x5 PUSH1 0x0 DUP5 DUP2 MSTORE PUSH1 0x20 ADD SWAP1 DUP2 MSTORE PUSH1 0x20 ADD PUSH1 0x0 KECCAK256 PUSH1 0x0 ADD SLOAD SWAP1 POP PUSH1 0x0 PUSH1 0x5 PUSH1 0x0 DUP6 DUP2 MSTORE PUSH1 0x20 ADD SWAP1 DUP2 MSTORE PUSH1 0x20 ADD PUSH1 0x0 KECCAK256 PUSH1 0x1 ADD SLOAD SWAP1 POP PUSH1 0x0 PUSH1 0x1 DUP3 PUSH2 0x52B SWAP2 SWAP1 PUSH2 0x1031 JUMP JUMPDEST PUSH1 0x4 DUP6 DUP5 DUP7 PUSH2 0x53A SWAP2 SWAP1 PUSH2 0x1087 JUMP JUMPDEST PUSH2 0x544 SWAP2 SWAP1 PUSH2 0x119E JUMP JUMPDEST PUSH2 0x54E SWAP2 SWAP1 PUSH2 0x119E JUMP JUMPDEST PUSH2 0x558 SWAP2 SWAP1 PUSH2 0x1232 JUMP JUMPDEST SWAP1 POP PUSH1 0x40 MLOAD DUP1 PUSH1 0x40 ADD PUSH1 0x40 MSTORE DUP1 DUP3 DUP2 MSTORE PUSH1 0x20 ADD PUSH1 0x1 DUP5 PUSH2 0x578 SWAP2 SWAP1 PUSH2 0x1031 JUMP JUMPDEST DUP2 MSTORE POP PUSH1 0x5 PUSH1 0x0 DUP8 DUP2 MSTORE PUSH1 0x20 ADD SWAP1 DUP2 MSTORE PUSH1 0x20 ADD PUSH1 0x0 KECCAK256 PUSH1 0x0 DUP3 ADD MLOAD DUP2 PUSH1 0x0 ADD SSTORE PUSH1 0x20 DUP3 ADD MLOAD DUP2 PUSH1 0x1 ADD SSTORE SWAP1 POP POP POP POP POP POP POP JUMP JUMPDEST PUSH1 0x0 DUP1 PUSH1 0x1 PUSH1 0x64 DUP5 PUSH2 0x5BE SWAP2 SWAP1 PUSH2 0xF77 JUMP JUMPDEST PUSH2 0x9000 PUSH2 0x5CB SWAP2 SWAP1 PUSH2 0x1000 JUMP JUMPDEST PUSH2 0x5D5 SWAP2 SWAP1 PUSH2 0x1031 JUMP JUMPDEST SWAP1 POP PUSH2 0x100 DUP2 LT ISZERO PUSH2 0x5EA JUMPI DUP1 SWAP2 POP POP PUSH2 0x5F0 JUMP JUMPDEST PUSH1 0xFF SWAP2 POP POP JUMPDEST SWAP2 SWAP1 POP JUMP JUMPDEST PUSH2 0x615 DUP3 PUSH1 0x0 ADD SLOAD DUP4 PUSH1 0x1 ADD PUSH1 0x0 SWAP1 SLOAD SWAP1 PUSH2 0x100 EXP SWAP1 DIV PUSH1 0xFF AND DUP4 PUSH2 0x737 JUMP JUMPDEST DUP3 PUSH1 0x0 ADD DUP2 SWAP1 SSTORE POP POP POP JUMP JUMPDEST PUSH1 0x0 DUP1 DUP4 PUSH1 0xFF AND GT PUSH2 0x668 JUMPI PUSH1 0x40 MLOAD PUSH32 0x8C379A000000000000000000000000000000000000000000000000000000000 DUP2 MSTORE PUSH1 0x4 ADD PUSH2 0x65F SWAP1 PUSH2 0x12E8 JUMP JUMPDEST PUSH1 0x40 MLOAD DUP1 SWAP2 SUB SWAP1 REVERT JUMPDEST PUSH1 0x0 JUMPDEST DUP4 PUSH1 0xFF AND DUP2 LT ISZERO PUSH2 0x72A JUMPI PUSH1 0x0 PUSH2 0x100 DUP5 DUP4 PUSH1 0x40 MLOAD PUSH1 0x20 ADD PUSH2 0x68E SWAP3 SWAP2 SWAP1 PUSH2 0x1308 JUMP JUMPDEST PUSH1 0x40 MLOAD PUSH1 0x20 DUP2 DUP4 SUB SUB DUP2 MSTORE SWAP1 PUSH1 0x40 MSTORE DUP1 MLOAD SWAP1 PUSH1 0x20 ADD KECCAK256 PUSH1 0x0 SHR PUSH2 0x6B1 SWAP2 SWAP1 PUSH2 0x1334 JUMP JUMPDEST SWAP1 POP PUSH2 0x100 DUP2 LT PUSH2 0x6F7 JUMPI PUSH1 0x40 MLOAD PUSH32 0x8C379A000000000000000000000000000000000000000000000000000000000 DUP2 MSTORE PUSH1 0x4 ADD PUSH2 0x6EE SWAP1 PUSH2 0x13B1 JUMP JUMPDEST PUSH1 0x40 MLOAD DUP1 SWAP2 SUB SWAP1 REVERT JUMPDEST PUSH1 0x0 DUP2 PUSH1 0x1 SWAP1 SHL SWAP1 POP DUP1 DUP8 OR DUP8 EQ PUSH2 0x715 JUMPI PUSH1 0x0 SWAP4 POP POP POP POP PUSH2 0x730 JUMP JUMPDEST POP POP DUP1 DUP1 PUSH2 0x722 SWAP1 PUSH2 0x13D1 JUMP JUMPDEST SWAP2 POP POP PUSH2 0x66B JUMP JUMPDEST POP PUSH1 0x1 SWAP1 POP JUMPDEST SWAP4 SWAP3 POP POP POP JUMP JUMPDEST PUSH1 0x0 DUP4 SWAP1 POP PUSH1 0x0 DUP4 PUSH1 0xFF AND GT PUSH2 0x782 JUMPI PUSH1 0x40 MLOAD PUSH32 0x8C379A000000000000000000000000000000000000000000000000000000000 DUP2 MSTORE PUSH1 0x4 ADD PUSH2 0x779 SWAP1 PUSH2 0x12E8 JUMP JUMPDEST PUSH1 0x40 MLOAD DUP1 SWAP2 SUB SWAP1 REVERT JUMPDEST PUSH1 0x0 JUMPDEST DUP4 PUSH1 0xFF AND DUP2 LT ISZERO PUSH2 0x834 JUMPI PUSH1 0x0 PUSH2 0x100 DUP5 DUP4 PUSH1 0x40 MLOAD PUSH1 0x20 ADD PUSH2 0x7A8 SWAP3 SWAP2 SWAP1 PUSH2 0x1308 JUMP JUMPDEST PUSH1 0x40 MLOAD PUSH1 0x20 DUP2 DUP4 SUB SUB DUP2 MSTORE SWAP1 PUSH1 0x40 MSTORE DUP1 MLOAD SWAP1 PUSH1 0x20 ADD KECCAK256 PUSH1 0x0 SHR PUSH2 0x7CB SWAP2 SWAP1 PUSH2 0x1334 JUMP JUMPDEST SWAP1 POP PUSH2 0x100 DUP2 LT PUSH2 0x811 JUMPI PUSH1 0x40 MLOAD PUSH32 0x8C379A000000000000000000000000000000000000000000000000000000000 DUP2 MSTORE PUSH1 0x4 ADD PUSH2 0x808 SWAP1 PUSH2 0x13B1 JUMP JUMPDEST PUSH1 0x40 MLOAD DUP1 SWAP2 SUB SWAP1 REVERT JUMPDEST PUSH1 0x0 DUP2 PUSH1 0x1 SWAP1 SHL SWAP1 POP DUP1 DUP5 OR SWAP4 POP POP POP DUP1 DUP1 PUSH2 0x82C SWAP1 PUSH2 0x13D1 JUMP JUMPDEST SWAP2 POP POP PUSH2 0x785 JUMP JUMPDEST POP SWAP4 SWAP3 POP POP POP JUMP JUMPDEST DUP3 DUP1 SLOAD PUSH2 0x848 SWAP1 PUSH2 0x1449 JUMP JUMPDEST SWAP1 PUSH1 0x0 MSTORE PUSH1 0x20 PUSH1 0x0 KECCAK256 SWAP1 PUSH1 0x1F ADD PUSH1 0x20 SWAP1 DIV DUP2 ADD SWAP3 DUP3 PUSH2 0x86A JUMPI PUSH1 0x0 DUP6 SSTORE PUSH2 0x8B1 JUMP JUMPDEST DUP3 PUSH1 0x1F LT PUSH2 0x883 JUMPI DUP1 MLOAD PUSH1 0xFF NOT AND DUP4 DUP1 ADD OR DUP6 SSTORE PUSH2 0x8B1 JUMP JUMPDEST DUP3 DUP1 ADD PUSH1 0x1 ADD DUP6 SSTORE DUP3 ISZERO PUSH2 0x8B1 JUMPI SWAP2 DUP3 ADD JUMPDEST DUP3 DUP2 GT ISZERO PUSH2 0x8B0 JUMPI DUP3 MLOAD DUP3 SSTORE SWAP2 PUSH1 0x20 ADD SWAP2 SWAP1 PUSH1 0x1 ADD SWAP1 PUSH2 0x895 JUMP JUMPDEST JUMPDEST POP SWAP1 POP PUSH2 0x8BE SWAP2 SWAP1 PUSH2 0x8C2 JUMP JUMPDEST POP SWAP1 JUMP JUMPDEST JUMPDEST DUP1 DUP3 GT ISZERO PUSH2 0x8DB JUMPI PUSH1 0x0 DUP2 PUSH1 0x0 SWAP1 SSTORE POP PUSH1 0x1 ADD PUSH2 0x8C3 JUMP JUMPDEST POP SWAP1 JUMP JUMPDEST PUSH1 0x0 DUP1 REVERT JUMPDEST PUSH1 0x0 DUP1 REVERT JUMPDEST PUSH1 0x0 DUP2 SWAP1 POP SWAP2 SWAP1 POP JUMP JUMPDEST PUSH2 0x8FC DUP2 PUSH2 0x8E9 JUMP JUMPDEST DUP2 EQ PUSH2 0x907 JUMPI PUSH1 0x0 DUP1 REVERT JUMPDEST POP JUMP JUMPDEST PUSH1 0x0 DUP2 CALLDATALOAD SWAP1 POP PUSH2 0x919 DUP2 PUSH2 0x8F3 JUMP JUMPDEST SWAP3 SWAP2 POP POP JUMP JUMPDEST PUSH1 0x0 DUP2 SWAP1 POP SWAP2 SWAP1 POP JUMP JUMPDEST PUSH2 0x932 DUP2 PUSH2 0x91F JUMP JUMPDEST DUP2 EQ PUSH2 0x93D JUMPI PUSH1 0x0 DUP1 REVERT JUMPDEST POP JUMP JUMPDEST PUSH1 0x0 DUP2 CALLDATALOAD SWAP1 POP PUSH2 0x94F DUP2 PUSH2 0x929 JUMP JUMPDEST SWAP3 SWAP2 POP POP JUMP JUMPDEST PUSH1 0x0 DUP1 REVERT JUMPDEST PUSH1 0x0 DUP1 REVERT JUMPDEST PUSH1 0x0 DUP1 REVERT JUMPDEST PUSH1 0x0 DUP1 DUP4 PUSH1 0x1F DUP5 ADD SLT PUSH2 0x97A JUMPI PUSH2 0x979 PUSH2 0x955 JUMP JUMPDEST JUMPDEST DUP3 CALLDATALOAD SWAP1 POP PUSH8 0xFFFFFFFFFFFFFFFF DUP2 GT ISZERO PUSH2 0x997 JUMPI PUSH2 0x996 PUSH2 0x95A JUMP JUMPDEST JUMPDEST PUSH1 0x20 DUP4 ADD SWAP2 POP DUP4 PUSH1 0x1 DUP3 MUL DUP4 ADD GT ISZERO PUSH2 0x9B3 JUMPI PUSH2 0x9B2 PUSH2 0x95F JUMP JUMPDEST JUMPDEST SWAP3 POP SWAP3 SWAP1 POP JUMP JUMPDEST PUSH1 0x0 DUP1 PUSH1 0x0 DUP1 PUSH1 0x60 DUP6 DUP8 SUB SLT ISZERO PUSH2 0x9D4 JUMPI PUSH2 0x9D3 PUSH2 0x8DF JUMP JUMPDEST JUMPDEST PUSH1 0x0 PUSH2 0x9E2 DUP8 DUP3 DUP9 ADD PUSH2 0x90A JUMP JUMPDEST SWAP5 POP POP PUSH1 0x20 PUSH2 0x9F3 DUP8 DUP3 DUP9 ADD PUSH2 0x940 JUMP JUMPDEST SWAP4 POP POP PUSH1 0x40 DUP6 ADD CALLDATALOAD PUSH8 0xFFFFFFFFFFFFFFFF DUP2 GT ISZERO PUSH2 0xA14 JUMPI PUSH2 0xA13 PUSH2 0x8E4 JUMP JUMPDEST JUMPDEST PUSH2 0xA20 DUP8 DUP3 DUP9 ADD PUSH2 0x964 JUMP JUMPDEST SWAP3 POP SWAP3 POP POP SWAP3 SWAP6 SWAP2 SWAP5 POP SWAP3 POP JUMP JUMPDEST PUSH2 0xA37 DUP2 PUSH2 0x8E9 JUMP JUMPDEST DUP3 MSTORE POP POP JUMP JUMPDEST PUSH1 0x0 PUSH1 0x20 DUP3 ADD SWAP1 POP PUSH2 0xA52 PUSH1 0x0 DUP4 ADD DUP5 PUSH2 0xA2E JUMP JUMPDEST SWAP3 SWAP2 POP POP JUMP JUMPDEST PUSH1 0x0 PUSH1 0x20 DUP3 DUP5 SUB SLT ISZERO PUSH2 0xA6E JUMPI PUSH2 0xA6D PUSH2 0x8DF JUMP JUMPDEST JUMPDEST PUSH1 0x0 PUSH2 0xA7C DUP5 DUP3 DUP6 ADD PUSH2 0x90A JUMP JUMPDEST SWAP2 POP POP SWAP3 SWAP2 POP POP JUMP JUMPDEST PUSH1 0x0 DUP2 SWAP1 POP SWAP2 SWAP1 POP JUMP JUMPDEST PUSH2 0xA98 DUP2 PUSH2 0xA85 JUMP JUMPDEST DUP3 MSTORE POP POP JUMP JUMPDEST PUSH1 0x0 PUSH1 0x20 DUP3 ADD SWAP1 POP PUSH2 0xAB3 PUSH1 0x0 DUP4 ADD DUP5 PUSH2 0xA8F JUMP JUMPDEST SWAP3 SWAP2 POP POP JUMP JUMPDEST PUSH1 0x0 PUSH8 0xFFFFFFFFFFFFFFFF DUP3 AND SWAP1 POP SWAP2 SWAP1 POP JUMP JUMPDEST PUSH2 0xAD6 DUP2 PUSH2 0xAB9 JUMP JUMPDEST DUP2 EQ PUSH2 0xAE1 JUMPI PUSH1 0x0 DUP1 REVERT JUMPDEST POP JUMP JUMPDEST PUSH1 0x0 DUP2 CALLDATALOAD SWAP1 POP PUSH2 0xAF3 DUP2 PUSH2 0xACD JUMP JUMPDEST SWAP3 SWAP2 POP POP JUMP JUMPDEST PUSH1 0x0 PUSH1 0x20 DUP3 DUP5 SUB SLT ISZERO PUSH2 0xB0F JUMPI PUSH2 0xB0E PUSH2 0x8DF JUMP JUMPDEST JUMPDEST PUSH1 0x0 PUSH2 0xB1D DUP5 DUP3 DUP6 ADD PUSH2 0xAE4 JUMP JUMPDEST SWAP2 POP POP SWAP3 SWAP2 POP POP JUMP JUMPDEST PUSH1 0x0 DUP2 ISZERO ISZERO SWAP1 POP SWAP2 SWAP1 POP JUMP JUMPDEST PUSH2 0xB3B DUP2 PUSH2 0xB26 JUMP JUMPDEST DUP3 MSTORE POP POP JUMP JUMPDEST PUSH1 0x0 PUSH1 0x20 DUP3 ADD SWAP1 POP PUSH2 0xB56 PUSH1 0x0 DUP4 ADD DUP5 PUSH2 0xB32 JUMP JUMPDEST SWAP3 SWAP2 POP POP JUMP JUMPDEST PUSH1 0x0 PUSH20 0xFFFFFFFFFFFFFFFFFFFFFFFFFFFFFFFFFFFFFFFF DUP3 AND SWAP1 POP SWAP2 SWAP1 POP JUMP JUMPDEST PUSH1 0x0 PUSH2 0xB87 DUP3 PUSH2 0xB5C JUMP JUMPDEST SWAP1 POP SWAP2 SWAP1 POP JUMP JUMPDEST PUSH1 0x0 DUP2 PUSH1 0x60 SHL SWAP1 POP SWAP2 SWAP1 POP JUMP JUMPDEST PUSH1 0x0 PUSH2 0xBA6 DUP3 PUSH2 0xB8E JUMP JUMPDEST SWAP1 POP SWAP2 SWAP1 POP JUMP JUMPDEST PUSH1 0x0 PUSH2 0xBB8 DUP3 PUSH2 0xB9B JUMP JUMPDEST SWAP1 POP SWAP2 SWAP1 POP JUMP JUMPDEST PUSH2 0xBD0 PUSH2 0xBCB DUP3 PUSH2 0xB7C JUMP JUMPDEST PUSH2 0xBAD JUMP JUMPDEST DUP3 MSTORE POP POP JUMP JUMPDEST PUSH1 0x0 DUP2 SWAP1 POP SWAP2 SWAP1 POP JUMP JUMPDEST PUSH2 0xBF1 PUSH2 0xBEC DUP3 PUSH2 0x91F JUMP JUMPDEST PUSH2 0xBD6 JUMP JUMPDEST DUP3 MSTORE POP POP JUMP JUMPDEST PUSH1 0x0 PUSH2 0xC03 DUP3 DUP6 PUSH2 0xBBF JUMP JUMPDEST PUSH1 0x14 DUP3 ADD SWAP2 POP PUSH2 0xC13 DUP3 DUP5 PUSH2 0xBE0 JUMP JUMPDEST PUSH1 0x20 DUP3 ADD SWAP2 POP DUP2 SWAP1 POP SWAP4 SWAP3 POP POP POP JUMP JUMPDEST PUSH1 0x0 DUP2 SWAP1 POP SWAP2 SWAP1 POP JUMP JUMPDEST PUSH2 0xC3E PUSH2 0xC39 DUP3 PUSH2 0x8E9 JUMP JUMPDEST PUSH2 0xC23 JUMP JUMPDEST DUP3 MSTORE POP POP JUMP JUMPDEST PUSH1 0x0 PUSH2 0xC50 DUP3 DUP6 PUSH2 0xBBF JUMP JUMPDEST PUSH1 0x14 DUP3 ADD SWAP2 POP PUSH2 0xC60 DUP3 DUP5 PUSH2 0xC2D JUMP JUMPDEST PUSH1 0x20 DUP3 ADD SWAP2 POP DUP2 SWAP1 POP SWAP4 SWAP3 POP POP POP JUMP JUMPDEST PUSH1 0x0 DUP3 DUP3 MSTORE PUSH1 0x20 DUP3 ADD SWAP1 POP SWAP3 SWAP2 POP POP JUMP JUMPDEST PUSH32 0x416C7265616479207265706F7274656420627920757365722100000000000000 PUSH1 0x0 DUP3 ADD MSTORE POP JUMP JUMPDEST PUSH1 0x0 PUSH2 0xCB7 PUSH1 0x19 DUP4 PUSH2 0xC70 JUMP JUMPDEST SWAP2 POP PUSH2 0xCC2 DUP3 PUSH2 0xC81 JUMP JUMPDEST PUSH1 0x20 DUP3 ADD SWAP1 POP SWAP2 SWAP1 POP JUMP JUMPDEST PUSH1 0x0 PUSH1 0x20 DUP3 ADD SWAP1 POP DUP2 DUP2 SUB PUSH1 0x0 DUP4 ADD MSTORE PUSH2 0xCE6 DUP2 PUSH2 0xCAA JUMP JUMPDEST SWAP1 POP SWAP2 SWAP1 POP JUMP JUMPDEST PUSH1 0x0 PUSH2 0xCF9 DUP3 DUP5 PUSH2 0xBBF JUMP JUMPDEST PUSH1 0x14 DUP3 ADD SWAP2 POP DUP2 SWAP1 POP SWAP3 SWAP2 POP POP JUMP JUMPDEST PUSH32 0x4E487B7100000000000000000000000000000000000000000000000000000000 PUSH1 0x0 MSTORE PUSH1 0x11 PUSH1 0x4 MSTORE PUSH1 0x24 PUSH1 0x0 REVERT JUMPDEST PUSH1 0x0 PUSH2 0xD42 DUP3 PUSH2 0xA85 JUMP JUMPDEST SWAP2 POP PUSH32 0x8000000000000000000000000000000000000000000000000000000000000000 DUP3 EQ ISZERO PUSH2 0xD75 JUMPI PUSH2 0xD74 PUSH2 0xD08 JUMP JUMPDEST JUMPDEST DUP2 PUSH1 0x0 SUB SWAP1 POP SWAP2 SWAP1 POP JUMP JUMPDEST PUSH2 0xD89 DUP2 PUSH2 0x91F JUMP JUMPDEST DUP3 MSTORE POP POP JUMP JUMPDEST PUSH1 0x0 PUSH1 0x40 DUP3 ADD SWAP1 POP PUSH2 0xDA4 PUSH1 0x0 DUP4 ADD DUP6 PUSH2 0xA2E JUMP JUMPDEST PUSH2 0xDB1 PUSH1 0x20 DUP4 ADD DUP5 PUSH2 0xD80 JUMP JUMPDEST SWAP4 SWAP3 POP POP POP JUMP JUMPDEST PUSH1 0x0 PUSH2 0xDC3 DUP3 PUSH2 0x91F JUMP JUMPDEST SWAP2 POP PUSH2 0xDCE DUP4 PUSH2 0x91F JUMP JUMPDEST SWAP3 POP DUP3 DUP3 LT ISZERO PUSH2 0xDE1 JUMPI PUSH2 0xDE0 PUSH2 0xD08 JUMP JUMPDEST JUMPDEST DUP3 DUP3 SUB SWAP1 POP SWAP3 SWAP2 POP POP JUMP JUMPDEST PUSH1 0x0 DUP2 PUSH1 0x1 SHR SWAP1 POP SWAP2 SWAP1 POP JUMP JUMPDEST PUSH1 0x0 DUP1 DUP3 SWAP2 POP DUP4 SWAP1 POP JUMPDEST PUSH1 0x1 DUP6 GT ISZERO PUSH2 0xE43 JUMPI DUP1 DUP7 DIV DUP2 GT ISZERO PUSH2 0xE1F JUMPI PUSH2 0xE1E PUSH2 0xD08 JUMP JUMPDEST JUMPDEST PUSH1 0x1 DUP6 AND ISZERO PUSH2 0xE2E JUMPI DUP1 DUP3 MUL SWAP2 POP JUMPDEST DUP1 DUP2 MUL SWAP1 POP PUSH2 0xE3C DUP6 PUSH2 0xDEC JUMP JUMPDEST SWAP5 POP PUSH2 0xE03 JUMP JUMPDEST SWAP5 POP SWAP5 SWAP3 POP POP POP JUMP JUMPDEST PUSH1 0x0 DUP3 PUSH2 0xE5C JUMPI PUSH1 0x1 SWAP1 POP PUSH2 0xF18 JUMP JUMPDEST DUP2 PUSH2 0xE6A JUMPI PUSH1 0x0 SWAP1 POP PUSH2 0xF18 JUMP JUMPDEST DUP2 PUSH1 0x1 DUP2 EQ PUSH2 0xE80 JUMPI PUSH1 0x2 DUP2 EQ PUSH2 0xE8A JUMPI PUSH2 0xEB9 JUMP JUMPDEST PUSH1 0x1 SWAP2 POP POP PUSH2 0xF18 JUMP JUMPDEST PUSH1 0xFF DUP5 GT ISZERO PUSH2 0xE9C JUMPI PUSH2 0xE9B PUSH2 0xD08 JUMP JUMPDEST JUMPDEST DUP4 PUSH1 0x2 EXP SWAP2 POP DUP5 DUP3 GT ISZERO PUSH2 0xEB3 JUMPI PUSH2 0xEB2 PUSH2 0xD08 JUMP JUMPDEST JUMPDEST POP PUSH2 0xF18 JUMP JUMPDEST POP PUSH1 0x20 DUP4 LT PUSH2 0x133 DUP4 LT AND PUSH1 0x4E DUP5 LT PUSH1 0xB DUP5 LT AND OR ISZERO PUSH2 0xEEE JUMPI DUP3 DUP3 EXP SWAP1 POP DUP4 DUP2 GT ISZERO PUSH2 0xEE9 JUMPI PUSH2 0xEE8 PUSH2 0xD08 JUMP JUMPDEST JUMPDEST PUSH2 0xF18 JUMP JUMPDEST PUSH2 0xEFB DUP5 DUP5 DUP5 PUSH1 0x1 PUSH2 0xDF9 JUMP JUMPDEST SWAP3 POP SWAP1 POP DUP2 DUP5 DIV DUP2 GT ISZERO PUSH2 0xF12 JUMPI PUSH2 0xF11 PUSH2 0xD08 JUMP JUMPDEST JUMPDEST DUP2 DUP2 MUL SWAP1 POP JUMPDEST SWAP4 SWAP3 POP POP POP JUMP JUMPDEST PUSH1 0x0 PUSH1 0xFF DUP3 AND SWAP1 POP SWAP2 SWAP1 POP JUMP JUMPDEST PUSH1 0x0 PUSH2 0xF37 DUP3 PUSH2 0x91F JUMP JUMPDEST SWAP2 POP PUSH2 0xF42 DUP4 PUSH2 0xF1F JUMP JUMPDEST SWAP3 POP PUSH2 0xF6F PUSH32 0xFFFFFFFFFFFFFFFFFFFFFFFFFFFFFFFFFFFFFFFFFFFFFFFFFFFFFFFFFFFFFFFF DUP5 DUP5 PUSH2 0xE4C JUMP JUMPDEST SWAP1 POP SWAP3 SWAP2 POP POP JUMP JUMPDEST PUSH1 0x0 PUSH2 0xF82 DUP3 PUSH2 0x91F JUMP JUMPDEST SWAP2 POP PUSH2 0xF8D DUP4 PUSH2 0x91F JUMP JUMPDEST SWAP3 POP DUP2 PUSH32 0xFFFFFFFFFFFFFFFFFFFFFFFFFFFFFFFFFFFFFFFFFFFFFFFFFFFFFFFFFFFFFFFF DIV DUP4 GT DUP3 ISZERO ISZERO AND ISZERO PUSH2 0xFC6 JUMPI PUSH2 0xFC5 PUSH2 0xD08 JUMP JUMPDEST JUMPDEST DUP3 DUP3 MUL SWAP1 POP SWAP3 SWAP2 POP POP JUMP JUMPDEST PUSH32 0x4E487B7100000000000000000000000000000000000000000000000000000000 PUSH1 0x0 MSTORE PUSH1 0x12 PUSH1 0x4 MSTORE PUSH1 0x24 PUSH1 0x0 REVERT JUMPDEST PUSH1 0x0 PUSH2 0x100B DUP3 PUSH2 0x91F JUMP JUMPDEST SWAP2 POP PUSH2 0x1016 DUP4 PUSH2 0x91F JUMP JUMPDEST SWAP3 POP DUP3 PUSH2 0x1026 JUMPI PUSH2 0x1025 PUSH2 0xFD1 JUMP JUMPDEST JUMPDEST DUP3 DUP3 DIV SWAP1 POP SWAP3 SWAP2 POP POP JUMP JUMPDEST PUSH1 0x0 PUSH2 0x103C DUP3 PUSH2 0x91F JUMP JUMPDEST SWAP2 POP PUSH2 0x1047 DUP4 PUSH2 0x91F JUMP JUMPDEST SWAP3 POP DUP3 PUSH32 0xFFFFFFFFFFFFFFFFFFFFFFFFFFFFFFFFFFFFFFFFFFFFFFFFFFFFFFFFFFFFFFFF SUB DUP3 GT ISZERO PUSH2 0x107C JUMPI PUSH2 0x107B PUSH2 0xD08 JUMP JUMPDEST JUMPDEST DUP3 DUP3 ADD SWAP1 POP SWAP3 SWAP2 POP POP JUMP JUMPDEST PUSH1 0x0 PUSH2 0x1092 DUP3 PUSH2 0xA85 JUMP JUMPDEST SWAP2 POP PUSH2 0x109D DUP4 PUSH2 0xA85 JUMP JUMPDEST SWAP3 POP DUP3 PUSH32 0x7FFFFFFFFFFFFFFFFFFFFFFFFFFFFFFFFFFFFFFFFFFFFFFFFFFFFFFFFFFFFFFF DIV DUP3 GT PUSH1 0x0 DUP5 SGT PUSH1 0x0 DUP5 SGT AND AND ISZERO PUSH2 0x10DC JUMPI PUSH2 0x10DB PUSH2 0xD08 JUMP JUMPDEST JUMPDEST DUP2 PUSH32 0x8000000000000000000000000000000000000000000000000000000000000000 SDIV DUP4 SLT PUSH1 0x0 DUP5 SLT PUSH1 0x0 DUP5 SGT AND AND ISZERO PUSH2 0x1119 JUMPI PUSH2 0x1118 PUSH2 0xD08 JUMP JUMPDEST JUMPDEST DUP3 PUSH32 0x8000000000000000000000000000000000000000000000000000000000000000 SDIV DUP3 SLT PUSH1 0x0 DUP5 SGT PUSH1 0x0 DUP5 SLT AND AND ISZERO PUSH2 0x1156 JUMPI PUSH2 0x1155 PUSH2 0xD08 JUMP JUMPDEST JUMPDEST DUP3 PUSH32 0x7FFFFFFFFFFFFFFFFFFFFFFFFFFFFFFFFFFFFFFFFFFFFFFFFFFFFFFFFFFFFFFF SDIV DUP3 SLT PUSH1 0x0 DUP5 SLT PUSH1 0x0 DUP5 SLT AND AND ISZERO PUSH2 0x1193 JUMPI PUSH2 0x1192 PUSH2 0xD08 JUMP JUMPDEST JUMPDEST DUP3 DUP3 MUL SWAP1 POP SWAP3 SWAP2 POP POP JUMP JUMPDEST PUSH1 0x0 PUSH2 0x11A9 DUP3 PUSH2 0xA85 JUMP JUMPDEST SWAP2 POP PUSH2 0x11B4 DUP4 PUSH2 0xA85 JUMP JUMPDEST SWAP3 POP DUP2 PUSH32 0x7FFFFFFFFFFFFFFFFFFFFFFFFFFFFFFFFFFFFFFFFFFFFFFFFFFFFFFFFFFFFFFF SUB DUP4 SGT PUSH1 0x0 DUP4 SLT ISZERO AND ISZERO PUSH2 0x11EF JUMPI PUSH2 0x11EE PUSH2 0xD08 JUMP JUMPDEST JUMPDEST DUP2 PUSH32 0x8000000000000000000000000000000000000000000000000000000000000000 SUB DUP4 SLT PUSH1 0x0 DUP4 SLT AND ISZERO PUSH2 0x1227 JUMPI PUSH2 0x1226 PUSH2 0xD08 JUMP JUMPDEST JUMPDEST DUP3 DUP3 ADD SWAP1 POP SWAP3 SWAP2 POP POP JUMP JUMPDEST PUSH1 0x0 PUSH2 0x123D DUP3 PUSH2 0xA85 JUMP JUMPDEST SWAP2 POP PUSH2 0x1248 DUP4 PUSH2 0xA85 JUMP JUMPDEST SWAP3 POP DUP3 PUSH2 0x1258 JUMPI PUSH2 0x1257 PUSH2 0xFD1 JUMP JUMPDEST JUMPDEST PUSH1 0x1 PUSH1 0x0 SUB DUP4 EQ PUSH32 0x8000000000000000000000000000000000000000000000000000000000000000 DUP4 EQ AND ISZERO PUSH2 0x1291 JUMPI PUSH2 0x1290 PUSH2 0xD08 JUMP JUMPDEST JUMPDEST DUP3 DUP3 SDIV SWAP1 POP SWAP3 SWAP2 POP POP JUMP JUMPDEST PUSH32 0x4861736820636F756E742063616E206E6F74206265207A65726F000000000000 PUSH1 0x0 DUP3 ADD MSTORE POP JUMP JUMPDEST PUSH1 0x0 PUSH2 0x12D2 PUSH1 0x1A DUP4 PUSH2 0xC70 JUMP JUMPDEST SWAP2 POP PUSH2 0x12DD DUP3 PUSH2 0x129C JUMP JUMPDEST PUSH1 0x20 DUP3 ADD SWAP1 POP SWAP2 SWAP1 POP JUMP JUMPDEST PUSH1 0x0 PUSH1 0x20 DUP3 ADD SWAP1 POP DUP2 DUP2 SUB PUSH1 0x0 DUP4 ADD MSTORE PUSH2 0x1301 DUP2 PUSH2 0x12C5 JUMP JUMPDEST SWAP1 POP SWAP2 SWAP1 POP JUMP JUMPDEST PUSH1 0x0 PUSH2 0x1314 DUP3 DUP6 PUSH2 0xC2D JUMP JUMPDEST PUSH1 0x20 DUP3 ADD SWAP2 POP PUSH2 0x1324 DUP3 DUP5 PUSH2 0xBE0 JUMP JUMPDEST PUSH1 0x20 DUP3 ADD SWAP2 POP DUP2 SWAP1 POP SWAP4 SWAP3 POP POP POP JUMP JUMPDEST PUSH1 0x0 PUSH2 0x133F DUP3 PUSH2 0x91F JUMP JUMPDEST SWAP2 POP PUSH2 0x134A DUP4 PUSH2 0x91F JUMP JUMPDEST SWAP3 POP DUP3 PUSH2 0x135A JUMPI PUSH2 0x1359 PUSH2 0xFD1 JUMP JUMPDEST JUMPDEST DUP3 DUP3 MOD SWAP1 POP SWAP3 SWAP2 POP POP JUMP JUMPDEST PUSH32 0x4F766572666C6F77206572726F72000000000000000000000000000000000000 PUSH1 0x0 DUP3 ADD MSTORE POP JUMP JUMPDEST PUSH1 0x0 PUSH2 0x139B PUSH1 0xE DUP4 PUSH2 0xC70 JUMP JUMPDEST SWAP2 POP PUSH2 0x13A6 DUP3 PUSH2 0x1365 JUMP JUMPDEST PUSH1 0x20 DUP3 ADD SWAP1 POP SWAP2 SWAP1 POP JUMP JUMPDEST PUSH1 0x0 PUSH1 0x20 DUP3 ADD SWAP1 POP DUP2 DUP2 SUB PUSH1 0x0 DUP4 ADD MSTORE PUSH2 0x13CA DUP2 PUSH2 0x138E JUMP JUMPDEST SWAP1 POP SWAP2 SWAP1 POP JUMP JUMPDEST PUSH1 0x0 PUSH2 0x13DC DUP3 PUSH2 0x91F JUMP JUMPDEST SWAP2 POP PUSH32 0xFFFFFFFFFFFFFFFFFFFFFFFFFFFFFFFFFFFFFFFFFFFFFFFFFFFFFFFFFFFFFFFF DUP3 EQ ISZERO PUSH2 0x140F JUMPI PUSH2 0x140E PUSH2 0xD08 JUMP JUMPDEST JUMPDEST PUSH1 0x1 DUP3 ADD SWAP1 POP SWAP2 SWAP1 POP JUMP JUMPDEST PUSH32 0x4E487B7100000000000000000000000000000000000000000000000000000000 PUSH1 0x0 MSTORE PUSH1 0x22 PUSH1 0x4 MSTORE PUSH1 0x24 PUSH1 0x0 REVERT JUMPDEST PUSH1 0x0 PUSH1 0x2 DUP3 DIV SWAP1 POP PUSH1 0x1 DUP3 AND DUP1 PUSH2 0x1461 JUMPI PUSH1 0x7F DUP3 AND SWAP2 POP JUMPDEST PUSH1 0x20 DUP3 LT DUP2 EQ ISZERO PUSH2 0x1475 JUMPI PUSH2 0x1474 PUSH2 0x141A JUMP JUMPDEST JUMPDEST POP SWAP2 SWAP1 POP JUMP INVALID LOG2 PUSH5 0x6970667358 0x22 SLT KECCAK256 0xB3 0xD3 0xE3 0xC7 DUP12 0xE SAR 0xB8 XOR 0x26 0x1E 0x49 0x5E MUL 0xE8 0xB3 SELFBALANCE STOP STATICCALL 0x2B JUMPI POP RETURNDATASIZE 0xAA 0xBD 0xB8 CALL 0x4B PUSH31 0xFB34CE64736F6C634300080900330000000000000000000000000000000000 "},"methodIdentifiers":{"getReputation(bytes32)":"d14519d2","report(bytes32,uint256,string)":"addfa182","setReporterRateLimit(uint64)":"d99a3927"}}}}}