{
  "_format": "hh-sol-artifact-1",
  "contractName": "CreepzIdManager",
  "sourceName": "contracts/implementation/CreepzIdManager.sol",
  "abi": [
    {
      "inputs": [],
      "stateMutability": "nonpayable",
      "type": "constructor"
    },
    {
      "inputs": [],
      "name": "ReporterRateLimitExceeded",
      "type": "error"
    },
    {
      "anonymous": false,
      "inputs": [
        {
          "indexed": false,
          "internalType": "bytes32",
          "name": "against",
          "type": "bytes32"
        },
        {
          "indexed": false,
          "internalType": "uint256",
          "name": "severity",
          "type": "uint256"
        }
      ],
      "name": "NewReport",
      "type": "event"
    },
    {
      "anonymous": false,
      "inputs": [
        {
          "indexed": true,
          "internalType": "address",
          "name": "previousOwner",
          "type": "address"
        },
        {
          "indexed": true,
          "internalType": "address",
          "name": "newOwner",
          "type": "address"
        }
      ],
      "name": "OwnershipTransferred",
      "type": "event"
    },
    {
      "anonymous": false,
      "inputs": [
        {
          "indexed": true,
          "internalType": "bytes32",
          "name": "role",
          "type": "bytes32"
        },
        {
          "indexed": true,
          "internalType": "bytes32",
          "name": "previousAdminRole",
          "type": "bytes32"
        },
        {
          "indexed": true,
          "internalType": "bytes32",
          "name": "newAdminRole",
          "type": "bytes32"
        }
      ],
      "name": "RoleAdminChanged",
      "type": "event"
    },
    {
      "anonymous": false,
      "inputs": [
        {
          "indexed": true,
          "internalType": "bytes32",
          "name": "role",
          "type": "bytes32"
        },
        {
          "indexed": true,
          "internalType": "address",
          "name": "account",
          "type": "address"
        },
        {
          "indexed": true,
          "internalType": "address",
          "name": "sender",
          "type": "address"
        }
      ],
      "name": "RoleGranted",
      "type": "event"
    },
    {
      "anonymous": false,
      "inputs": [
        {
          "indexed": true,
          "internalType": "bytes32",
          "name": "role",
          "type": "bytes32"
        },
        {
          "indexed": true,
          "internalType": "address",
          "name": "account",
          "type": "address"
        },
        {
          "indexed": true,
          "internalType": "address",
          "name": "sender",
          "type": "address"
        }
      ],
      "name": "RoleRevoked",
      "type": "event"
    },
    {
      "stateMutability": "payable",
      "type": "fallback"
    },
    {
      "inputs": [],
      "name": "COMMUNITY_MODERATOR_ROLE",
      "outputs": [
        {
          "internalType": "bytes32",
          "name": "",
          "type": "bytes32"
        }
      ],
      "stateMutability": "view",
      "type": "function"
    },
    {
      "inputs": [],
      "name": "DEFAULT_ADMIN_ROLE",
      "outputs": [
        {
          "internalType": "bytes32",
          "name": "",
          "type": "bytes32"
        }
      ],
      "stateMutability": "view",
      "type": "function"
    },
    {
      "inputs": [],
      "name": "REPORT_REQUEST_ID",
      "outputs": [
        {
          "internalType": "uint64",
          "name": "",
          "type": "uint64"
        }
      ],
      "stateMutability": "view",
      "type": "function"
    },
    {
      "inputs": [
        {
          "internalType": "address",
          "name": "",
          "type": "address"
        }
      ],
      "name": "addressToId",
      "outputs": [
        {
          "internalType": "uint256",
          "name": "",
          "type": "uint256"
        }
      ],
      "stateMutability": "view",
      "type": "function"
    },
    {
      "inputs": [
        {
          "internalType": "bytes32",
          "name": "identifier",
          "type": "bytes32"
        }
      ],
      "name": "getReputation",
      "outputs": [
        {
          "internalType": "int256",
          "name": "score",
          "type": "int256"
        }
      ],
      "stateMutability": "view",
      "type": "function"
    },
    {
      "inputs": [
        {
          "internalType": "bytes32",
          "name": "role",
          "type": "bytes32"
        }
      ],
      "name": "getRoleAdmin",
      "outputs": [
        {
          "internalType": "bytes32",
          "name": "",
          "type": "bytes32"
        }
      ],
      "stateMutability": "view",
      "type": "function"
    },
    {
      "inputs": [],
      "name": "getSupportedRequests",
      "outputs": [
        {
          "internalType": "uint64[]",
          "name": "arr",
          "type": "uint64[]"
        }
      ],
      "stateMutability": "view",
      "type": "function"
    },
    {
      "inputs": [
        {
          "internalType": "uint64",
          "name": "requestId",
          "type": "uint64"
        }
      ],
      "name": "getZKPRequest",
      "outputs": [
        {
          "components": [
            {
              "internalType": "uint256",
              "name": "schema",
              "type": "uint256"
            },
            {
              "internalType": "uint256",
              "name": "slotIndex",
              "type": "uint256"
            },
            {
              "internalType": "uint256",
              "name": "operator",
              "type": "uint256"
            },
            {
              "internalType": "uint256[]",
              "name": "value",
              "type": "uint256[]"
            },
            {
              "internalType": "string",
              "name": "circuitId",
              "type": "string"
            }
          ],
          "internalType": "struct ICircuitValidator.CircuitQuery",
          "name": "",
          "type": "tuple"
        }
      ],
      "stateMutability": "view",
      "type": "function"
    },
    {
      "inputs": [
        {
          "internalType": "bytes32",
          "name": "role",
          "type": "bytes32"
        },
        {
          "internalType": "address",
          "name": "account",
          "type": "address"
        }
      ],
      "name": "grantRole",
      "outputs": [],
      "stateMutability": "nonpayable",
      "type": "function"
    },
    {
      "inputs": [
        {
          "internalType": "bytes32",
          "name": "role",
          "type": "bytes32"
        },
        {
          "internalType": "address",
          "name": "account",
          "type": "address"
        }
      ],
      "name": "hasRole",
      "outputs": [
        {
          "internalType": "bool",
          "name": "",
          "type": "bool"
        }
      ],
      "stateMutability": "view",
      "type": "function"
    },
    {
      "inputs": [
        {
          "internalType": "uint256",
          "name": "",
          "type": "uint256"
        }
      ],
      "name": "idToAddress",
      "outputs": [
        {
          "internalType": "address",
          "name": "",
          "type": "address"
        }
      ],
      "stateMutability": "view",
      "type": "function"
    },
    {
      "inputs": [],
      "name": "owner",
      "outputs": [
        {
          "internalType": "address",
          "name": "",
          "type": "address"
        }
      ],
      "stateMutability": "view",
      "type": "function"
    },
    {
      "inputs": [
        {
          "internalType": "address",
          "name": "",
          "type": "address"
        },
        {
          "internalType": "uint64",
          "name": "",
          "type": "uint64"
        }
      ],
      "name": "proofs",
      "outputs": [
        {
          "internalType": "bool",
          "name": "",
          "type": "bool"
        }
      ],
      "stateMutability": "view",
      "type": "function"
    },
    {
      "inputs": [],
      "name": "renounceOwnership",
      "outputs": [],
      "stateMutability": "nonpayable",
      "type": "function"
    },
    {
      "inputs": [
        {
          "internalType": "bytes32",
          "name": "role",
          "type": "bytes32"
        },
        {
          "internalType": "address",
          "name": "account",
          "type": "address"
        }
      ],
      "name": "renounceRole",
      "outputs": [],
      "stateMutability": "nonpayable",
      "type": "function"
    },
    {
      "inputs": [
        {
          "internalType": "bytes32",
          "name": "id",
          "type": "bytes32"
        },
        {
          "internalType": "uint256",
          "name": "severity",
          "type": "uint256"
        },
        {
          "internalType": "string",
          "name": "metadataCID",
          "type": "string"
        }
      ],
      "name": "report",
      "outputs": [
        {
          "internalType": "bytes32",
          "name": "newReportId",
          "type": "bytes32"
        }
      ],
      "stateMutability": "nonpayable",
      "type": "function"
    },
    {
      "inputs": [
        {
          "internalType": "uint64",
          "name": "",
          "type": "uint64"
        }
      ],
      "name": "requestQueries",
      "outputs": [
        {
          "internalType": "uint256",
          "name": "schema",
          "type": "uint256"
        },
        {
          "internalType": "uint256",
          "name": "slotIndex",
          "type": "uint256"
        },
        {
          "internalType": "uint256",
          "name": "operator",
          "type": "uint256"
        },
        {
          "internalType": "string",
          "name": "circuitId",
          "type": "string"
        }
      ],
      "stateMutability": "view",
      "type": "function"
    },
    {
      "inputs": [
        {
          "internalType": "uint64",
          "name": "",
          "type": "uint64"
        }
      ],
      "name": "requestValidators",
      "outputs": [
        {
          "internalType": "contract ICircuitValidator",
          "name": "",
          "type": "address"
        }
      ],
      "stateMutability": "view",
      "type": "function"
    },
    {
      "inputs": [
        {
          "internalType": "bytes32",
          "name": "role",
          "type": "bytes32"
        },
        {
          "internalType": "address",
          "name": "account",
          "type": "address"
        }
      ],
      "name": "revokeRole",
      "outputs": [],
      "stateMutability": "nonpayable",
      "type": "function"
    },
    {
      "inputs": [
        {
          "internalType": "uint64",
          "name": "aRate",
          "type": "uint64"
        }
      ],
      "name": "setReporterRateLimit",
      "outputs": [
        {
          "internalType": "bool",
          "name": "result",
          "type": "bool"
        }
      ],
      "stateMutability": "nonpayable",
      "type": "function"
    },
    {
      "inputs": [
        {
          "internalType": "uint64",
          "name": "requestId",
          "type": "uint64"
        },
        {
          "internalType": "contract ICircuitValidator",
          "name": "validator",
          "type": "address"
        },
        {
          "components": [
            {
              "internalType": "uint256",
              "name": "schema",
              "type": "uint256"
            },
            {
              "internalType": "uint256",
              "name": "slotIndex",
              "type": "uint256"
            },
            {
              "internalType": "uint256",
              "name": "operator",
              "type": "uint256"
            },
            {
              "internalType": "uint256[]",
              "name": "value",
              "type": "uint256[]"
            },
            {
              "internalType": "string",
              "name": "circuitId",
              "type": "string"
            }
          ],
          "internalType": "struct ICircuitValidator.CircuitQuery",
          "name": "query",
          "type": "tuple"
        }
      ],
      "name": "setZKPRequest",
      "outputs": [
        {
          "internalType": "bool",
          "name": "",
          "type": "bool"
        }
      ],
      "stateMutability": "nonpayable",
      "type": "function"
    },
    {
      "inputs": [
        {
          "internalType": "uint64",
          "name": "requestId",
          "type": "uint64"
        },
        {
          "internalType": "uint256[]",
          "name": "inputs",
          "type": "uint256[]"
        },
        {
          "internalType": "uint256[2]",
          "name": "a",
          "type": "uint256[2]"
        },
        {
          "internalType": "uint256[2][2]",
          "name": "b",
          "type": "uint256[2][2]"
        },
        {
          "internalType": "uint256[2]",
          "name": "c",
          "type": "uint256[2]"
        }
      ],
      "name": "submitZKPResponse",
      "outputs": [
        {
          "internalType": "bool",
          "name": "",
          "type": "bool"
        }
      ],
      "stateMutability": "nonpayable",
      "type": "function"
    },
    {
      "inputs": [
        {
          "internalType": "uint256",
          "name": "",
          "type": "uint256"
        }
      ],
      "name": "supportedRequests",
      "outputs": [
        {
          "internalType": "uint64",
          "name": "",
          "type": "uint64"
        }
      ],
      "stateMutability": "view",
      "type": "function"
    },
    {
      "inputs": [
        {
          "internalType": "bytes4",
          "name": "interfaceId",
          "type": "bytes4"
        }
      ],
      "name": "supportsInterface",
      "outputs": [
        {
          "internalType": "bool",
          "name": "",
          "type": "bool"
        }
      ],
      "stateMutability": "view",
      "type": "function"
    },
    {
      "inputs": [
        {
          "internalType": "address",
          "name": "newOwner",
          "type": "address"
        }
      ],
      "name": "transferOwnership",
      "outputs": [],
      "stateMutability": "nonpayable",
      "type": "function"
    },
    {
      "stateMutability": "payable",
      "type": "receive"
    }
  ],
  "bytecode": "0x60806040523480156200001157600080fd5b5062000032620000266200006360201b60201c565b6200006b60201b60201c565b620000476000801b336200013160201b60201c565b6200005d64174876e8006200022360201b60201c565b6200048c565b600033905090565b6000600560009054906101000a900473ffffffffffffffffffffffffffffffffffffffff16905081600560006101000a81548173ffffffffffffffffffffffffffffffffffffffff021916908373ffffffffffffffffffffffffffffffffffffffff1602179055508173ffffffffffffffffffffffffffffffffffffffff168173ffffffffffffffffffffffffffffffffffffffff167f8be0079c531659141344cd1fd0a4f28419497f9722a3daafe3b4186f6b6457e060405160405180910390a35050565b6200014382826200024160201b60201c565b6200021f5760016004600084815260200190815260200160002060000160008373ffffffffffffffffffffffffffffffffffffffff1673ffffffffffffffffffffffffffffffffffffffff16815260200190815260200160002060006101000a81548160ff021916908315150217905550620001c46200006360201b60201c565b73ffffffffffffffffffffffffffffffffffffffff168173ffffffffffffffffffffffffffffffffffffffff16837f2f8788117e7eff1d82e926ec794901d17c78024a50270940304540a733656f0d60405160405180910390a45b5050565b6200023e816000620002ac60201b620016c01790919060201c565b50565b60006004600084815260200190815260200160002060000160008373ffffffffffffffffffffffffffffffffffffffff1673ffffffffffffffffffffffffffffffffffffffff16815260200190815260200160002060009054906101000a900460ff16905092915050565b620002bd81620002dd60201b60201c565b8260010160006101000a81548160ff021916908360ff1602179055505050565b6000806001606484620002f1919062000367565b619000620003009190620003f7565b6200030c91906200042f565b905061010081101562000323578091505062000329565b60ff9150505b919050565b6000819050919050565b7f4e487b7100000000000000000000000000000000000000000000000000000000600052601160045260246000fd5b600062000374826200032e565b915062000381836200032e565b9250817fffffffffffffffffffffffffffffffffffffffffffffffffffffffffffffffff0483118215151615620003bd57620003bc62000338565b5b828202905092915050565b7f4e487b7100000000000000000000000000000000000000000000000000000000600052601260045260246000fd5b600062000404826200032e565b915062000411836200032e565b925082620004245762000423620003c8565b5b828204905092915050565b60006200043c826200032e565b915062000449836200032e565b9250827fffffffffffffffffffffffffffffffffffffffffffffffffffffffffffffffff0382111562000481576200048062000338565b5b828201905092915050565b614a34806200049c6000396000f3fe60806040526004361061016a5760003560e01c8063a8723114116100d1578063d14519d21161008a578063ece3316511610064578063ece33165146105cd578063f1435326146105f8578063f2fde38b14610635578063fee207e61461065e57610171565b8063d14519d21461052a578063d547741f14610567578063d99a39271461059057610171565b8063a8723114146103bc578063addfa182146103f9578063b45c0fdf14610436578063b68967e214610473578063c76d0845146104b0578063cb0e0d7d146104ed57610171565b80635a1eff52116101235780635a1eff52146102a7578063715018a6146102d25780638da5cb5b146102e957806391d148541461031457806396bf474114610351578063a217fddf1461039157610171565b806301ffc9a714610173578063248a9ca3146101b05780632a2d0c47146101ed5780632f2ff15d1461022a57806336568abe1461025357806337ba95231461027c57610171565b3661017157005b005b34801561017f57600080fd5b5061019a6004803603810190610195919061292e565b61069b565b6040516101a79190612976565b60405180910390f35b3480156101bc57600080fd5b506101d760048036038101906101d291906129c7565b610715565b6040516101e49190612a03565b60405180910390f35b3480156101f957600080fd5b50610214600480360381019061020f9190612a54565b610735565b6040516102219190612ac2565b60405180910390f35b34801561023657600080fd5b50610251600480360381019061024c9190612b09565b610768565b005b34801561025f57600080fd5b5061027a60048036038101906102759190612b09565b610789565b005b34801561028857600080fd5b5061029161080c565b60405161029e9190612c1b565b60405180910390f35b3480156102b357600080fd5b506102bc610898565b6040516102c99190612a03565b60405180910390f35b3480156102de57600080fd5b506102e76108bc565b005b3480156102f557600080fd5b506102fe6108d0565b60405161030b9190612ac2565b60405180910390f35b34801561032057600080fd5b5061033b60048036038101906103369190612b09565b6108fa565b6040516103489190612976565b60405180910390f35b34801561035d57600080fd5b5061037860048036038101906103739190612c69565b610965565b6040516103889493929190612d3e565b60405180910390f35b34801561039d57600080fd5b506103a6610a1d565b6040516103b39190612a03565b60405180910390f35b3480156103c857600080fd5b506103e360048036038101906103de9190612c69565b610a24565b6040516103f09190612de9565b60405180910390f35b34801561040557600080fd5b50610420600480360381019061041b9190612e69565b610a57565b60405161042d9190612a03565b60405180910390f35b34801561044257600080fd5b5061045d60048036038101906104589190612edd565b610da9565b60405161046a9190612976565b60405180910390f35b34801561047f57600080fd5b5061049a600480360381019061049591906131bd565b610dd8565b6040516104a79190612976565b60405180910390f35b3480156104bc57600080fd5b506104d760048036038101906104d29190612c69565b611169565b6040516104e491906133db565b60405180910390f35b3480156104f957600080fd5b50610514600480360381019061050f91906133fd565b6112b2565b604051610521919061342a565b60405180910390f35b34801561053657600080fd5b50610551600480360381019061054c91906129c7565b6112ca565b60405161055e919061345e565b60405180910390f35b34801561057357600080fd5b5061058e60048036038101906105899190612b09565b6112ea565b005b34801561059c57600080fd5b506105b760048036038101906105b29190612c69565b61130b565b6040516105c49190612976565b60405180910390f35b3480156105d957600080fd5b506105e2611349565b6040516105ef9190613488565b60405180910390f35b34801561060457600080fd5b5061061f600480360381019061061a9190612a54565b61134e565b60405161062c9190613488565b60405180910390f35b34801561064157600080fd5b5061065c600480360381019061065791906133fd565b61138c565b005b34801561066a57600080fd5b5061068560048036038101906106809190613664565b611410565b6040516106929190612976565b60405180910390f35b60007f7965db0b000000000000000000000000000000000000000000000000000000007bffffffffffffffffffffffffffffffffffffffffffffffffffffffff1916827bffffffffffffffffffffffffffffffffffffffffffffffffffffffff1916148061070e575061070d826116e9565b5b9050919050565b600060046000838152602001908152602001600020600101549050919050565b600a6020528060005260406000206000915054906101000a900473ffffffffffffffffffffffffffffffffffffffff1681565b61077182610715565b61077a81611753565b6107848383611767565b505050565b610791611848565b73ffffffffffffffffffffffffffffffffffffffff168173ffffffffffffffffffffffffffffffffffffffff16146107fe576040517f08c379a00000000000000000000000000000000000000000000000000000000081526004016107f590613745565b60405180910390fd5b6108088282611850565b5050565b6060600980548060200260200160405190810160405280929190818152602001828054801561088e57602002820191906000526020600020906000905b82829054906101000a900467ffffffffffffffff1667ffffffffffffffff16815260200190600801906020826007010492830192600103820291508084116108495790505b5050505050905090565b7f277380851101b908288439c0a0f2ea6552ce5429b832eeede59943703cbbc16881565b6108c4611932565b6108ce60006119b0565b565b6000600560009054906101000a900473ffffffffffffffffffffffffffffffffffffffff16905090565b60006004600084815260200190815260200160002060000160008373ffffffffffffffffffffffffffffffffffffffff1673ffffffffffffffffffffffffffffffffffffffff16815260200190815260200160002060009054906101000a900460ff16905092915050565b600760205280600052604060002060009150905080600001549080600101549080600201549080600401805461099a90613794565b80601f01602080910402602001604051908101604052809291908181526020018280546109c690613794565b8015610a135780601f106109e857610100808354040283529160200191610a13565b820191906000526020600020905b8154815290600101906020018083116109f657829003601f168201915b5050505050905084565b6000801b81565b60086020528060005260406000206000915054906101000a900473ffffffffffffffffffffffffffffffffffffffff1681565b6000610a61611a76565b610a9e336001604051602001610a7892919061382f565b604051602081830303815290604052805190602001206000611bad90919063ffffffff16565b15610ad5576040517f9689cb0f00000000000000000000000000000000000000000000000000000000815260040160405180910390fd5b60003386604051602001610aea92919061387c565b6040516020818303038152906040528051906020012090506000801b600c60008381526020019081526020016000206000015414610b5d576040517f08c379a0000000000000000000000000000000000000000000000000000000008152600401610b54906138f4565b60405180910390fd5b60011515600660003373ffffffffffffffffffffffffffffffffffffffff1673ffffffffffffffffffffffffffffffffffffffff1681526020019081526020016000206000600167ffffffffffffffff1667ffffffffffffffff16815260200190815260200160002060009054906101000a900460ff16151514610c16576040517f08c379a0000000000000000000000000000000000000000000000000000000008152600401610c0d906139ac565b60405180910390fd5b604051806080016040528082815260200187815260200186815260200185858080601f016020809104026020016040519081016040528093929190818152602001838380828437600081840152601f19601f82011690508083019250505050505050815250600c60008381526020019081526020016000206000820151816000015560208201518160010155604082015181600201556060820151816003019080519060200190610cc89291906127a3565b509050506000610cdb8660016014611bd7565b9050600033604051602001610cf091906139cc565b604051602081830303815290604052805190602001209050610d1b8883610d1690613a16565b611c0f565b6000600d6000838152602001908152602001600020600001541415610d4a57610d45816005611c0f565b610d62565b610d618160026001610d5c9190613a5f565b611c0f565b5b7f1471883da0c9e2a8e7d5284477ff356083fc400504747a5d4110bda87bd9a7d28888604051610d93929190613b76565b60405180910390a1829350505050949350505050565b60066020528160005260406000206020528060005260406000206000915091509054906101000a900460ff1681565b60008073ffffffffffffffffffffffffffffffffffffffff16600860008867ffffffffffffffff1667ffffffffffffffff16815260200190815260200160002060009054906101000a900473ffffffffffffffffffffffffffffffffffffffff1673ffffffffffffffffffffffffffffffffffffffff161415610e90576040517f08c379a0000000000000000000000000000000000000000000000000000000008152600401610e8790613c11565b60405180910390fd5b6000600760008867ffffffffffffffff1667ffffffffffffffff168152602001908152602001600020600001541415610efe576040517f08c379a0000000000000000000000000000000000000000000000000000000008152600401610ef590613ca3565b60405180910390fd5b610f508686600860008a67ffffffffffffffff1667ffffffffffffffff16815260200190815260200160002060009054906101000a900473ffffffffffffffffffffffffffffffffffffffff16611cd5565b600860008767ffffffffffffffff1667ffffffffffffffff16815260200190815260200160002060009054906101000a900473ffffffffffffffffffffffffffffffffffffffff1673ffffffffffffffffffffffffffffffffffffffff166367e1d50486868686600760008d67ffffffffffffffff1667ffffffffffffffff1681526020019081526020016000206040518663ffffffff1660e01b8152600401610ffe9594939291906140bd565b60206040518083038186803b15801561101657600080fd5b505afa15801561102a573d6000803e3d6000fd5b505050506040513d601f19601f8201168201806040525081019061104e919061414c565b61108d576040517f08c379a0000000000000000000000000000000000000000000000000000000008152600401611084906141c5565b60405180910390fd5b6001600660003373ffffffffffffffffffffffffffffffffffffffff1673ffffffffffffffffffffffffffffffffffffffff16815260200190815260200160002060008867ffffffffffffffff1667ffffffffffffffff16815260200190815260200160002060006101000a81548160ff02191690831515021790555061115c8686600860008a67ffffffffffffffff1667ffffffffffffffff16815260200190815260200160002060009054906101000a900473ffffffffffffffffffffffffffffffffffffffff16611df4565b6001905095945050505050565b611171612829565b600760008367ffffffffffffffff1667ffffffffffffffff1681526020019081526020016000206040518060a00160405290816000820154815260200160018201548152602001600282015481526020016003820180548060200260200160405190810160405280929190818152602001828054801561121057602002820191906000526020600020905b8154815260200190600101908083116111fc575b5050505050815260200160048201805461122990613794565b80601f016020809104026020016040519081016040528092919081815260200182805461125590613794565b80156112a25780601f10611277576101008083540402835291602001916112a2565b820191906000526020600020905b81548152906001019060200180831161128557829003601f168201915b5050505050815250509050919050565b600b6020528060005260406000206000915090505481565b6000600d6000838152602001908152602001600020600001549050919050565b6112f382610715565b6112fc81611753565b6113068383611850565b505050565b60006113377f277380851101b908288439c0a0f2ea6552ce5429b832eeede59943703cbbc168336108fa565b61134057600080fd5b60009050919050565b600181565b6009818154811061135e57600080fd5b9060005260206000209060049182820401919006600802915054906101000a900467ffffffffffffffff1681565b611394611932565b600073ffffffffffffffffffffffffffffffffffffffff168173ffffffffffffffffffffffffffffffffffffffff161415611404576040517f08c379a00000000000000000000000000000000000000000000000000000000081526004016113fb90614257565b60405180910390fd5b61140d816119b0565b50565b600061141a611932565b600073ffffffffffffffffffffffffffffffffffffffff16600860008667ffffffffffffffff1667ffffffffffffffff16815260200190815260200160002060009054906101000a900473ffffffffffffffffffffffffffffffffffffffff1673ffffffffffffffffffffffffffffffffffffffff1614156114ed5760098490806001815401808255809150506001900390600052602060002090600491828204019190066008029091909190916101000a81548167ffffffffffffffff021916908367ffffffffffffffff1602179055505b8160600151600760008667ffffffffffffffff1667ffffffffffffffff168152602001908152602001600020600301908051906020019061152f929190612858565b508160400151600760008667ffffffffffffffff1667ffffffffffffffff168152602001908152602001600020600201819055508160800151600760008667ffffffffffffffff1667ffffffffffffffff16815260200190815260200160002060040190805190602001906115a59291906127a3565b508160200151600760008667ffffffffffffffff1667ffffffffffffffff168152602001908152602001600020600101819055508160000151600760008667ffffffffffffffff1667ffffffffffffffff168152602001908152602001600020600001819055508160800151600760008667ffffffffffffffff1667ffffffffffffffff168152602001908152602001600020600401908051906020019061164e9291906127a3565b5082600860008667ffffffffffffffff1667ffffffffffffffff16815260200190815260200160002060006101000a81548173ffffffffffffffffffffffffffffffffffffffff021916908373ffffffffffffffffffffffffffffffffffffffff160217905550600190509392505050565b6116c98161204c565b8260010160006101000a81548160ff021916908360ff1602179055505050565b60007f01ffc9a7000000000000000000000000000000000000000000000000000000007bffffffffffffffffffffffffffffffffffffffffffffffffffffffff1916827bffffffffffffffffffffffffffffffffffffffffffffffffffffffff1916149050919050565b6117648161175f611848565b612095565b50565b61177182826108fa565b6118445760016004600084815260200190815260200160002060000160008373ffffffffffffffffffffffffffffffffffffffff1673ffffffffffffffffffffffffffffffffffffffff16815260200190815260200160002060006101000a81548160ff0219169083151502179055506117e9611848565b73ffffffffffffffffffffffffffffffffffffffff168173ffffffffffffffffffffffffffffffffffffffff16837f2f8788117e7eff1d82e926ec794901d17c78024a50270940304540a733656f0d60405160405180910390a45b5050565b600033905090565b61185a82826108fa565b1561192e5760006004600084815260200190815260200160002060000160008373ffffffffffffffffffffffffffffffffffffffff1673ffffffffffffffffffffffffffffffffffffffff16815260200190815260200160002060006101000a81548160ff0219169083151502179055506118d3611848565b73ffffffffffffffffffffffffffffffffffffffff168173ffffffffffffffffffffffffffffffffffffffff16837ff6391f5c32d9c69d2a47ea670b442974b53935d1edc7fd64eb21e047a839171b60405160405180910390a45b5050565b61193a611848565b73ffffffffffffffffffffffffffffffffffffffff166119586108d0565b73ffffffffffffffffffffffffffffffffffffffff16146119ae576040517f08c379a00000000000000000000000000000000000000000000000000000000081526004016119a5906142c3565b60405180910390fd5b565b6000600560009054906101000a900473ffffffffffffffffffffffffffffffffffffffff16905081600560006101000a81548173ffffffffffffffffffffffffffffffffffffffff021916908373ffffffffffffffffffffffffffffffffffffffff1602179055508173ffffffffffffffffffffffffffffffffffffffff168173ffffffffffffffffffffffffffffffffffffffff167f8be0079c531659141344cd1fd0a4f28419497f9722a3daafe3b4186f6b6457e060405160405180910390a35050565b600033604051602001611a8991906139cc565b6040516020818303038152906040528051906020012090506000600260008381526020019081526020016000205490506000811415611ae057601e9050601e60026000848152602001908152602001600020819055505b60006003600084815260200190815260200160002054905060008142611b0691906142e3565b9050828110611b5157611b4c336000604051602001611b2692919061382f565b60405160208183030381529060405280519060200120600061211a90919063ffffffff16565b611b8f565b611b8e336001604051602001611b6892919061382f565b60405160208183030381529060405280519060200120600061211a90919063ffffffff16565b5b42600360008681526020019081526020016000208190555050505050565b6000611bcf83600001548460010160009054906101000a900460ff1684612146565b905092915050565b6000808385611be691906142e3565b905060008484611bf691906142e3565b90508082611c049190614346565b925050509392505050565b6000600d60008481526020019081526020016000206000015490506000600d60008581526020019081526020016000206001015490506000600182611c549190614377565b6004858486611c639190613a5f565b611c6d91906143cd565b611c7791906143cd565b611c819190614461565b90506040518060400160405280828152602001600184611ca19190614377565b815250600d600087815260200190815260200160002060008201518160000155602082015181600101559050505050505050565b6000611d77838373ffffffffffffffffffffffffffffffffffffffff16639f442afa6040518163ffffffff1660e01b815260040160206040518083038186803b158015611d2157600080fd5b505afa158015611d35573d6000803e3d6000fd5b505050506040513d601f19601f82011682018060405250810190611d5991906144e0565b81518110611d6a57611d6961450d565b5b602002602001015161225c565b90508073ffffffffffffffffffffffffffffffffffffffff16611d98611848565b73ffffffffffffffffffffffffffffffffffffffff1614611dee576040517f08c379a0000000000000000000000000000000000000000000000000000000008152600401611de5906145ae565b60405180910390fd5b50505050565b600167ffffffffffffffff168367ffffffffffffffff16148015611e5e57506000600b6000611e21611848565b73ffffffffffffffffffffffffffffffffffffffff1673ffffffffffffffffffffffffffffffffffffffff16815260200190815260200160002054145b611e9d576040517f08c379a0000000000000000000000000000000000000000000000000000000008152600401611e9490614640565b60405180910390fd5b6000828273ffffffffffffffffffffffffffffffffffffffff16639f442afa6040518163ffffffff1660e01b815260040160206040518083038186803b158015611ee657600080fd5b505afa158015611efa573d6000803e3d6000fd5b505050506040513d601f19601f82011682018060405250810190611f1e91906144e0565b81518110611f2f57611f2e61450d565b5b60200260200101519050600073ffffffffffffffffffffffffffffffffffffffff16600a600083815260200190815260200160002060009054906101000a900473ffffffffffffffffffffffffffffffffffffffff1673ffffffffffffffffffffffffffffffffffffffff1614156120465780600b6000611fae611848565b73ffffffffffffffffffffffffffffffffffffffff1673ffffffffffffffffffffffffffffffffffffffff16815260200190815260200160002081905550611ff4611848565b600a600083815260200190815260200160002060006101000a81548173ffffffffffffffffffffffffffffffffffffffff021916908373ffffffffffffffffffffffffffffffffffffffff1602179055505b50505050565b600080600160648461205e9190614660565b61900061206b9190614346565b6120759190614377565b905061010081101561208a5780915050612090565b60ff9150505b919050565b61209f82826108fa565b612116576120ac8161227e565b6120ba8360001c60206122ab565b6040516020016120cb92919061478e565b6040516020818303038152906040526040517f08c379a000000000000000000000000000000000000000000000000000000000815260040161210d91906147c8565b60405180910390fd5b5050565b61213a82600001548360010160009054906101000a900460ff16836124e7565b82600001819055505050565b6000808360ff161161218d576040517f08c379a000000000000000000000000000000000000000000000000000000000815260040161218490614836565b60405180910390fd5b60005b8360ff1681101561224f57600061010084836040516020016121b3929190614856565b6040516020818303038152906040528051906020012060001c6121d69190614882565b9050610100811061221c576040517f08c379a0000000000000000000000000000000000000000000000000000000008152600401612213906148ff565b60405180910390fd5b6000816001901b9050808717871461223a5760009350505050612255565b505080806122479061491f565b915050612190565b50600190505b9392505050565b600061227761227261226d846125ec565b612738565b612795565b9050919050565b60606122a48273ffffffffffffffffffffffffffffffffffffffff16601460ff166122ab565b9050919050565b6060600060028360026122be9190614660565b6122c89190614377565b67ffffffffffffffff8111156122e1576122e0612f1d565b5b6040519080825280601f01601f1916602001820160405280156123135781602001600182028036833780820191505090505b5090507f30000000000000000000000000000000000000000000000000000000000000008160008151811061234b5761234a61450d565b5b60200101907effffffffffffffffffffffffffffffffffffffffffffffffffffffffffffff1916908160001a9053507f7800000000000000000000000000000000000000000000000000000000000000816001815181106123af576123ae61450d565b5b60200101907effffffffffffffffffffffffffffffffffffffffffffffffffffffffffffff1916908160001a905350600060018460026123ef9190614660565b6123f99190614377565b90505b6001811115612499577f3031323334353637383961626364656600000000000000000000000000000000600f86166010811061243b5761243a61450d565b5b1a60f81b8282815181106124525761245161450d565b5b60200101907effffffffffffffffffffffffffffffffffffffffffffffffffffffffffffff1916908160001a905350600485901c94508061249290614968565b90506123fc565b50600084146124dd576040517f08c379a00000000000000000000000000000000000000000000000000000000081526004016124d4906149de565b60405180910390fd5b8091505092915050565b600083905060008360ff1611612532576040517f08c379a000000000000000000000000000000000000000000000000000000000815260040161252990614836565b60405180910390fd5b60005b8360ff168110156125e45760006101008483604051602001612558929190614856565b6040516020818303038152906040528051906020012060001c61257b9190614882565b905061010081106125c1576040517f08c379a00000000000000000000000000000000000000000000000000000000081526004016125b8906148ff565b60405180910390fd5b6000816001901b90508084179350505080806125dc9061491f565b915050612535565b509392505050565b600081905060087eff00ff00ff00ff00ff00ff00ff00ff00ff00ff00ff00ff00ff00ff00ff00ff8216901b60087fff00ff00ff00ff00ff00ff00ff00ff00ff00ff00ff00ff00ff00ff00ff00ff008316901c17905060107dffff0000ffff0000ffff0000ffff0000ffff0000ffff0000ffff0000ffff8216901b60107fffff0000ffff0000ffff0000ffff0000ffff0000ffff0000ffff0000ffff00008316901c17905060207bffffffff00000000ffffffff00000000ffffffff00000000ffffffff8216901b60207fffffffff00000000ffffffff00000000ffffffff00000000ffffffff000000008316901c179050604077ffffffffffffffff0000000000000000ffffffffffffffff8216901b60407fffffffffffffffff0000000000000000ffffffffffffffff00000000000000008316901c179050608081901b608082901c179050919050565b6060602067ffffffffffffffff81111561275557612754612f1d565b5b6040519080825280601f01601f1916602001820160405280156127875781602001600182028036833780820191505090505b509050816020820152919050565b600060148201519050919050565b8280546127af90613794565b90600052602060002090601f0160209004810192826127d15760008555612818565b82601f106127ea57805160ff1916838001178555612818565b82800160010185558215612818579182015b828111156128175782518255916020019190600101906127fc565b5b50905061282591906128a5565b5090565b6040518060a0016040528060008152602001600081526020016000815260200160608152602001606081525090565b828054828255906000526020600020908101928215612894579160200282015b82811115612893578251825591602001919060010190612878565b5b5090506128a191906128a5565b5090565b5b808211156128be5760008160009055506001016128a6565b5090565b6000604051905090565b600080fd5b600080fd5b60007fffffffff0000000000000000000000000000000000000000000000000000000082169050919050565b61290b816128d6565b811461291657600080fd5b50565b60008135905061292881612902565b92915050565b600060208284031215612944576129436128cc565b5b600061295284828501612919565b91505092915050565b60008115159050919050565b6129708161295b565b82525050565b600060208201905061298b6000830184612967565b92915050565b6000819050919050565b6129a481612991565b81146129af57600080fd5b50565b6000813590506129c18161299b565b92915050565b6000602082840312156129dd576129dc6128cc565b5b60006129eb848285016129b2565b91505092915050565b6129fd81612991565b82525050565b6000602082019050612a1860008301846129f4565b92915050565b6000819050919050565b612a3181612a1e565b8114612a3c57600080fd5b50565b600081359050612a4e81612a28565b92915050565b600060208284031215612a6a57612a696128cc565b5b6000612a7884828501612a3f565b91505092915050565b600073ffffffffffffffffffffffffffffffffffffffff82169050919050565b6000612aac82612a81565b9050919050565b612abc81612aa1565b82525050565b6000602082019050612ad76000830184612ab3565b92915050565b612ae681612aa1565b8114612af157600080fd5b50565b600081359050612b0381612add565b92915050565b60008060408385031215612b2057612b1f6128cc565b5b6000612b2e858286016129b2565b9250506020612b3f85828601612af4565b9150509250929050565b600081519050919050565b600082825260208201905092915050565b6000819050602082019050919050565b600067ffffffffffffffff82169050919050565b612b9281612b75565b82525050565b6000612ba48383612b89565b60208301905092915050565b6000602082019050919050565b6000612bc882612b49565b612bd28185612b54565b9350612bdd83612b65565b8060005b83811015612c0e578151612bf58882612b98565b9750612c0083612bb0565b925050600181019050612be1565b5085935050505092915050565b60006020820190508181036000830152612c358184612bbd565b905092915050565b612c4681612b75565b8114612c5157600080fd5b50565b600081359050612c6381612c3d565b92915050565b600060208284031215612c7f57612c7e6128cc565b5b6000612c8d84828501612c54565b91505092915050565b612c9f81612a1e565b82525050565b600081519050919050565b600082825260208201905092915050565b60005b83811015612cdf578082015181840152602081019050612cc4565b83811115612cee576000848401525b50505050565b6000601f19601f8301169050919050565b6000612d1082612ca5565b612d1a8185612cb0565b9350612d2a818560208601612cc1565b612d3381612cf4565b840191505092915050565b6000608082019050612d536000830187612c96565b612d606020830186612c96565b612d6d6040830185612c96565b8181036060830152612d7f8184612d05565b905095945050505050565b6000819050919050565b6000612daf612daa612da584612a81565b612d8a565b612a81565b9050919050565b6000612dc182612d94565b9050919050565b6000612dd382612db6565b9050919050565b612de381612dc8565b82525050565b6000602082019050612dfe6000830184612dda565b92915050565b600080fd5b600080fd5b600080fd5b60008083601f840112612e2957612e28612e04565b5b8235905067ffffffffffffffff811115612e4657612e45612e09565b5b602083019150836001820283011115612e6257612e61612e0e565b5b9250929050565b60008060008060608587031215612e8357612e826128cc565b5b6000612e91878288016129b2565b9450506020612ea287828801612a3f565b935050604085013567ffffffffffffffff811115612ec357612ec26128d1565b5b612ecf87828801612e13565b925092505092959194509250565b60008060408385031215612ef457612ef36128cc565b5b6000612f0285828601612af4565b9250506020612f1385828601612c54565b9150509250929050565b7f4e487b7100000000000000000000000000000000000000000000000000000000600052604160045260246000fd5b612f5582612cf4565b810181811067ffffffffffffffff82111715612f7457612f73612f1d565b5b80604052505050565b6000612f876128c2565b9050612f938282612f4c565b919050565b600067ffffffffffffffff821115612fb357612fb2612f1d565b5b602082029050602081019050919050565b6000612fd7612fd284612f98565b612f7d565b90508083825260208201905060208402830185811115612ffa57612ff9612e0e565b5b835b81811015613023578061300f8882612a3f565b845260208401935050602081019050612ffc565b5050509392505050565b600082601f83011261304257613041612e04565b5b8135613052848260208601612fc4565b91505092915050565b600067ffffffffffffffff82111561307657613075612f1d565b5b602082029050919050565b600061309461308f8461305b565b612f7d565b905080602084028301858111156130ae576130ad612e0e565b5b835b818110156130d757806130c38882612a3f565b8452602084019350506020810190506130b0565b5050509392505050565b600082601f8301126130f6576130f5612e04565b5b6002613103848285613081565b91505092915050565b600067ffffffffffffffff82111561312757613126612f1d565b5b602082029050919050565b60006131456131408461310c565b612f7d565b9050806040840283018581111561315f5761315e612e0e565b5b835b81811015613188578061317488826130e1565b845260208401935050604081019050613161565b5050509392505050565b600082601f8301126131a7576131a6612e04565b5b60026131b4848285613132565b91505092915050565b600080600080600061014086880312156131da576131d96128cc565b5b60006131e888828901612c54565b955050602086013567ffffffffffffffff811115613209576132086128d1565b5b6132158882890161302d565b9450506040613226888289016130e1565b935050608061323788828901613192565b925050610100613249888289016130e1565b9150509295509295909350565b61325f81612a1e565b82525050565b600081519050919050565b600082825260208201905092915050565b6000819050602082019050919050565b600061329d8383613256565b60208301905092915050565b6000602082019050919050565b60006132c182613265565b6132cb8185613270565b93506132d683613281565b8060005b838110156133075781516132ee8882613291565b97506132f9836132a9565b9250506001810190506132da565b5085935050505092915050565b600082825260208201905092915050565b600061333082612ca5565b61333a8185613314565b935061334a818560208601612cc1565b61335381612cf4565b840191505092915050565b600060a0830160008301516133766000860182613256565b5060208301516133896020860182613256565b50604083015161339c6040860182613256565b50606083015184820360608601526133b482826132b6565b915050608083015184820360808601526133ce8282613325565b9150508091505092915050565b600060208201905081810360008301526133f5818461335e565b905092915050565b600060208284031215613413576134126128cc565b5b600061342184828501612af4565b91505092915050565b600060208201905061343f6000830184612c96565b92915050565b6000819050919050565b61345881613445565b82525050565b6000602082019050613473600083018461344f565b92915050565b61348281612b75565b82525050565b600060208201905061349d6000830184613479565b92915050565b60006134ae82612aa1565b9050919050565b6134be816134a3565b81146134c957600080fd5b50565b6000813590506134db816134b5565b92915050565b600080fd5b600080fd5b600080fd5b600067ffffffffffffffff82111561350b5761350a612f1d565b5b61351482612cf4565b9050602081019050919050565b82818337600083830152505050565b600061354361353e846134f0565b612f7d565b90508281526020810184848401111561355f5761355e6134eb565b5b61356a848285613521565b509392505050565b600082601f83011261358757613586612e04565b5b8135613597848260208601613530565b91505092915050565b600060a082840312156135b6576135b56134e1565b5b6135c060a0612f7d565b905060006135d084828501612a3f565b60008301525060206135e484828501612a3f565b60208301525060406135f884828501612a3f565b604083015250606082013567ffffffffffffffff81111561361c5761361b6134e6565b5b6136288482850161302d565b606083015250608082013567ffffffffffffffff81111561364c5761364b6134e6565b5b61365884828501613572565b60808301525092915050565b60008060006060848603121561367d5761367c6128cc565b5b600061368b86828701612c54565b935050602061369c868287016134cc565b925050604084013567ffffffffffffffff8111156136bd576136bc6128d1565b5b6136c9868287016135a0565b9150509250925092565b7f416363657373436f6e74726f6c3a2063616e206f6e6c792072656e6f756e636560008201527f20726f6c657320666f722073656c660000000000000000000000000000000000602082015250565b600061372f602f83612cb0565b915061373a826136d3565b604082019050919050565b6000602082019050818103600083015261375e81613722565b9050919050565b7f4e487b7100000000000000000000000000000000000000000000000000000000600052602260045260246000fd5b600060028204905060018216806137ac57607f821691505b602082108114156137c0576137bf613765565b5b50919050565b60008160601b9050919050565b60006137de826137c6565b9050919050565b60006137f0826137d3565b9050919050565b61380861380382612aa1565b6137e5565b82525050565b6000819050919050565b61382961382482612a1e565b61380e565b82525050565b600061383b82856137f7565b60148201915061384b8284613818565b6020820191508190509392505050565b6000819050919050565b61387661387182612991565b61385b565b82525050565b600061388882856137f7565b6014820191506138988284613865565b6020820191508190509392505050565b7f416c7265616479207265706f7274656420627920757365722100000000000000600082015250565b60006138de601983612cb0565b91506138e9826138a8565b602082019050919050565b6000602082019050818103600083015261390d816138d1565b9050919050565b7f6f6e6c79206964656e7469746965732077686f2070726f76696465642070726f60008201527f6f662061726520616c6c6f77656420746f207375626d6974207265706f72747360208201527f2100000000000000000000000000000000000000000000000000000000000000604082015250565b6000613996604183612cb0565b91506139a182613914565b606082019050919050565b600060208201905081810360008301526139c581613989565b9050919050565b60006139d882846137f7565b60148201915081905092915050565b7f4e487b7100000000000000000000000000000000000000000000000000000000600052601160045260246000fd5b6000613a2182613445565b91507f8000000000000000000000000000000000000000000000000000000000000000821415613a5457613a536139e7565b5b816000039050919050565b6000613a6a82613445565b9150613a7583613445565b9250827f7fffffffffffffffffffffffffffffffffffffffffffffffffffffffffffffff0482116000841360008413161615613ab457613ab36139e7565b5b817f80000000000000000000000000000000000000000000000000000000000000000583126000841260008413161615613af157613af06139e7565b5b827f80000000000000000000000000000000000000000000000000000000000000000582126000841360008412161615613b2e57613b2d6139e7565b5b827f7fffffffffffffffffffffffffffffffffffffffffffffffffffffffffffffff0582126000841260008412161615613b6b57613b6a6139e7565b5b828202905092915050565b6000604082019050613b8b60008301856129f4565b613b986020830184612c96565b9392505050565b7f76616c696461746f72206973206e6f742073657420666f72207468697320726560008201527f7175657374206964000000000000000000000000000000000000000000000000602082015250565b6000613bfb602883612cb0565b9150613c0682613b9f565b604082019050919050565b60006020820190508181036000830152613c2a81613bee565b9050919050565b7f7175657279206973206e6f742073657420666f7220746869732072657175657360008201527f7420696400000000000000000000000000000000000000000000000000000000602082015250565b6000613c8d602483612cb0565b9150613c9882613c31565b604082019050919050565b60006020820190508181036000830152613cbc81613c80565b9050919050565b600082825260208201905092915050565b6000613cdf82613265565b613ce98185613cc3565b9350613cf483613281565b8060005b83811015613d25578151613d0c8882613291565b9750613d17836132a9565b925050600181019050613cf8565b5085935050505092915050565b600060029050919050565b600081905092915050565b6000819050919050565b6000602082019050919050565b613d6881613d32565b613d728184613d3d565b9250613d7d82613d48565b8060005b83811015613dae578151613d958782613291565b9650613da083613d52565b925050600181019050613d81565b505050505050565b600060029050919050565b600081905092915050565b6000819050919050565b600081905092915050565b613dea81613d32565b613df48184613dd6565b9250613dff82613d48565b8060005b83811015613e30578151613e178782613291565b9650613e2283613d52565b925050600181019050613e03565b505050505050565b6000613e448383613de1565b60408301905092915050565b6000602082019050919050565b613e6681613db6565b613e708184613dc1565b9250613e7b82613dcc565b8060005b83811015613eac578151613e938782613e38565b9650613e9e83613e50565b925050600181019050613e7f565b505050505050565b60008160001c9050919050565b6000819050919050565b6000613ede613ed983613eb4565b613ec1565b9050919050565b600081549050919050565b60008190508160005260206000209050919050565b6000613f118254613ecb565b9050919050565b6000600182019050919050565b6000613f3082613ee5565b613f3a8185613270565b9350613f4583613ef0565b8060005b83811015613f7d57613f5a82613f05565b613f648882613291565b9750613f6f83613f18565b925050600181019050613f49565b5085935050505092915050565b60008190508160005260206000209050919050565b60008154613fac81613794565b613fb68186613314565b94506001821660008114613fd15760018114613fe357614016565b60ff1983168652602086019350614016565b613fec85613f8a565b60005b8381101561400e57815481890152600182019150602081019050613fef565b808801955050505b50505092915050565b600060a08301600080840154905061403681613ecb565b6140436000870182613256565b506001840154905061405481613ecb565b6140616020870182613256565b506002840154905061407281613ecb565b61407f6040870182613256565b506003840185830360608701526140968382613f25565b9250506004840185830360808701526140af8382613f9f565b925050819250505092915050565b60006101408201905081810360008301526140d88188613cd4565b90506140e76020830187613d5f565b6140f46060830186613e5d565b61410160e0830185613d5f565b818103610120830152614114818461401f565b90509695505050505050565b6141298161295b565b811461413457600080fd5b50565b60008151905061414681614120565b92915050565b600060208284031215614162576141616128cc565b5b600061417084828501614137565b91505092915050565b7f70726f6f6620726573706f6e7365206973206e6f742076616c69640000000000600082015250565b60006141af601b83612cb0565b91506141ba82614179565b602082019050919050565b600060208201905081810360008301526141de816141a2565b9050919050565b7f4f776e61626c653a206e6577206f776e657220697320746865207a65726f206160008201527f6464726573730000000000000000000000000000000000000000000000000000602082015250565b6000614241602683612cb0565b915061424c826141e5565b604082019050919050565b6000602082019050818103600083015261427081614234565b9050919050565b7f4f776e61626c653a2063616c6c6572206973206e6f7420746865206f776e6572600082015250565b60006142ad602083612cb0565b91506142b882614277565b602082019050919050565b600060208201905081810360008301526142dc816142a0565b9050919050565b60006142ee82612a1e565b91506142f983612a1e565b92508282101561430c5761430b6139e7565b5b828203905092915050565b7f4e487b7100000000000000000000000000000000000000000000000000000000600052601260045260246000fd5b600061435182612a1e565b915061435c83612a1e565b92508261436c5761436b614317565b5b828204905092915050565b600061438282612a1e565b915061438d83612a1e565b9250827fffffffffffffffffffffffffffffffffffffffffffffffffffffffffffffffff038211156143c2576143c16139e7565b5b828201905092915050565b60006143d882613445565b91506143e383613445565b9250817f7fffffffffffffffffffffffffffffffffffffffffffffffffffffffffffffff0383136000831215161561441e5761441d6139e7565b5b817f8000000000000000000000000000000000000000000000000000000000000000038312600083121615614456576144556139e7565b5b828201905092915050565b600061446c82613445565b915061447783613445565b92508261448757614486614317565b5b600160000383147f8000000000000000000000000000000000000000000000000000000000000000831416156144c0576144bf6139e7565b5b828205905092915050565b6000815190506144da81612a28565b92915050565b6000602082840312156144f6576144f56128cc565b5b6000614504848285016144cb565b91505092915050565b7f4e487b7100000000000000000000000000000000000000000000000000000000600052603260045260246000fd5b7f6164647265737320696e2070726f6f66206973206e6f7420612073656e64657260008201527f2061646472657373000000000000000000000000000000000000000000000000602082015250565b6000614598602883612cb0565b91506145a38261453c565b604082019050919050565b600060208201905081810360008301526145c78161458b565b9050919050565b7f70726f6f662063616e206e6f74206265207375626d6974746564206d6f72652060008201527f7468616e206f6e63650000000000000000000000000000000000000000000000602082015250565b600061462a602983612cb0565b9150614635826145ce565b604082019050919050565b600060208201905081810360008301526146598161461d565b9050919050565b600061466b82612a1e565b915061467683612a1e565b9250817fffffffffffffffffffffffffffffffffffffffffffffffffffffffffffffffff04831182151516156146af576146ae6139e7565b5b828202905092915050565b600081905092915050565b7f416363657373436f6e74726f6c3a206163636f756e7420000000000000000000600082015250565b60006146fb6017836146ba565b9150614706826146c5565b601782019050919050565b600061471c82612ca5565b61472681856146ba565b9350614736818560208601612cc1565b80840191505092915050565b7f206973206d697373696e6720726f6c6520000000000000000000000000000000600082015250565b60006147786011836146ba565b915061478382614742565b601182019050919050565b6000614799826146ee565b91506147a58285614711565b91506147b08261476b565b91506147bc8284614711565b91508190509392505050565b600060208201905081810360008301526147e28184612d05565b905092915050565b7f4861736820636f756e742063616e206e6f74206265207a65726f000000000000600082015250565b6000614820601a83612cb0565b915061482b826147ea565b602082019050919050565b6000602082019050818103600083015261484f81614813565b9050919050565b60006148628285613865565b6020820191506148728284613818565b6020820191508190509392505050565b600061488d82612a1e565b915061489883612a1e565b9250826148a8576148a7614317565b5b828206905092915050565b7f4f766572666c6f77206572726f72000000000000000000000000000000000000600082015250565b60006148e9600e83612cb0565b91506148f4826148b3565b602082019050919050565b60006020820190508181036000830152614918816148dc565b9050919050565b600061492a82612a1e565b91507fffffffffffffffffffffffffffffffffffffffffffffffffffffffffffffffff82141561495d5761495c6139e7565b5b600182019050919050565b600061497382612a1e565b91506000821415614987576149866139e7565b5b600182039050919050565b7f537472696e67733a20686578206c656e67746820696e73756666696369656e74600082015250565b60006149c8602083612cb0565b91506149d382614992565b602082019050919050565b600060208201905081810360008301526149f7816149bb565b905091905056fea2646970667358221220f264e08f72cc41c66322b5e5c1b647c5b66b4fdd25f55731deb93721b8f3d07864736f6c63430008090033",
  "linkReferences": {},
  "deployedLinkReferences": {}
}