{
  "_format": "hh-sol-artifact-1",
  "contractName": "CreepzIdManager",
  "sourceName": "contracts/implementation/CreepzIdManager.sol",
  "abi": [
    {
      "inputs": [],
      "stateMutability": "nonpayable",
      "type": "constructor"
    },
    {
      "inputs": [],
      "name": "ReporterRateLimitExceeded",
      "type": "error"
    },
    {
      "anonymous": false,
      "inputs": [
        {
          "indexed": false,
          "internalType": "bytes32",
          "name": "against",
          "type": "bytes32"
        },
        {
          "indexed": false,
          "internalType": "uint256",
          "name": "severity",
          "type": "uint256"
        }
      ],
      "name": "NewReport",
      "type": "event"
    },
    {
      "anonymous": false,
      "inputs": [
        {
          "indexed": true,
          "internalType": "bytes32",
          "name": "role",
          "type": "bytes32"
        },
        {
          "indexed": true,
          "internalType": "bytes32",
          "name": "previousAdminRole",
          "type": "bytes32"
        },
        {
          "indexed": true,
          "internalType": "bytes32",
          "name": "newAdminRole",
          "type": "bytes32"
        }
      ],
      "name": "RoleAdminChanged",
      "type": "event"
    },
    {
      "anonymous": false,
      "inputs": [
        {
          "indexed": true,
          "internalType": "bytes32",
          "name": "role",
          "type": "bytes32"
        },
        {
          "indexed": true,
          "internalType": "address",
          "name": "account",
          "type": "address"
        },
        {
          "indexed": true,
          "internalType": "address",
          "name": "sender",
          "type": "address"
        }
      ],
      "name": "RoleGranted",
      "type": "event"
    },
    {
      "anonymous": false,
      "inputs": [
        {
          "indexed": true,
          "internalType": "bytes32",
          "name": "role",
          "type": "bytes32"
        },
        {
          "indexed": true,
          "internalType": "address",
          "name": "account",
          "type": "address"
        },
        {
          "indexed": true,
          "internalType": "address",
          "name": "sender",
          "type": "address"
        }
      ],
      "name": "RoleRevoked",
      "type": "event"
    },
    {
      "stateMutability": "payable",
      "type": "fallback"
    },
    {
      "inputs": [],
      "name": "COMMUNITY_MODERATOR_ROLE",
      "outputs": [
        {
          "internalType": "bytes32",
          "name": "",
          "type": "bytes32"
        }
      ],
      "stateMutability": "view",
      "type": "function"
    },
    {
      "inputs": [],
      "name": "DEFAULT_ADMIN_ROLE",
      "outputs": [
        {
          "internalType": "bytes32",
          "name": "",
          "type": "bytes32"
        }
      ],
      "stateMutability": "view",
      "type": "function"
    },
    {
      "inputs": [
        {
          "internalType": "bytes32",
          "name": "identifier",
          "type": "bytes32"
        }
      ],
      "name": "getReputation",
      "outputs": [
        {
          "internalType": "int256",
          "name": "score",
          "type": "int256"
        }
      ],
      "stateMutability": "view",
      "type": "function"
    },
    {
      "inputs": [
        {
          "internalType": "bytes32",
          "name": "role",
          "type": "bytes32"
        }
      ],
      "name": "getRoleAdmin",
      "outputs": [
        {
          "internalType": "bytes32",
          "name": "",
          "type": "bytes32"
        }
      ],
      "stateMutability": "view",
      "type": "function"
    },
    {
      "inputs": [
        {
          "internalType": "bytes32",
          "name": "role",
          "type": "bytes32"
        },
        {
          "internalType": "address",
          "name": "account",
          "type": "address"
        }
      ],
      "name": "grantRole",
      "outputs": [],
      "stateMutability": "nonpayable",
      "type": "function"
    },
    {
      "inputs": [
        {
          "internalType": "bytes32",
          "name": "role",
          "type": "bytes32"
        },
        {
          "internalType": "address",
          "name": "account",
          "type": "address"
        }
      ],
      "name": "hasRole",
      "outputs": [
        {
          "internalType": "bool",
          "name": "",
          "type": "bool"
        }
      ],
      "stateMutability": "view",
      "type": "function"
    },
    {
      "inputs": [
        {
          "internalType": "bytes32",
          "name": "role",
          "type": "bytes32"
        },
        {
          "internalType": "address",
          "name": "account",
          "type": "address"
        }
      ],
      "name": "renounceRole",
      "outputs": [],
      "stateMutability": "nonpayable",
      "type": "function"
    },
    {
      "inputs": [
        {
          "internalType": "bytes32",
          "name": "id",
          "type": "bytes32"
        },
        {
          "internalType": "uint256",
          "name": "severity",
          "type": "uint256"
        },
        {
          "internalType": "string",
          "name": "metadataCID",
          "type": "string"
        }
      ],
      "name": "report",
      "outputs": [
        {
          "internalType": "bytes32",
          "name": "newReportId",
          "type": "bytes32"
        }
      ],
      "stateMutability": "nonpayable",
      "type": "function"
    },
    {
      "inputs": [
        {
          "internalType": "bytes32",
          "name": "role",
          "type": "bytes32"
        },
        {
          "internalType": "address",
          "name": "account",
          "type": "address"
        }
      ],
      "name": "revokeRole",
      "outputs": [],
      "stateMutability": "nonpayable",
      "type": "function"
    },
    {
      "inputs": [
        {
          "internalType": "uint64",
          "name": "aRate",
          "type": "uint64"
        }
      ],
      "name": "setReporterRateLimit",
      "outputs": [
        {
          "internalType": "bool",
          "name": "result",
          "type": "bool"
        }
      ],
      "stateMutability": "nonpayable",
      "type": "function"
    },
    {
      "inputs": [
        {
          "internalType": "bytes4",
          "name": "interfaceId",
          "type": "bytes4"
        }
      ],
      "name": "supportsInterface",
      "outputs": [
        {
          "internalType": "bool",
          "name": "",
          "type": "bool"
        }
      ],
      "stateMutability": "view",
      "type": "function"
    },
    {
      "stateMutability": "payable",
      "type": "receive"
    }
  ],
  "bytecode": "0x60806040523480156200001157600080fd5b50620000276000801b336200004360201b60201c565b6200003d64174876e8006200013560201b60201c565b620003a6565b6200005582826200015360201b60201c565b620001315760016004600084815260200190815260200160002060000160008373ffffffffffffffffffffffffffffffffffffffff1673ffffffffffffffffffffffffffffffffffffffff16815260200190815260200160002060006101000a81548160ff021916908315150217905550620000d6620001be60201b60201c565b73ffffffffffffffffffffffffffffffffffffffff168173ffffffffffffffffffffffffffffffffffffffff16837f2f8788117e7eff1d82e926ec794901d17c78024a50270940304540a733656f0d60405160405180910390a45b5050565b62000150816000620001c660201b620008181790919060201c565b50565b60006004600084815260200190815260200160002060000160008373ffffffffffffffffffffffffffffffffffffffff1673ffffffffffffffffffffffffffffffffffffffff16815260200190815260200160002060009054906101000a900460ff16905092915050565b600033905090565b620001d781620001f760201b60201c565b8260010160006101000a81548160ff021916908360ff1602179055505050565b60008060016064846200020b919062000281565b6190006200021a919062000311565b62000226919062000349565b90506101008110156200023d578091505062000243565b60ff9150505b919050565b6000819050919050565b7f4e487b7100000000000000000000000000000000000000000000000000000000600052601160045260246000fd5b60006200028e8262000248565b91506200029b8362000248565b9250817fffffffffffffffffffffffffffffffffffffffffffffffffffffffffffffffff0483118215151615620002d757620002d662000252565b5b828202905092915050565b7f4e487b7100000000000000000000000000000000000000000000000000000000600052601260045260246000fd5b60006200031e8262000248565b91506200032b8362000248565b9250826200033e576200033d620002e2565b5b828204905092915050565b6000620003568262000248565b9150620003638362000248565b9250827fffffffffffffffffffffffffffffffffffffffffffffffffffffffffffffffff038211156200039b576200039a62000252565b5b828201905092915050565b61238f80620003b66000396000f3fe6080604052600436106100a05760003560e01c806391d148541161006457806391d14854146101a0578063a217fddf146101dd578063addfa18214610208578063d14519d214610245578063d547741f14610282578063d99a3927146102ab576100a7565b806301ffc9a7146100a9578063248a9ca3146100e65780632f2ff15d1461012357806336568abe1461014c5780635a1eff5214610175576100a7565b366100a757005b005b3480156100b557600080fd5b506100d060048036038101906100cb9190611560565b6102e8565b6040516100dd91906115a8565b60405180910390f35b3480156100f257600080fd5b5061010d600480360381019061010891906115f9565b610362565b60405161011a9190611635565b60405180910390f35b34801561012f57600080fd5b5061014a600480360381019061014591906116ae565b610382565b005b34801561015857600080fd5b50610173600480360381019061016e91906116ae565b6103a3565b005b34801561018157600080fd5b5061018a610426565b6040516101979190611635565b60405180910390f35b3480156101ac57600080fd5b506101c760048036038101906101c291906116ae565b61044a565b6040516101d491906115a8565b60405180910390f35b3480156101e957600080fd5b506101f26104b5565b6040516101ff9190611635565b60405180910390f35b34801561021457600080fd5b5061022f600480360381019061022a9190611789565b6104bc565b60405161023c9190611635565b60405180910390f35b34801561025157600080fd5b5061026c600480360381019061026791906115f9565b610799565b6040516102799190611816565b60405180910390f35b34801561028e57600080fd5b506102a960048036038101906102a491906116ae565b6107b9565b005b3480156102b757600080fd5b506102d260048036038101906102cd9190611871565b6107da565b6040516102df91906115a8565b60405180910390f35b60007f7965db0b000000000000000000000000000000000000000000000000000000007bffffffffffffffffffffffffffffffffffffffffffffffffffffffff1916827bffffffffffffffffffffffffffffffffffffffffffffffffffffffff1916148061035b575061035a82610841565b5b9050919050565b600060046000838152602001908152602001600020600101549050919050565b61038b82610362565b610394816108ab565b61039e83836108bf565b505050565b6103ab6109a0565b73ffffffffffffffffffffffffffffffffffffffff168173ffffffffffffffffffffffffffffffffffffffff1614610418576040517f08c379a000000000000000000000000000000000000000000000000000000000815260040161040f90611921565b60405180910390fd5b61042282826109a8565b5050565b7f277380851101b908288439c0a0f2ea6552ce5429b832eeede59943703cbbc16881565b60006004600084815260200190815260200160002060000160008373ffffffffffffffffffffffffffffffffffffffff1673ffffffffffffffffffffffffffffffffffffffff16815260200190815260200160002060009054906101000a900460ff16905092915050565b6000801b81565b60006104c6610a8a565b6105033360016040516020016104dd9291906119aa565b604051602081830303815290604052805190602001206000610bc190919063ffffffff16565b1561053a576040517f9689cb0f00000000000000000000000000000000000000000000000000000000815260040160405180910390fd5b6000338660405160200161054f9291906119f7565b6040516020818303038152906040528051906020012090506000801b6005600083815260200190815260200160002060000154146105c2576040517f08c379a00000000000000000000000000000000000000000000000000000000081526004016105b990611a6f565b60405180910390fd5b604051806080016040528082815260200187815260200186815260200185858080601f016020809104026020016040519081016040528093929190818152602001838380828437600081840152601f19601f8201169050808301925050505050505081525060056000838152602001908152602001600020600082015181600001556020820151816001015560408201518160020155606082015181600301908051906020019061067492919061145b565b5090505060006106878660016014610beb565b905060003360405160200161069c9190611a8f565b6040516020818303038152906040528051906020012090506106f26040518060400160405280600881526020017f5265706f72746572000000000000000000000000000000000000000000000000815250610c23565b6106fb81610cbc565b61070482610d55565b610717888361071290611ad9565b610dee565b60006006600083815260200190815260200160002060000154141561074657610741816001610dee565b610752565b610751816001610dee565b5b7f1471883da0c9e2a8e7d5284477ff356083fc400504747a5d4110bda87bd9a7d28888604051610783929190611b31565b60405180910390a1829350505050949350505050565b600060066000838152602001908152602001600020600001549050919050565b6107c282610362565b6107cb816108ab565b6107d583836109a8565b505050565b60006108067f277380851101b908288439c0a0f2ea6552ce5429b832eeede59943703cbbc1683361044a565b61080f57600080fd5b60009050919050565b61082181610eb4565b8260010160006101000a81548160ff021916908360ff1602179055505050565b60007f01ffc9a7000000000000000000000000000000000000000000000000000000007bffffffffffffffffffffffffffffffffffffffffffffffffffffffff1916827bffffffffffffffffffffffffffffffffffffffffffffffffffffffff1916149050919050565b6108bc816108b76109a0565b610efd565b50565b6108c9828261044a565b61099c5760016004600084815260200190815260200160002060000160008373ffffffffffffffffffffffffffffffffffffffff1673ffffffffffffffffffffffffffffffffffffffff16815260200190815260200160002060006101000a81548160ff0219169083151502179055506109416109a0565b73ffffffffffffffffffffffffffffffffffffffff168173ffffffffffffffffffffffffffffffffffffffff16837f2f8788117e7eff1d82e926ec794901d17c78024a50270940304540a733656f0d60405160405180910390a45b5050565b600033905090565b6109b2828261044a565b15610a865760006004600084815260200190815260200160002060000160008373ffffffffffffffffffffffffffffffffffffffff1673ffffffffffffffffffffffffffffffffffffffff16815260200190815260200160002060006101000a81548160ff021916908315150217905550610a2b6109a0565b73ffffffffffffffffffffffffffffffffffffffff168173ffffffffffffffffffffffffffffffffffffffff16837ff6391f5c32d9c69d2a47ea670b442974b53935d1edc7fd64eb21e047a839171b60405160405180910390a45b5050565b600033604051602001610a9d9190611a8f565b6040516020818303038152906040528051906020012090506000600260008381526020019081526020016000205490506000811415610af457601e9050601e60026000848152602001908152602001600020819055505b60006003600084815260200190815260200160002054905060008142610b1a9190611b5a565b9050828110610b6557610b60336000604051602001610b3a9291906119aa565b604051602081830303815290604052805190602001206000610f8290919063ffffffff16565b610ba3565b610ba2336001604051602001610b7c9291906119aa565b604051602081830303815290604052805190602001206000610f8290919063ffffffff16565b5b42600360008681526020019081526020016000208190555050505050565b6000610be383600001548460010160009054906101000a900460ff1684610fae565b905092915050565b6000808385610bfa9190611b5a565b905060008484610c0a9190611b5a565b90508082610c189190611bbd565b925050509392505050565b610cb981604051602401610c379190611c76565b6040516020818303038152906040527f41304fac000000000000000000000000000000000000000000000000000000007bffffffffffffffffffffffffffffffffffffffffffffffffffffffff19166020820180517bffffffffffffffffffffffffffffffffffffffffffffffffffffffff83818316178352505050506110c4565b50565b610d5281604051602401610cd09190611635565b6040516020818303038152906040527f27b7cf85000000000000000000000000000000000000000000000000000000007bffffffffffffffffffffffffffffffffffffffffffffffffffffffff19166020820180517bffffffffffffffffffffffffffffffffffffffffffffffffffffffff83818316178352505050506110c4565b50565b610deb81604051602401610d699190611c98565b6040516020818303038152906040527ff82c50f1000000000000000000000000000000000000000000000000000000007bffffffffffffffffffffffffffffffffffffffffffffffffffffffff19166020820180517bffffffffffffffffffffffffffffffffffffffffffffffffffffffff83818316178352505050506110c4565b50565b6000600660008481526020019081526020016000206000015490506000600660008581526020019081526020016000206001015490506000600182610e339190611cb3565b6004858486610e429190611d09565b610e4c9190611e20565b610e569190611e20565b610e609190611eb4565b90506040518060400160405280828152602001600184610e809190611cb3565b8152506006600087815260200190815260200160002060008201518160000155602082015181600101559050505050505050565b6000806001606484610ec69190611f1e565b619000610ed39190611bbd565b610edd9190611cb3565b9050610100811015610ef25780915050610ef8565b60ff9150505b919050565b610f07828261044a565b610f7e57610f14816110ed565b610f228360001c602061111a565b604051602001610f3392919061204c565b6040516020818303038152906040526040517f08c379a0000000000000000000000000000000000000000000000000000000008152600401610f759190611c76565b60405180910390fd5b5050565b610fa282600001548360010160009054906101000a900460ff1683611356565b82600001819055505050565b6000808360ff1611610ff5576040517f08c379a0000000000000000000000000000000000000000000000000000000008152600401610fec906120d2565b60405180910390fd5b60005b8360ff168110156110b7576000610100848360405160200161101b9291906120f2565b6040516020818303038152906040528051906020012060001c61103e919061211e565b90506101008110611084576040517f08c379a000000000000000000000000000000000000000000000000000000000815260040161107b9061219b565b60405180910390fd5b6000816001901b905080871787146110a257600093505050506110bd565b505080806110af906121bb565b915050610ff8565b50600190505b9392505050565b60008151905060006a636f6e736f6c652e6c6f679050602083016000808483855afa5050505050565b60606111138273ffffffffffffffffffffffffffffffffffffffff16601460ff1661111a565b9050919050565b60606000600283600261112d9190611f1e565b6111379190611cb3565b67ffffffffffffffff8111156111505761114f612204565b5b6040519080825280601f01601f1916602001820160405280156111825781602001600182028036833780820191505090505b5090507f3000000000000000000000000000000000000000000000000000000000000000816000815181106111ba576111b9612233565b5b60200101907effffffffffffffffffffffffffffffffffffffffffffffffffffffffffffff1916908160001a9053507f78000000000000000000000000000000000000000000000000000000000000008160018151811061121e5761121d612233565b5b60200101907effffffffffffffffffffffffffffffffffffffffffffffffffffffffffffff1916908160001a9053506000600184600261125e9190611f1e565b6112689190611cb3565b90505b6001811115611308577f3031323334353637383961626364656600000000000000000000000000000000600f8616601081106112aa576112a9612233565b5b1a60f81b8282815181106112c1576112c0612233565b5b60200101907effffffffffffffffffffffffffffffffffffffffffffffffffffffffffffff1916908160001a905350600485901c94508061130190612262565b905061126b565b506000841461134c576040517f08c379a0000000000000000000000000000000000000000000000000000000008152600401611343906122d8565b60405180910390fd5b8091505092915050565b600083905060008360ff16116113a1576040517f08c379a0000000000000000000000000000000000000000000000000000000008152600401611398906120d2565b60405180910390fd5b60005b8360ff1681101561145357600061010084836040516020016113c79291906120f2565b6040516020818303038152906040528051906020012060001c6113ea919061211e565b90506101008110611430576040517f08c379a00000000000000000000000000000000000000000000000000000000081526004016114279061219b565b60405180910390fd5b6000816001901b905080841793505050808061144b906121bb565b9150506113a4565b509392505050565b82805461146790612327565b90600052602060002090601f01602090048101928261148957600085556114d0565b82601f106114a257805160ff19168380011785556114d0565b828001600101855582156114d0579182015b828111156114cf5782518255916020019190600101906114b4565b5b5090506114dd91906114e1565b5090565b5b808211156114fa5760008160009055506001016114e2565b5090565b600080fd5b600080fd5b60007fffffffff0000000000000000000000000000000000000000000000000000000082169050919050565b61153d81611508565b811461154857600080fd5b50565b60008135905061155a81611534565b92915050565b600060208284031215611576576115756114fe565b5b60006115848482850161154b565b91505092915050565b60008115159050919050565b6115a28161158d565b82525050565b60006020820190506115bd6000830184611599565b92915050565b6000819050919050565b6115d6816115c3565b81146115e157600080fd5b50565b6000813590506115f3816115cd565b92915050565b60006020828403121561160f5761160e6114fe565b5b600061161d848285016115e4565b91505092915050565b61162f816115c3565b82525050565b600060208201905061164a6000830184611626565b92915050565b600073ffffffffffffffffffffffffffffffffffffffff82169050919050565b600061167b82611650565b9050919050565b61168b81611670565b811461169657600080fd5b50565b6000813590506116a881611682565b92915050565b600080604083850312156116c5576116c46114fe565b5b60006116d3858286016115e4565b92505060206116e485828601611699565b9150509250929050565b6000819050919050565b611701816116ee565b811461170c57600080fd5b50565b60008135905061171e816116f8565b92915050565b600080fd5b600080fd5b600080fd5b60008083601f84011261174957611748611724565b5b8235905067ffffffffffffffff81111561176657611765611729565b5b6020830191508360018202830111156117825761178161172e565b5b9250929050565b600080600080606085870312156117a3576117a26114fe565b5b60006117b1878288016115e4565b94505060206117c28782880161170f565b935050604085013567ffffffffffffffff8111156117e3576117e2611503565b5b6117ef87828801611733565b925092505092959194509250565b6000819050919050565b611810816117fd565b82525050565b600060208201905061182b6000830184611807565b92915050565b600067ffffffffffffffff82169050919050565b61184e81611831565b811461185957600080fd5b50565b60008135905061186b81611845565b92915050565b600060208284031215611887576118866114fe565b5b60006118958482850161185c565b91505092915050565b600082825260208201905092915050565b7f416363657373436f6e74726f6c3a2063616e206f6e6c792072656e6f756e636560008201527f20726f6c657320666f722073656c660000000000000000000000000000000000602082015250565b600061190b602f8361189e565b9150611916826118af565b604082019050919050565b6000602082019050818103600083015261193a816118fe565b9050919050565b60008160601b9050919050565b600061195982611941565b9050919050565b600061196b8261194e565b9050919050565b61198361197e82611670565b611960565b82525050565b6000819050919050565b6119a461199f826116ee565b611989565b82525050565b60006119b68285611972565b6014820191506119c68284611993565b6020820191508190509392505050565b6000819050919050565b6119f16119ec826115c3565b6119d6565b82525050565b6000611a038285611972565b601482019150611a1382846119e0565b6020820191508190509392505050565b7f416c7265616479207265706f7274656420627920757365722100000000000000600082015250565b6000611a5960198361189e565b9150611a6482611a23565b602082019050919050565b60006020820190508181036000830152611a8881611a4c565b9050919050565b6000611a9b8284611972565b60148201915081905092915050565b7f4e487b7100000000000000000000000000000000000000000000000000000000600052601160045260246000fd5b6000611ae4826117fd565b91507f8000000000000000000000000000000000000000000000000000000000000000821415611b1757611b16611aaa565b5b816000039050919050565b611b2b816116ee565b82525050565b6000604082019050611b466000830185611626565b611b536020830184611b22565b9392505050565b6000611b65826116ee565b9150611b70836116ee565b925082821015611b8357611b82611aaa565b5b828203905092915050565b7f4e487b7100000000000000000000000000000000000000000000000000000000600052601260045260246000fd5b6000611bc8826116ee565b9150611bd3836116ee565b925082611be357611be2611b8e565b5b828204905092915050565b600081519050919050565b60005b83811015611c17578082015181840152602081019050611bfc565b83811115611c26576000848401525b50505050565b6000601f19601f8301169050919050565b6000611c4882611bee565b611c52818561189e565b9350611c62818560208601611bf9565b611c6b81611c2c565b840191505092915050565b60006020820190508181036000830152611c908184611c3d565b905092915050565b6000602082019050611cad6000830184611b22565b92915050565b6000611cbe826116ee565b9150611cc9836116ee565b9250827fffffffffffffffffffffffffffffffffffffffffffffffffffffffffffffffff03821115611cfe57611cfd611aaa565b5b828201905092915050565b6000611d14826117fd565b9150611d1f836117fd565b9250827f7fffffffffffffffffffffffffffffffffffffffffffffffffffffffffffffff0482116000841360008413161615611d5e57611d5d611aaa565b5b817f80000000000000000000000000000000000000000000000000000000000000000583126000841260008413161615611d9b57611d9a611aaa565b5b827f80000000000000000000000000000000000000000000000000000000000000000582126000841360008412161615611dd857611dd7611aaa565b5b827f7fffffffffffffffffffffffffffffffffffffffffffffffffffffffffffffff0582126000841260008412161615611e1557611e14611aaa565b5b828202905092915050565b6000611e2b826117fd565b9150611e36836117fd565b9250817f7fffffffffffffffffffffffffffffffffffffffffffffffffffffffffffffff03831360008312151615611e7157611e70611aaa565b5b817f8000000000000000000000000000000000000000000000000000000000000000038312600083121615611ea957611ea8611aaa565b5b828201905092915050565b6000611ebf826117fd565b9150611eca836117fd565b925082611eda57611ed9611b8e565b5b600160000383147f800000000000000000000000000000000000000000000000000000000000000083141615611f1357611f12611aaa565b5b828205905092915050565b6000611f29826116ee565b9150611f34836116ee565b9250817fffffffffffffffffffffffffffffffffffffffffffffffffffffffffffffffff0483118215151615611f6d57611f6c611aaa565b5b828202905092915050565b600081905092915050565b7f416363657373436f6e74726f6c3a206163636f756e7420000000000000000000600082015250565b6000611fb9601783611f78565b9150611fc482611f83565b601782019050919050565b6000611fda82611bee565b611fe48185611f78565b9350611ff4818560208601611bf9565b80840191505092915050565b7f206973206d697373696e6720726f6c6520000000000000000000000000000000600082015250565b6000612036601183611f78565b915061204182612000565b601182019050919050565b600061205782611fac565b91506120638285611fcf565b915061206e82612029565b915061207a8284611fcf565b91508190509392505050565b7f4861736820636f756e742063616e206e6f74206265207a65726f000000000000600082015250565b60006120bc601a8361189e565b91506120c782612086565b602082019050919050565b600060208201905081810360008301526120eb816120af565b9050919050565b60006120fe82856119e0565b60208201915061210e8284611993565b6020820191508190509392505050565b6000612129826116ee565b9150612134836116ee565b92508261214457612143611b8e565b5b828206905092915050565b7f4f766572666c6f77206572726f72000000000000000000000000000000000000600082015250565b6000612185600e8361189e565b91506121908261214f565b602082019050919050565b600060208201905081810360008301526121b481612178565b9050919050565b60006121c6826116ee565b91507fffffffffffffffffffffffffffffffffffffffffffffffffffffffffffffffff8214156121f9576121f8611aaa565b5b600182019050919050565b7f4e487b7100000000000000000000000000000000000000000000000000000000600052604160045260246000fd5b7f4e487b7100000000000000000000000000000000000000000000000000000000600052603260045260246000fd5b600061226d826116ee565b9150600082141561228157612280611aaa565b5b600182039050919050565b7f537472696e67733a20686578206c656e67746820696e73756666696369656e74600082015250565b60006122c260208361189e565b91506122cd8261228c565b602082019050919050565b600060208201905081810360008301526122f1816122b5565b9050919050565b7f4e487b7100000000000000000000000000000000000000000000000000000000600052602260045260246000fd5b6000600282049050600182168061233f57607f821691505b60208210811415612353576123526122f8565b5b5091905056fea264697066735822122067fd0bcc7186284b68db8674977313387b7c7e06b8dcde0804be135de12ed2f964736f6c63430008090033",
  "linkReferences": {},
  "deployedLinkReferences": {}
}