{
  "_format": "hh-sol-artifact-1",
  "contractName": "ZKPVerifier",
  "sourceName": "contracts/thirdparty/polygonid/verifiers/ZKPVerifier.sol",
  "abi": [
    {
      "anonymous": false,
      "inputs": [
        {
          "indexed": true,
          "internalType": "address",
          "name": "previousOwner",
          "type": "address"
        },
        {
          "indexed": true,
          "internalType": "address",
          "name": "newOwner",
          "type": "address"
        }
      ],
      "name": "OwnershipTransferred",
      "type": "event"
    },
    {
      "inputs": [],
      "name": "getSupportedRequests",
      "outputs": [
        {
          "internalType": "uint64[]",
          "name": "arr",
          "type": "uint64[]"
        }
      ],
      "stateMutability": "view",
      "type": "function"
    },
    {
      "inputs": [
        {
          "internalType": "uint64",
          "name": "requestId",
          "type": "uint64"
        }
      ],
      "name": "getZKPRequest",
      "outputs": [
        {
          "components": [
            {
              "internalType": "uint256",
              "name": "schema",
              "type": "uint256"
            },
            {
              "internalType": "uint256",
              "name": "slotIndex",
              "type": "uint256"
            },
            {
              "internalType": "uint256",
              "name": "operator",
              "type": "uint256"
            },
            {
              "internalType": "uint256[]",
              "name": "value",
              "type": "uint256[]"
            },
            {
              "internalType": "string",
              "name": "circuitId",
              "type": "string"
            }
          ],
          "internalType": "struct ICircuitValidator.CircuitQuery",
          "name": "",
          "type": "tuple"
        }
      ],
      "stateMutability": "view",
      "type": "function"
    },
    {
      "inputs": [],
      "name": "owner",
      "outputs": [
        {
          "internalType": "address",
          "name": "",
          "type": "address"
        }
      ],
      "stateMutability": "view",
      "type": "function"
    },
    {
      "inputs": [
        {
          "internalType": "address",
          "name": "",
          "type": "address"
        },
        {
          "internalType": "uint64",
          "name": "",
          "type": "uint64"
        }
      ],
      "name": "proofs",
      "outputs": [
        {
          "internalType": "bool",
          "name": "",
          "type": "bool"
        }
      ],
      "stateMutability": "view",
      "type": "function"
    },
    {
      "inputs": [],
      "name": "renounceOwnership",
      "outputs": [],
      "stateMutability": "nonpayable",
      "type": "function"
    },
    {
      "inputs": [
        {
          "internalType": "uint64",
          "name": "",
          "type": "uint64"
        }
      ],
      "name": "requestQueries",
      "outputs": [
        {
          "internalType": "uint256",
          "name": "schema",
          "type": "uint256"
        },
        {
          "internalType": "uint256",
          "name": "slotIndex",
          "type": "uint256"
        },
        {
          "internalType": "uint256",
          "name": "operator",
          "type": "uint256"
        },
        {
          "internalType": "string",
          "name": "circuitId",
          "type": "string"
        }
      ],
      "stateMutability": "view",
      "type": "function"
    },
    {
      "inputs": [
        {
          "internalType": "uint64",
          "name": "",
          "type": "uint64"
        }
      ],
      "name": "requestValidators",
      "outputs": [
        {
          "internalType": "contract ICircuitValidator",
          "name": "",
          "type": "address"
        }
      ],
      "stateMutability": "view",
      "type": "function"
    },
    {
      "inputs": [
        {
          "internalType": "uint64",
          "name": "requestId",
          "type": "uint64"
        },
        {
          "internalType": "contract ICircuitValidator",
          "name": "validator",
          "type": "address"
        },
        {
          "components": [
            {
              "internalType": "uint256",
              "name": "schema",
              "type": "uint256"
            },
            {
              "internalType": "uint256",
              "name": "slotIndex",
              "type": "uint256"
            },
            {
              "internalType": "uint256",
              "name": "operator",
              "type": "uint256"
            },
            {
              "internalType": "uint256[]",
              "name": "value",
              "type": "uint256[]"
            },
            {
              "internalType": "string",
              "name": "circuitId",
              "type": "string"
            }
          ],
          "internalType": "struct ICircuitValidator.CircuitQuery",
          "name": "query",
          "type": "tuple"
        }
      ],
      "name": "setZKPRequest",
      "outputs": [
        {
          "internalType": "bool",
          "name": "",
          "type": "bool"
        }
      ],
      "stateMutability": "nonpayable",
      "type": "function"
    },
    {
      "inputs": [
        {
          "internalType": "uint64",
          "name": "requestId",
          "type": "uint64"
        },
        {
          "internalType": "uint256[]",
          "name": "inputs",
          "type": "uint256[]"
        },
        {
          "internalType": "uint256[2]",
          "name": "a",
          "type": "uint256[2]"
        },
        {
          "internalType": "uint256[2][2]",
          "name": "b",
          "type": "uint256[2][2]"
        },
        {
          "internalType": "uint256[2]",
          "name": "c",
          "type": "uint256[2]"
        }
      ],
      "name": "submitZKPResponse",
      "outputs": [
        {
          "internalType": "bool",
          "name": "",
          "type": "bool"
        }
      ],
      "stateMutability": "nonpayable",
      "type": "function"
    },
    {
      "inputs": [
        {
          "internalType": "uint256",
          "name": "",
          "type": "uint256"
        }
      ],
      "name": "supportedRequests",
      "outputs": [
        {
          "internalType": "uint64",
          "name": "",
          "type": "uint64"
        }
      ],
      "stateMutability": "view",
      "type": "function"
    },
    {
      "inputs": [
        {
          "internalType": "address",
          "name": "newOwner",
          "type": "address"
        }
      ],
      "name": "transferOwnership",
      "outputs": [],
      "stateMutability": "nonpayable",
      "type": "function"
    }
  ],
  "bytecode": "0x608060405234801561001057600080fd5b5061002d61002261003260201b60201c565b61003a60201b60201c565b6100fe565b600033905090565b60008060009054906101000a900473ffffffffffffffffffffffffffffffffffffffff169050816000806101000a81548173ffffffffffffffffffffffffffffffffffffffff021916908373ffffffffffffffffffffffffffffffffffffffff1602179055508173ffffffffffffffffffffffffffffffffffffffff168173ffffffffffffffffffffffffffffffffffffffff167f8be0079c531659141344cd1fd0a4f28419497f9722a3daafe3b4186f6b6457e060405160405180910390a35050565b612280806200010e6000396000f3fe608060405234801561001057600080fd5b50600436106100a95760003560e01c8063b45c0fdf11610071578063b45c0fdf14610157578063b68967e214610187578063c76d0845146101b7578063f1435326146101e7578063f2fde38b14610217578063fee207e614610233576100a9565b806337ba9523146100ae578063715018a6146100cc5780638da5cb5b146100d657806396bf4741146100f4578063a872311414610127575b600080fd5b6100b6610263565b6040516100c39190610fd6565b60405180910390f35b6100d46102ef565b005b6100de610303565b6040516100eb9190611039565b60405180910390f35b61010e60048036038101906101099190611094565b61032c565b60405161011e9493929190611173565b60405180910390f35b610141600480360381019061013c9190611094565b6103e4565b60405161014e919061121e565b60405180910390f35b610171600480360381019061016c9190611265565b610417565b60405161017e91906112c0565b60405180910390f35b6101a1600480360381019061019c91906115b1565b610446565b6040516101ae91906112c0565b60405180910390f35b6101d160048036038101906101cc9190611094565b6107d6565b6040516101de91906117cf565b60405180910390f35b61020160048036038101906101fc91906117f1565b61091f565b60405161020e919061182d565b60405180910390f35b610231600480360381019061022c9190611848565b61095d565b005b61024d60048036038101906102489190611a36565b6109e1565b60405161025a91906112c0565b60405180910390f35b606060048054806020026020016040519081016040528092919081815260200182805480156102e557602002820191906000526020600020906000905b82829054906101000a900467ffffffffffffffff1667ffffffffffffffff16815260200190600801906020826007010492830192600103820291508084116102a05790505b5050505050905090565b6102f7610c91565b6103016000610d0f565b565b60008060009054906101000a900473ffffffffffffffffffffffffffffffffffffffff16905090565b600260205280600052604060002060009150905080600001549080600101549080600201549080600401805461036190611ad4565b80601f016020809104026020016040519081016040528092919081815260200182805461038d90611ad4565b80156103da5780601f106103af576101008083540402835291602001916103da565b820191906000526020600020905b8154815290600101906020018083116103bd57829003601f168201915b5050505050905084565b60036020528060005260406000206000915054906101000a900473ffffffffffffffffffffffffffffffffffffffff1681565b60016020528160005260406000206020528060005260406000206000915091509054906101000a900460ff1681565b60008073ffffffffffffffffffffffffffffffffffffffff16600360008867ffffffffffffffff1667ffffffffffffffff16815260200190815260200160002060009054906101000a900473ffffffffffffffffffffffffffffffffffffffff1673ffffffffffffffffffffffffffffffffffffffff1614156104fe576040517f08c379a00000000000000000000000000000000000000000000000000000000081526004016104f590611b78565b60405180910390fd5b6000600260008867ffffffffffffffff1667ffffffffffffffff16815260200190815260200160002060000154141561056c576040517f08c379a000000000000000000000000000000000000000000000000000000000815260040161056390611c0a565b60405180910390fd5b6105be8686600360008a67ffffffffffffffff1667ffffffffffffffff16815260200190815260200160002060009054906101000a900473ffffffffffffffffffffffffffffffffffffffff16610dd3565b600360008767ffffffffffffffff1667ffffffffffffffff16815260200190815260200160002060009054906101000a900473ffffffffffffffffffffffffffffffffffffffff1673ffffffffffffffffffffffffffffffffffffffff166367e1d50486868686600260008d67ffffffffffffffff1667ffffffffffffffff1681526020019081526020016000206040518663ffffffff1660e01b815260040161066c959493929190612024565b60206040518083038186803b15801561068457600080fd5b505afa158015610698573d6000803e3d6000fd5b505050506040513d601f19601f820116820180604052508101906106bc91906120b3565b6106fb576040517f08c379a00000000000000000000000000000000000000000000000000000000081526004016106f29061212c565b60405180910390fd5b60018060003373ffffffffffffffffffffffffffffffffffffffff1673ffffffffffffffffffffffffffffffffffffffff16815260200190815260200160002060008867ffffffffffffffff1667ffffffffffffffff16815260200190815260200160002060006101000a81548160ff0219169083151502179055506107c98686600360008a67ffffffffffffffff1667ffffffffffffffff16815260200190815260200160002060009054906101000a900473ffffffffffffffffffffffffffffffffffffffff16610dd8565b6001905095945050505050565b6107de610de5565b600260008367ffffffffffffffff1667ffffffffffffffff1681526020019081526020016000206040518060a00160405290816000820154815260200160018201548152602001600282015481526020016003820180548060200260200160405190810160405280929190818152602001828054801561087d57602002820191906000526020600020905b815481526020019060010190808311610869575b5050505050815260200160048201805461089690611ad4565b80601f01602080910402602001604051908101604052809291908181526020018280546108c290611ad4565b801561090f5780601f106108e45761010080835404028352916020019161090f565b820191906000526020600020905b8154815290600101906020018083116108f257829003601f168201915b5050505050815250509050919050565b6004818154811061092f57600080fd5b9060005260206000209060049182820401919006600802915054906101000a900467ffffffffffffffff1681565b610965610c91565b600073ffffffffffffffffffffffffffffffffffffffff168173ffffffffffffffffffffffffffffffffffffffff1614156109d5576040517f08c379a00000000000000000000000000000000000000000000000000000000081526004016109cc906121be565b60405180910390fd5b6109de81610d0f565b50565b60006109eb610c91565b600073ffffffffffffffffffffffffffffffffffffffff16600360008667ffffffffffffffff1667ffffffffffffffff16815260200190815260200160002060009054906101000a900473ffffffffffffffffffffffffffffffffffffffff1673ffffffffffffffffffffffffffffffffffffffff161415610abe5760048490806001815401808255809150506001900390600052602060002090600491828204019190066008029091909190916101000a81548167ffffffffffffffff021916908367ffffffffffffffff1602179055505b8160600151600260008667ffffffffffffffff1667ffffffffffffffff1681526020019081526020016000206003019080519060200190610b00929190610e14565b508160400151600260008667ffffffffffffffff1667ffffffffffffffff168152602001908152602001600020600201819055508160800151600260008667ffffffffffffffff1667ffffffffffffffff1681526020019081526020016000206004019080519060200190610b76929190610e61565b508160200151600260008667ffffffffffffffff1667ffffffffffffffff168152602001908152602001600020600101819055508160000151600260008667ffffffffffffffff1667ffffffffffffffff168152602001908152602001600020600001819055508160800151600260008667ffffffffffffffff1667ffffffffffffffff1681526020019081526020016000206004019080519060200190610c1f929190610e61565b5082600360008667ffffffffffffffff1667ffffffffffffffff16815260200190815260200160002060006101000a81548173ffffffffffffffffffffffffffffffffffffffff021916908373ffffffffffffffffffffffffffffffffffffffff160217905550600190509392505050565b610c99610ddd565b73ffffffffffffffffffffffffffffffffffffffff16610cb7610303565b73ffffffffffffffffffffffffffffffffffffffff1614610d0d576040517f08c379a0000000000000000000000000000000000000000000000000000000008152600401610d049061222a565b60405180910390fd5b565b60008060009054906101000a900473ffffffffffffffffffffffffffffffffffffffff169050816000806101000a81548173ffffffffffffffffffffffffffffffffffffffff021916908373ffffffffffffffffffffffffffffffffffffffff1602179055508173ffffffffffffffffffffffffffffffffffffffff168173ffffffffffffffffffffffffffffffffffffffff167f8be0079c531659141344cd1fd0a4f28419497f9722a3daafe3b4186f6b6457e060405160405180910390a35050565b505050565b505050565b600033905090565b6040518060a0016040528060008152602001600081526020016000815260200160608152602001606081525090565b828054828255906000526020600020908101928215610e50579160200282015b82811115610e4f578251825591602001919060010190610e34565b5b509050610e5d9190610ee7565b5090565b828054610e6d90611ad4565b90600052602060002090601f016020900481019282610e8f5760008555610ed6565b82601f10610ea857805160ff1916838001178555610ed6565b82800160010185558215610ed6579182015b82811115610ed5578251825591602001919060010190610eba565b5b509050610ee39190610ee7565b5090565b5b80821115610f00576000816000905550600101610ee8565b5090565b600081519050919050565b600082825260208201905092915050565b6000819050602082019050919050565b600067ffffffffffffffff82169050919050565b610f4d81610f30565b82525050565b6000610f5f8383610f44565b60208301905092915050565b6000602082019050919050565b6000610f8382610f04565b610f8d8185610f0f565b9350610f9883610f20565b8060005b83811015610fc9578151610fb08882610f53565b9750610fbb83610f6b565b925050600181019050610f9c565b5085935050505092915050565b60006020820190508181036000830152610ff08184610f78565b905092915050565b600073ffffffffffffffffffffffffffffffffffffffff82169050919050565b600061102382610ff8565b9050919050565b61103381611018565b82525050565b600060208201905061104e600083018461102a565b92915050565b6000604051905090565b600080fd5b600080fd5b61107181610f30565b811461107c57600080fd5b50565b60008135905061108e81611068565b92915050565b6000602082840312156110aa576110a961105e565b5b60006110b88482850161107f565b91505092915050565b6000819050919050565b6110d4816110c1565b82525050565b600081519050919050565b600082825260208201905092915050565b60005b838110156111145780820151818401526020810190506110f9565b83811115611123576000848401525b50505050565b6000601f19601f8301169050919050565b6000611145826110da565b61114f81856110e5565b935061115f8185602086016110f6565b61116881611129565b840191505092915050565b600060808201905061118860008301876110cb565b61119560208301866110cb565b6111a260408301856110cb565b81810360608301526111b4818461113a565b905095945050505050565b6000819050919050565b60006111e46111df6111da84610ff8565b6111bf565b610ff8565b9050919050565b60006111f6826111c9565b9050919050565b6000611208826111eb565b9050919050565b611218816111fd565b82525050565b6000602082019050611233600083018461120f565b92915050565b61124281611018565b811461124d57600080fd5b50565b60008135905061125f81611239565b92915050565b6000806040838503121561127c5761127b61105e565b5b600061128a85828601611250565b925050602061129b8582860161107f565b9150509250929050565b60008115159050919050565b6112ba816112a5565b82525050565b60006020820190506112d560008301846112b1565b92915050565b600080fd5b7f4e487b7100000000000000000000000000000000000000000000000000000000600052604160045260246000fd5b61131882611129565b810181811067ffffffffffffffff82111715611337576113366112e0565b5b80604052505050565b600061134a611054565b9050611356828261130f565b919050565b600067ffffffffffffffff821115611376576113756112e0565b5b602082029050602081019050919050565b600080fd5b611395816110c1565b81146113a057600080fd5b50565b6000813590506113b28161138c565b92915050565b60006113cb6113c68461135b565b611340565b905080838252602082019050602084028301858111156113ee576113ed611387565b5b835b81811015611417578061140388826113a3565b8452602084019350506020810190506113f0565b5050509392505050565b600082601f830112611436576114356112db565b5b81356114468482602086016113b8565b91505092915050565b600067ffffffffffffffff82111561146a576114696112e0565b5b602082029050919050565b60006114886114838461144f565b611340565b905080602084028301858111156114a2576114a1611387565b5b835b818110156114cb57806114b788826113a3565b8452602084019350506020810190506114a4565b5050509392505050565b600082601f8301126114ea576114e96112db565b5b60026114f7848285611475565b91505092915050565b600067ffffffffffffffff82111561151b5761151a6112e0565b5b602082029050919050565b600061153961153484611500565b611340565b9050806040840283018581111561155357611552611387565b5b835b8181101561157c578061156888826114d5565b845260208401935050604081019050611555565b5050509392505050565b600082601f83011261159b5761159a6112db565b5b60026115a8848285611526565b91505092915050565b600080600080600061014086880312156115ce576115cd61105e565b5b60006115dc8882890161107f565b955050602086013567ffffffffffffffff8111156115fd576115fc611063565b5b61160988828901611421565b945050604061161a888289016114d5565b935050608061162b88828901611586565b92505061010061163d888289016114d5565b9150509295509295909350565b611653816110c1565b82525050565b600081519050919050565b600082825260208201905092915050565b6000819050602082019050919050565b6000611691838361164a565b60208301905092915050565b6000602082019050919050565b60006116b582611659565b6116bf8185611664565b93506116ca83611675565b8060005b838110156116fb5781516116e28882611685565b97506116ed8361169d565b9250506001810190506116ce565b5085935050505092915050565b600082825260208201905092915050565b6000611724826110da565b61172e8185611708565b935061173e8185602086016110f6565b61174781611129565b840191505092915050565b600060a08301600083015161176a600086018261164a565b50602083015161177d602086018261164a565b506040830151611790604086018261164a565b50606083015184820360608601526117a882826116aa565b915050608083015184820360808601526117c28282611719565b9150508091505092915050565b600060208201905081810360008301526117e98184611752565b905092915050565b6000602082840312156118075761180661105e565b5b6000611815848285016113a3565b91505092915050565b61182781610f30565b82525050565b6000602082019050611842600083018461181e565b92915050565b60006020828403121561185e5761185d61105e565b5b600061186c84828501611250565b91505092915050565b600061188082611018565b9050919050565b61189081611875565b811461189b57600080fd5b50565b6000813590506118ad81611887565b92915050565b600080fd5b600080fd5b600080fd5b600067ffffffffffffffff8211156118dd576118dc6112e0565b5b6118e682611129565b9050602081019050919050565b82818337600083830152505050565b6000611915611910846118c2565b611340565b905082815260208101848484011115611931576119306118bd565b5b61193c8482856118f3565b509392505050565b600082601f830112611959576119586112db565b5b8135611969848260208601611902565b91505092915050565b600060a08284031215611988576119876118b3565b5b61199260a0611340565b905060006119a2848285016113a3565b60008301525060206119b6848285016113a3565b60208301525060406119ca848285016113a3565b604083015250606082013567ffffffffffffffff8111156119ee576119ed6118b8565b5b6119fa84828501611421565b606083015250608082013567ffffffffffffffff811115611a1e57611a1d6118b8565b5b611a2a84828501611944565b60808301525092915050565b600080600060608486031215611a4f57611a4e61105e565b5b6000611a5d8682870161107f565b9350506020611a6e8682870161189e565b925050604084013567ffffffffffffffff811115611a8f57611a8e611063565b5b611a9b86828701611972565b9150509250925092565b7f4e487b7100000000000000000000000000000000000000000000000000000000600052602260045260246000fd5b60006002820490506001821680611aec57607f821691505b60208210811415611b0057611aff611aa5565b5b50919050565b7f76616c696461746f72206973206e6f742073657420666f72207468697320726560008201527f7175657374206964000000000000000000000000000000000000000000000000602082015250565b6000611b626028836110e5565b9150611b6d82611b06565b604082019050919050565b60006020820190508181036000830152611b9181611b55565b9050919050565b7f7175657279206973206e6f742073657420666f7220746869732072657175657360008201527f7420696400000000000000000000000000000000000000000000000000000000602082015250565b6000611bf46024836110e5565b9150611bff82611b98565b604082019050919050565b60006020820190508181036000830152611c2381611be7565b9050919050565b600082825260208201905092915050565b6000611c4682611659565b611c508185611c2a565b9350611c5b83611675565b8060005b83811015611c8c578151611c738882611685565b9750611c7e8361169d565b925050600181019050611c5f565b5085935050505092915050565b600060029050919050565b600081905092915050565b6000819050919050565b6000602082019050919050565b611ccf81611c99565b611cd98184611ca4565b9250611ce482611caf565b8060005b83811015611d15578151611cfc8782611685565b9650611d0783611cb9565b925050600181019050611ce8565b505050505050565b600060029050919050565b600081905092915050565b6000819050919050565b600081905092915050565b611d5181611c99565b611d5b8184611d3d565b9250611d6682611caf565b8060005b83811015611d97578151611d7e8782611685565b9650611d8983611cb9565b925050600181019050611d6a565b505050505050565b6000611dab8383611d48565b60408301905092915050565b6000602082019050919050565b611dcd81611d1d565b611dd78184611d28565b9250611de282611d33565b8060005b83811015611e13578151611dfa8782611d9f565b9650611e0583611db7565b925050600181019050611de6565b505050505050565b60008160001c9050919050565b6000819050919050565b6000611e45611e4083611e1b565b611e28565b9050919050565b600081549050919050565b60008190508160005260206000209050919050565b6000611e788254611e32565b9050919050565b6000600182019050919050565b6000611e9782611e4c565b611ea18185611664565b9350611eac83611e57565b8060005b83811015611ee457611ec182611e6c565b611ecb8882611685565b9750611ed683611e7f565b925050600181019050611eb0565b5085935050505092915050565b60008190508160005260206000209050919050565b60008154611f1381611ad4565b611f1d8186611708565b94506001821660008114611f385760018114611f4a57611f7d565b60ff1983168652602086019350611f7d565b611f5385611ef1565b60005b83811015611f7557815481890152600182019150602081019050611f56565b808801955050505b50505092915050565b600060a083016000808401549050611f9d81611e32565b611faa600087018261164a565b5060018401549050611fbb81611e32565b611fc8602087018261164a565b5060028401549050611fd981611e32565b611fe6604087018261164a565b50600384018583036060870152611ffd8382611e8c565b9250506004840185830360808701526120168382611f06565b925050819250505092915050565b600061014082019050818103600083015261203f8188611c3b565b905061204e6020830187611cc6565b61205b6060830186611dc4565b61206860e0830185611cc6565b81810361012083015261207b8184611f86565b90509695505050505050565b612090816112a5565b811461209b57600080fd5b50565b6000815190506120ad81612087565b92915050565b6000602082840312156120c9576120c861105e565b5b60006120d78482850161209e565b91505092915050565b7f70726f6f6620726573706f6e7365206973206e6f742076616c69640000000000600082015250565b6000612116601b836110e5565b9150612121826120e0565b602082019050919050565b6000602082019050818103600083015261214581612109565b9050919050565b7f4f776e61626c653a206e6577206f776e657220697320746865207a65726f206160008201527f6464726573730000000000000000000000000000000000000000000000000000602082015250565b60006121a86026836110e5565b91506121b38261214c565b604082019050919050565b600060208201905081810360008301526121d78161219b565b9050919050565b7f4f776e61626c653a2063616c6c6572206973206e6f7420746865206f776e6572600082015250565b60006122146020836110e5565b915061221f826121de565b602082019050919050565b6000602082019050818103600083015261224381612207565b905091905056fea264697066735822122004cf7c36194c9c42f4d32a8e2cc982d15592762235e00627726b97e890cd826564736f6c63430008090033",
  "linkReferences": {},
  "deployedLinkReferences": {}
}